{
  "_format": "hh-sol-artifact-1",
  "contractName": "DFKEarnBase",
  "sourceName": "contracts/dfkearn/DFKEarnBase.sol",
  "abi": [
    {
      "inputs": [
        {
          "internalType": "address",
          "name": "_accountFacotry",
          "type": "address"
        }
      ],
      "stateMutability": "nonpayable",
      "type": "constructor"
    },
    {
      "anonymous": false,
      "inputs": [
        {
          "indexed": false,
          "internalType": "address",
          "name": "newAdmin",
          "type": "address"
        },
        {
          "indexed": false,
          "internalType": "address",
          "name": "oldAdmin",
          "type": "address"
        }
      ],
      "name": "NewAdmin",
      "type": "event"
    },
    {
      "anonymous": false,
      "inputs": [
        {
          "indexed": false,
          "internalType": "address",
          "name": "newPendingAdmin",
          "type": "address"
        },
        {
          "indexed": false,
          "internalType": "address",
          "name": "oldPendingAdmin",
          "type": "address"
        }
      ],
      "name": "NewPendingAdmin",
      "type": "event"
    },
    {
      "inputs": [],
      "name": "acceptAdmin",
      "outputs": [],
      "stateMutability": "nonpayable",
      "type": "function"
    },
    {
      "inputs": [],
      "name": "accountFactory",
      "outputs": [
        {
          "internalType": "address",
          "name": "",
          "type": "address"
        }
      ],
      "stateMutability": "view",
      "type": "function"
    },
    {
      "inputs": [],
      "name": "admin",
      "outputs": [
        {
          "internalType": "address",
          "name": "",
          "type": "address"
        }
      ],
      "stateMutability": "view",
      "type": "function"
    },
    {
      "inputs": [
        {
          "internalType": "address[]",
          "name": "_erc20Tokens",
          "type": "address[]"
        },
        {
          "internalType": "uint256[]",
          "name": "_amounts",
          "type": "uint256[]"
        }
      ],
      "name": "batchWithdrawalERC20Tokens",
      "outputs": [],
      "stateMutability": "nonpayable",
      "type": "function"
    },
    {
      "inputs": [
        {
          "internalType": "address",
          "name": "_erc721Token",
          "type": "address"
        },
        {
          "internalType": "uint256[]",
          "name": "_tokenIds",
          "type": "uint256[]"
        }
      ],
      "name": "batchWithdrawalERC721Tokens",
      "outputs": [],
      "stateMutability": "nonpayable",
      "type": "function"
    },
    {
      "inputs": [
        {
          "internalType": "address",
          "name": "user",
          "type": "address"
        }
      ],
      "name": "getAccount",
      "outputs": [
        {
          "internalType": "address",
          "name": "",
          "type": "address"
        }
      ],
      "stateMutability": "view",
      "type": "function"
    },
    {
      "inputs": [
        {
          "internalType": "address",
          "name": "user",
          "type": "address"
        }
      ],
      "name": "hasAccount",
      "outputs": [
        {
          "internalType": "bool",
          "name": "",
          "type": "bool"
        }
      ],
      "stateMutability": "view",
      "type": "function"
    },
    {
      "inputs": [],
      "name": "pendingAdmin",
      "outputs": [
        {
          "internalType": "address",
          "name": "",
          "type": "address"
        }
      ],
      "stateMutability": "view",
      "type": "function"
    },
    {
      "inputs": [
        {
          "internalType": "address[]",
          "name": "_items",
          "type": "address[]"
        },
        {
          "internalType": "uint256[]",
          "name": "_amounts",
          "type": "uint256[]"
        }
      ],
      "name": "sellToVender",
      "outputs": [],
      "stateMutability": "nonpayable",
      "type": "function"
    },
    {
      "inputs": [
        {
          "internalType": "address",
          "name": "_newPendingAdmin",
          "type": "address"
        }
      ],
      "name": "setPendingAdmin",
      "outputs": [],
      "stateMutability": "nonpayable",
      "type": "function"
    },
    {
      "inputs": [
        {
          "internalType": "address",
          "name": "user",
          "type": "address"
        }
      ],
      "name": "tryGetAccount",
      "outputs": [
        {
          "internalType": "address",
          "name": "",
          "type": "address"
        }
      ],
      "stateMutability": "view",
      "type": "function"
    },
    {
      "inputs": [
        {
          "internalType": "uint256",
          "name": "_amount",
          "type": "uint256"
        }
      ],
      "name": "withdrawalNativeToken",
      "outputs": [],
      "stateMutability": "nonpayable",
      "type": "function"
    }
  ],
  "bytecode": "0x60a06040523480156200001157600080fd5b506040516200207838038062002078833981810160405281019062000037919062000128565b336000806101000a81548173ffffffffffffffffffffffffffffffffffffffff021916908373ffffffffffffffffffffffffffffffffffffffff1602179055507ff9ffabca9c8276e99321725bcb43fb076a6c66a54b7f21c4e8146d8519b417dc60008054906101000a900473ffffffffffffffffffffffffffffffffffffffff166000604051620000cb92919062000165565b60405180910390a18073ffffffffffffffffffffffffffffffffffffffff1660808173ffffffffffffffffffffffffffffffffffffffff1660601b8152505050620001e0565b6000815190506200012281620001c6565b92915050565b6000602082840312156200013b57600080fd5b60006200014b8482850162000111565b91505092915050565b6200015f8162000192565b82525050565b60006040820190506200017c600083018562000154565b6200018b602083018462000154565b9392505050565b60006200019f82620001a6565b9050919050565b600073ffffffffffffffffffffffffffffffffffffffff82169050919050565b620001d18162000192565b8114620001dd57600080fd5b50565b60805160601c611e7262000206600039600081816104af0152610e0c0152611e726000f3fe608060405234801561001057600080fd5b50600436106100b45760003560e01c8063687cd9c111610071578063687cd9c1146101655780637a5cadd014610183578063b38354471461019f578063c8e40fbf146101bb578063f851a440146101eb578063fbcbc0f114610209576100b4565b80630e18b681146100b95780631cc1b0e1146100c357806326782247146100f35780632eaa6053146101115780633760da5a1461012d5780634dd18bf514610149575b600080fd5b6100c1610239565b005b6100dd60048036038101906100d89190611633565b6104ab565b6040516100ea919061192c565b60405180910390f35b6100fb61055d565b604051610108919061192c565b60405180910390f35b61012b60048036038101906101269190611685565b610583565b005b610147600480360381019061014291906116dd565b610856565b005b610163600480360381019061015e9190611633565b610b97565b005b61016d610e0a565b60405161017a919061192c565b60405180910390f35b61019d60048036038101906101989190611793565b610e2e565b005b6101b960048036038101906101b491906116dd565b610f06565b005b6101d560048036038101906101d09190611633565b6113f7565b6040516101e29190611a29565b60405180910390f35b6101f3611438565b604051610200919061192c565b60405180910390f35b610223600480360381019061021e9190611633565b61145c565b604051610230919061192c565b60405180910390f35b600160009054906101000a900473ffffffffffffffffffffffffffffffffffffffff1673ffffffffffffffffffffffffffffffffffffffff163373ffffffffffffffffffffffffffffffffffffffff161480156102c35750600073ffffffffffffffffffffffffffffffffffffffff163373ffffffffffffffffffffffffffffffffffffffff1614155b610302576040517f08c379a00000000000000000000000000000000000000000000000000000000081526004016102f990611ac4565b60405180910390fd5b60008060009054906101000a900473ffffffffffffffffffffffffffffffffffffffff1690506000600160009054906101000a900473ffffffffffffffffffffffffffffffffffffffff169050600160009054906101000a900473ffffffffffffffffffffffffffffffffffffffff166000806101000a81548173ffffffffffffffffffffffffffffffffffffffff021916908373ffffffffffffffffffffffffffffffffffffffff1602179055506000600160006101000a81548173ffffffffffffffffffffffffffffffffffffffff021916908373ffffffffffffffffffffffffffffffffffffffff1602179055507ff9ffabca9c8276e99321725bcb43fb076a6c66a54b7f21c4e8146d8519b417dc60008054906101000a900473ffffffffffffffffffffffffffffffffffffffff1683604051610444929190611970565b60405180910390a17fca4f2f25d0898edd99413412fb94012f9e54ec8142f9b093e7720646a95b16a9600160009054906101000a900473ffffffffffffffffffffffffffffffffffffffff168260405161049f929190611970565b60405180910390a15050565b60007f000000000000000000000000000000000000000000000000000000000000000073ffffffffffffffffffffffffffffffffffffffff16635e5c06e2836040518263ffffffff1660e01b8152600401610506919061192c565b60206040518083038186803b15801561051e57600080fd5b505afa158015610532573d6000803e3d6000fd5b505050506040513d601f19601f82011682018060405250810190610556919061165c565b9050919050565b600160009054906101000a900473ffffffffffffffffffffffffffffffffffffffff1681565b600061058e3361145c565b905060005b8383905081101561084f5760008573ffffffffffffffffffffffffffffffffffffffff16636352211e8686858181106105f5577f4e487b7100000000000000000000000000000000000000000000000000000000600052603260045260246000fd5b905060200201356040518263ffffffff1660e01b81526004016106189190611b04565b60206040518083038186803b15801561063057600080fd5b505afa158015610644573d6000803e3d6000fd5b505050506040513d601f19601f82011682018060405250810190610668919061165c565b90508273ffffffffffffffffffffffffffffffffffffffff168173ffffffffffffffffffffffffffffffffffffffff16146106d8576040517f08c379a00000000000000000000000000000000000000000000000000000000081526004016106cf90611ae4565b60405180910390fd5b8273ffffffffffffffffffffffffffffffffffffffff1663a0b5ffb0878533898988818110610730577f4e487b7100000000000000000000000000000000000000000000000000000000600052603260045260246000fd5b9050602002013560405160240161074993929190611999565b6040516020818303038152906040527f42842e0e000000000000000000000000000000000000000000000000000000007bffffffffffffffffffffffffffffffffffffffffffffffffffffffff19166020820180517bffffffffffffffffffffffffffffffffffffffffffffffffffffffff83818316178352505050506040518363ffffffff1660e01b81526004016107e39291906119d0565b600060405180830381600087803b1580156107fd57600080fd5b505af1158015610811573d6000803e3d6000fd5b505050506040513d6000823e3d601f19601f8201168201806040525081019061083a9190611752565b5050808061084790611c60565b915050610593565b5050505050565b60006108613361145c565b905060005b85859050811015610b8f5760008686838181106108ac577f4e487b7100000000000000000000000000000000000000000000000000000000600052603260045260246000fd5b90506020020160208101906108c19190611633565b73ffffffffffffffffffffffffffffffffffffffff166370a08231846040518263ffffffff1660e01b81526004016108f9919061192c565b60206040518083038186803b15801561091157600080fd5b505afa158015610925573d6000803e3d6000fd5b505050506040513d601f19601f8201168201806040525081019061094991906117bc565b905080858584818110610985577f4e487b7100000000000000000000000000000000000000000000000000000000600052603260045260246000fd5b9050602002013511156109cd576040517f08c379a00000000000000000000000000000000000000000000000000000000081526004016109c490611aa4565b60405180910390fd5b8273ffffffffffffffffffffffffffffffffffffffff1663a0b5ffb0888885818110610a22577f4e487b7100000000000000000000000000000000000000000000000000000000600052603260045260246000fd5b9050602002016020810190610a379190611633565b33888887818110610a71577f4e487b7100000000000000000000000000000000000000000000000000000000600052603260045260246000fd5b90506020020135604051602401610a89929190611a00565b6040516020818303038152906040527fa9059cbb000000000000000000000000000000000000000000000000000000007bffffffffffffffffffffffffffffffffffffffffffffffffffffffff19166020820180517bffffffffffffffffffffffffffffffffffffffffffffffffffffffff83818316178352505050506040518363ffffffff1660e01b8152600401610b239291906119d0565b600060405180830381600087803b158015610b3d57600080fd5b505af1158015610b51573d6000803e3d6000fd5b505050506040513d6000823e3d601f19601f82011682018060405250810190610b7a9190611752565b50508080610b8790611c60565b915050610866565b505050505050565b60008054906101000a900473ffffffffffffffffffffffffffffffffffffffff1673ffffffffffffffffffffffffffffffffffffffff163373ffffffffffffffffffffffffffffffffffffffff1614610c25576040517f08c379a0000000000000000000000000000000000000000000000000000000008152600401610c1c90611a44565b60405180910390fd5b60008054906101000a900473ffffffffffffffffffffffffffffffffffffffff1673ffffffffffffffffffffffffffffffffffffffff168173ffffffffffffffffffffffffffffffffffffffff1614158015610cae5750600073ffffffffffffffffffffffffffffffffffffffff168173ffffffffffffffffffffffffffffffffffffffff1614155b610ced576040517f08c379a0000000000000000000000000000000000000000000000000000000008152600401610ce490611a64565b60405180910390fd5b8073ffffffffffffffffffffffffffffffffffffffff16600160009054906101000a900473ffffffffffffffffffffffffffffffffffffffff1673ffffffffffffffffffffffffffffffffffffffff1614610e07576000600160009054906101000a900473ffffffffffffffffffffffffffffffffffffffff16905081600160006101000a81548173ffffffffffffffffffffffffffffffffffffffff021916908373ffffffffffffffffffffffffffffffffffffffff1602179055507fca4f2f25d0898edd99413412fb94012f9e54ec8142f9b093e7720646a95b16a9600160009054906101000a900473ffffffffffffffffffffffffffffffffffffffff1682604051610dfd929190611970565b60405180910390a1505b50565b7f000000000000000000000000000000000000000000000000000000000000000081565b6000610e393361145c565b90508073ffffffffffffffffffffffffffffffffffffffff1631821115610e95576040517f08c379a0000000000000000000000000000000000000000000000000000000008152600401610e8c90611aa4565b60405180910390fd5b8073ffffffffffffffffffffffffffffffffffffffff166324a084df33846040518363ffffffff1660e01b8152600401610ed0929190611947565b600060405180830381600087803b158015610eea57600080fd5b505af1158015610efe573d6000803e3d6000fd5b505050505050565b600073e53bf78f8b99b6d356f93f41afb9951168cca2c690506000610f2a3361145c565b905060005b868690508110156113ee576000878783818110610f75577f4e487b7100000000000000000000000000000000000000000000000000000000600052603260045260246000fd5b9050602002016020810190610f8a9190611633565b73ffffffffffffffffffffffffffffffffffffffff166370a08231846040518263ffffffff1660e01b8152600401610fc2919061192c565b60206040518083038186803b158015610fda57600080fd5b505afa158015610fee573d6000803e3d6000fd5b505050506040513d601f19601f8201168201806040525081019061101291906117bc565b90508086868481811061104e577f4e487b7100000000000000000000000000000000000000000000000000000000600052603260045260246000fd5b905060200201351115611096576040517f08c379a000000000000000000000000000000000000000000000000000000000815260040161108d90611aa4565b60405180910390fd5b8273ffffffffffffffffffffffffffffffffffffffff1663a0b5ffb08989858181106110eb577f4e487b7100000000000000000000000000000000000000000000000000000000600052603260045260246000fd5b90506020020160208101906111009190611633565b8689898781811061113a577f4e487b7100000000000000000000000000000000000000000000000000000000600052603260045260246000fd5b90506020020135604051602401611152929190611a00565b6040516020818303038152906040527f095ea7b3000000000000000000000000000000000000000000000000000000007bffffffffffffffffffffffffffffffffffffffffffffffffffffffff19166020820180517bffffffffffffffffffffffffffffffffffffffffffffffffffffffff83818316178352505050506040518363ffffffff1660e01b81526004016111ec9291906119d0565b600060405180830381600087803b15801561120657600080fd5b505af115801561121a573d6000803e3d6000fd5b505050506040513d6000823e3d601f19601f820116820180604052508101906112439190611752565b508273ffffffffffffffffffffffffffffffffffffffff1663a0b5ffb08563096c5e1a60e01b8b8b878181106112a2577f4e487b7100000000000000000000000000000000000000000000000000000000600052603260045260246000fd5b90506020020160208101906112b79190611633565b8a8a888181106112f0577f4e487b7100000000000000000000000000000000000000000000000000000000600052603260045260246000fd5b90506020020135604051602401611308929190611a00565b604051602081830303815290604052907bffffffffffffffffffffffffffffffffffffffffffffffffffffffff19166020820180517bffffffffffffffffffffffffffffffffffffffffffffffffffffffff83818316178352505050506040518363ffffffff1660e01b81526004016113829291906119d0565b600060405180830381600087803b15801561139c57600080fd5b505af11580156113b0573d6000803e3d6000fd5b505050506040513d6000823e3d601f19601f820116820180604052508101906113d99190611752565b505080806113e690611c60565b915050610f2f565b50505050505050565b60008073ffffffffffffffffffffffffffffffffffffffff16611419836104ab565b73ffffffffffffffffffffffffffffffffffffffff1614159050919050565b60008054906101000a900473ffffffffffffffffffffffffffffffffffffffff1681565b600080611468836104ab565b9050600073ffffffffffffffffffffffffffffffffffffffff168173ffffffffffffffffffffffffffffffffffffffff1614156114da576040517f08c379a00000000000000000000000000000000000000000000000000000000081526004016114d190611a84565b60405180910390fd5b80915050919050565b60006114f66114f184611b44565b611b1f565b90508281526020810184848401111561150e57600080fd5b611519848285611bfc565b509392505050565b60008135905061153081611e0e565b92915050565b60008151905061154581611e0e565b92915050565b60008083601f84011261155d57600080fd5b8235905067ffffffffffffffff81111561157657600080fd5b60208301915083602082028301111561158e57600080fd5b9250929050565b60008083601f8401126115a757600080fd5b8235905067ffffffffffffffff8111156115c057600080fd5b6020830191508360208202830111156115d857600080fd5b9250929050565b600082601f8301126115f057600080fd5b81516116008482602086016114e3565b91505092915050565b60008135905061161881611e25565b92915050565b60008151905061162d81611e25565b92915050565b60006020828403121561164557600080fd5b600061165384828501611521565b91505092915050565b60006020828403121561166e57600080fd5b600061167c84828501611536565b91505092915050565b60008060006040848603121561169a57600080fd5b60006116a886828701611521565b935050602084013567ffffffffffffffff8111156116c557600080fd5b6116d186828701611595565b92509250509250925092565b600080600080604085870312156116f357600080fd5b600085013567ffffffffffffffff81111561170d57600080fd5b6117198782880161154b565b9450945050602085013567ffffffffffffffff81111561173857600080fd5b61174487828801611595565b925092505092959194509250565b60006020828403121561176457600080fd5b600082015167ffffffffffffffff81111561177e57600080fd5b61178a848285016115df565b91505092915050565b6000602082840312156117a557600080fd5b60006117b384828501611609565b91505092915050565b6000602082840312156117ce57600080fd5b60006117dc8482850161161e565b91505092915050565b6117ee81611bb4565b82525050565b6117fd81611ba2565b82525050565b61180c81611bc6565b82525050565b600061181d82611b75565b6118278185611b80565b9350611837818560208601611bfc565b61184081611d07565b840191505092915050565b6000611858601283611b91565b915061186382611d18565b602082019050919050565b600061187b601883611b91565b915061188682611d41565b602082019050919050565b600061189e601383611b91565b91506118a982611d6a565b602082019050919050565b60006118c1601d83611b91565b91506118cc82611d93565b602082019050919050565b60006118e4601a83611b91565b91506118ef82611dbc565b602082019050919050565b6000611907601283611b91565b915061191282611de5565b602082019050919050565b61192681611bf2565b82525050565b600060208201905061194160008301846117f4565b92915050565b600060408201905061195c60008301856117e5565b611969602083018461191d565b9392505050565b600060408201905061198560008301856117f4565b61199260208301846117f4565b9392505050565b60006060820190506119ae60008301866117f4565b6119bb60208301856117f4565b6119c8604083018461191d565b949350505050565b60006040820190506119e560008301856117f4565b81810360208301526119f78184611812565b90509392505050565b6000604082019050611a1560008301856117f4565b611a22602083018461191d565b9392505050565b6000602082019050611a3e6000830184611803565b92915050565b60006020820190508181036000830152611a5d8161184b565b9050919050565b60006020820190508181036000830152611a7d8161186e565b9050919050565b60006020820190508181036000830152611a9d81611891565b9050919050565b60006020820190508181036000830152611abd816118b4565b9050919050565b60006020820190508181036000830152611add816118d7565b9050919050565b60006020820190508181036000830152611afd816118fa565b9050919050565b6000602082019050611b19600083018461191d565b92915050565b6000611b29611b3a565b9050611b358282611c2f565b919050565b6000604051905090565b600067ffffffffffffffff821115611b5f57611b5e611cd8565b5b611b6882611d07565b9050602081019050919050565b600081519050919050565b600082825260208201905092915050565b600082825260208201905092915050565b6000611bad82611bd2565b9050919050565b6000611bbf82611bd2565b9050919050565b60008115159050919050565b600073ffffffffffffffffffffffffffffffffffffffff82169050919050565b6000819050919050565b60005b83811015611c1a578082015181840152602081019050611bff565b83811115611c29576000848401525b50505050565b611c3882611d07565b810181811067ffffffffffffffff82111715611c5757611c56611cd8565b5b80604052505050565b6000611c6b82611bf2565b91507fffffffffffffffffffffffffffffffffffffffffffffffffffffffffffffffff821415611c9e57611c9d611ca9565b5b600182019050919050565b7f4e487b7100000000000000000000000000000000000000000000000000000000600052601160045260246000fd5b7f4e487b7100000000000000000000000000000000000000000000000000000000600052604160045260246000fd5b6000601f19601f8301169050919050565b7f44464b4561726e3a206e6f742061646d696e0000000000000000000000000000600082015250565b7f44464b4561726e3a20696e76616c696420616464726573730000000000000000600082015250565b7f44464b4561726e3a206e6f206163636f756e7400000000000000000000000000600082015250565b7f44464b4561726e3a20696e73756666696369656e742062616c616e6365000000600082015250565b7f44464b4561726e3a206e6f742070656e64696e672061646d696e000000000000600082015250565b7f44464b4561726e3a206e6f74206f776e65720000000000000000000000000000600082015250565b611e1781611ba2565b8114611e2257600080fd5b50565b611e2e81611bf2565b8114611e3957600080fd5b5056fea2646970667358221220c8a57d08e08f813fa24b412c419701a45b3ac9f93787c59c2f52b7b7775cfeea64736f6c63430008040033",
  "linkReferences": {},
  "deployedLinkReferences": {}
}