{
  "_format": "hh-sol-artifact-1",
  "contractName": "MockHero",
  "sourceName": "contracts/mocks/MockHero.sol",
  "abi": [
    {
      "inputs": [],
      "stateMutability": "nonpayable",
      "type": "constructor"
    },
    {
      "anonymous": false,
      "inputs": [
        {
          "indexed": true,
          "internalType": "address",
          "name": "owner",
          "type": "address"
        },
        {
          "indexed": true,
          "internalType": "address",
          "name": "approved",
          "type": "address"
        },
        {
          "indexed": true,
          "internalType": "uint256",
          "name": "tokenId",
          "type": "uint256"
        }
      ],
      "name": "Approval",
      "type": "event"
    },
    {
      "anonymous": false,
      "inputs": [
        {
          "indexed": true,
          "internalType": "address",
          "name": "owner",
          "type": "address"
        },
        {
          "indexed": true,
          "internalType": "address",
          "name": "operator",
          "type": "address"
        },
        {
          "indexed": false,
          "internalType": "bool",
          "name": "approved",
          "type": "bool"
        }
      ],
      "name": "ApprovalForAll",
      "type": "event"
    },
    {
      "anonymous": false,
      "inputs": [
        {
          "indexed": true,
          "internalType": "address",
          "name": "from",
          "type": "address"
        },
        {
          "indexed": true,
          "internalType": "address",
          "name": "to",
          "type": "address"
        },
        {
          "indexed": true,
          "internalType": "uint256",
          "name": "tokenId",
          "type": "uint256"
        }
      ],
      "name": "Transfer",
      "type": "event"
    },
    {
      "inputs": [
        {
          "internalType": "address",
          "name": "to",
          "type": "address"
        },
        {
          "internalType": "uint256",
          "name": "tokenId",
          "type": "uint256"
        }
      ],
      "name": "approve",
      "outputs": [],
      "stateMutability": "nonpayable",
      "type": "function"
    },
    {
      "inputs": [
        {
          "internalType": "address",
          "name": "owner",
          "type": "address"
        }
      ],
      "name": "balanceOf",
      "outputs": [
        {
          "internalType": "uint256",
          "name": "",
          "type": "uint256"
        }
      ],
      "stateMutability": "view",
      "type": "function"
    },
    {
      "inputs": [
        {
          "internalType": "uint256",
          "name": "tokenId",
          "type": "uint256"
        }
      ],
      "name": "getApproved",
      "outputs": [
        {
          "internalType": "address",
          "name": "",
          "type": "address"
        }
      ],
      "stateMutability": "view",
      "type": "function"
    },
    {
      "inputs": [
        {
          "internalType": "address",
          "name": "owner",
          "type": "address"
        },
        {
          "internalType": "address",
          "name": "operator",
          "type": "address"
        }
      ],
      "name": "isApprovedForAll",
      "outputs": [
        {
          "internalType": "bool",
          "name": "",
          "type": "bool"
        }
      ],
      "stateMutability": "view",
      "type": "function"
    },
    {
      "inputs": [],
      "name": "mint",
      "outputs": [
        {
          "internalType": "uint256",
          "name": "",
          "type": "uint256"
        }
      ],
      "stateMutability": "nonpayable",
      "type": "function"
    },
    {
      "inputs": [],
      "name": "name",
      "outputs": [
        {
          "internalType": "string",
          "name": "",
          "type": "string"
        }
      ],
      "stateMutability": "view",
      "type": "function"
    },
    {
      "inputs": [
        {
          "internalType": "uint256",
          "name": "tokenId",
          "type": "uint256"
        }
      ],
      "name": "ownerOf",
      "outputs": [
        {
          "internalType": "address",
          "name": "",
          "type": "address"
        }
      ],
      "stateMutability": "view",
      "type": "function"
    },
    {
      "inputs": [
        {
          "internalType": "address",
          "name": "from",
          "type": "address"
        },
        {
          "internalType": "address",
          "name": "to",
          "type": "address"
        },
        {
          "internalType": "uint256",
          "name": "tokenId",
          "type": "uint256"
        }
      ],
      "name": "safeTransferFrom",
      "outputs": [],
      "stateMutability": "nonpayable",
      "type": "function"
    },
    {
      "inputs": [
        {
          "internalType": "address",
          "name": "from",
          "type": "address"
        },
        {
          "internalType": "address",
          "name": "to",
          "type": "address"
        },
        {
          "internalType": "uint256",
          "name": "tokenId",
          "type": "uint256"
        },
        {
          "internalType": "bytes",
          "name": "_data",
          "type": "bytes"
        }
      ],
      "name": "safeTransferFrom",
      "outputs": [],
      "stateMutability": "nonpayable",
      "type": "function"
    },
    {
      "inputs": [
        {
          "internalType": "address",
          "name": "operator",
          "type": "address"
        },
        {
          "internalType": "bool",
          "name": "approved",
          "type": "bool"
        }
      ],
      "name": "setApprovalForAll",
      "outputs": [],
      "stateMutability": "nonpayable",
      "type": "function"
    },
    {
      "inputs": [
        {
          "internalType": "bytes4",
          "name": "interfaceId",
          "type": "bytes4"
        }
      ],
      "name": "supportsInterface",
      "outputs": [
        {
          "internalType": "bool",
          "name": "",
          "type": "bool"
        }
      ],
      "stateMutability": "view",
      "type": "function"
    },
    {
      "inputs": [],
      "name": "symbol",
      "outputs": [
        {
          "internalType": "string",
          "name": "",
          "type": "string"
        }
      ],
      "stateMutability": "view",
      "type": "function"
    },
    {
      "inputs": [
        {
          "internalType": "uint256",
          "name": "index",
          "type": "uint256"
        }
      ],
      "name": "tokenByIndex",
      "outputs": [
        {
          "internalType": "uint256",
          "name": "",
          "type": "uint256"
        }
      ],
      "stateMutability": "view",
      "type": "function"
    },
    {
      "inputs": [
        {
          "internalType": "address",
          "name": "owner",
          "type": "address"
        },
        {
          "internalType": "uint256",
          "name": "index",
          "type": "uint256"
        }
      ],
      "name": "tokenOfOwnerByIndex",
      "outputs": [
        {
          "internalType": "uint256",
          "name": "",
          "type": "uint256"
        }
      ],
      "stateMutability": "view",
      "type": "function"
    },
    {
      "inputs": [
        {
          "internalType": "uint256",
          "name": "tokenId",
          "type": "uint256"
        }
      ],
      "name": "tokenURI",
      "outputs": [
        {
          "internalType": "string",
          "name": "",
          "type": "string"
        }
      ],
      "stateMutability": "view",
      "type": "function"
    },
    {
      "inputs": [],
      "name": "totalSupply",
      "outputs": [
        {
          "internalType": "uint256",
          "name": "",
          "type": "uint256"
        }
      ],
      "stateMutability": "view",
      "type": "function"
    },
    {
      "inputs": [
        {
          "internalType": "address",
          "name": "from",
          "type": "address"
        },
        {
          "internalType": "address",
          "name": "to",
          "type": "address"
        },
        {
          "internalType": "uint256",
          "name": "tokenId",
          "type": "uint256"
        }
      ],
      "name": "transferFrom",
      "outputs": [],
      "stateMutability": "nonpayable",
      "type": "function"
    }
  ],
  "bytecode": "0x60806040523480156200001157600080fd5b506040518060400160405280600881526020017f4d6f636b4865726f0000000000000000000000000000000000000000000000008152506040518060400160405280600381526020017f4d48520000000000000000000000000000000000000000000000000000000000815250816000908051906020019062000096929190620000b8565b508060019080519060200190620000af929190620000b8565b505050620001cd565b828054620000c69062000168565b90600052602060002090601f016020900481019282620000ea576000855562000136565b82601f106200010557805160ff191683800117855562000136565b8280016001018555821562000136579182015b828111156200013557825182559160200191906001019062000118565b5b50905062000145919062000149565b5090565b5b80821115620001645760008160009055506001016200014a565b5090565b600060028204905060018216806200018157607f821691505b602082108114156200019857620001976200019e565b5b50919050565b7f4e487b7100000000000000000000000000000000000000000000000000000000600052602260045260246000fd5b612ee680620001dd6000396000f3fe608060405234801561001057600080fd5b506004361061010b5760003560e01c806342842e0e116100a257806395d89b411161007157806395d89b41146102de578063a22cb465146102fc578063b88d4fde14610318578063c87b56dd14610334578063e985e9c5146103645761010b565b806342842e0e146102325780634f6ccce71461024e5780636352211e1461027e57806370a08231146102ae5761010b565b80631249c58b116100de5780631249c58b146101aa57806318160ddd146101c857806323b872dd146101e65780632f745c59146102025761010b565b806301ffc9a71461011057806306fdde0314610140578063081812fc1461015e578063095ea7b31461018e575b600080fd5b61012a60048036038101906101259190611fc4565b610394565b60405161013791906123ca565b60405180910390f35b61014861040e565b60405161015591906123e5565b60405180910390f35b61017860048036038101906101739190612016565b6104a0565b6040516101859190612363565b60405180910390f35b6101a860048036038101906101a39190611f88565b610525565b005b6101b261063d565b6040516101bf9190612607565b60405180910390f35b6101d0610667565b6040516101dd9190612607565b60405180910390f35b61020060048036038101906101fb9190611e82565b610674565b005b61021c60048036038101906102179190611f88565b6106d4565b6040516102299190612607565b60405180910390f35b61024c60048036038101906102479190611e82565b610779565b005b61026860048036038101906102639190612016565b610799565b6040516102759190612607565b60405180910390f35b61029860048036038101906102939190612016565b610830565b6040516102a59190612363565b60405180910390f35b6102c860048036038101906102c39190611e1d565b6108e2565b6040516102d59190612607565b60405180910390f35b6102e661099a565b6040516102f391906123e5565b60405180910390f35b61031660048036038101906103119190611f4c565b610a2c565b005b610332600480360381019061032d9190611ed1565b610a42565b005b61034e60048036038101906103499190612016565b610aa4565b60405161035b91906123e5565b60405180910390f35b61037e60048036038101906103799190611e46565b610b4b565b60405161038b91906123ca565b60405180910390f35b60007f780e9d63000000000000000000000000000000000000000000000000000000007bffffffffffffffffffffffffffffffffffffffffffffffffffffffff1916827bffffffffffffffffffffffffffffffffffffffffffffffffffffffff19161480610407575061040682610bdf565b5b9050919050565b60606000805461041d9061282c565b80601f01602080910402602001604051908101604052809291908181526020018280546104499061282c565b80156104965780601f1061046b57610100808354040283529160200191610496565b820191906000526020600020905b81548152906001019060200180831161047957829003601f168201915b5050505050905090565b60006104ab82610cc1565b6104ea576040517f08c379a00000000000000000000000000000000000000000000000000000000081526004016104e190612547565b60405180910390fd5b6004600083815260200190815260200160002060009054906101000a900473ffffffffffffffffffffffffffffffffffffffff169050919050565b600061053082610830565b90508073ffffffffffffffffffffffffffffffffffffffff168373ffffffffffffffffffffffffffffffffffffffff1614156105a1576040517f08c379a0000000000000000000000000000000000000000000000000000000008152600401610598906125a7565b60405180910390fd5b8073ffffffffffffffffffffffffffffffffffffffff166105c0610d2d565b73ffffffffffffffffffffffffffffffffffffffff1614806105ef57506105ee816105e9610d2d565b610b4b565b5b61062e576040517f08c379a0000000000000000000000000000000000000000000000000000000008152600401610625906124c7565b60405180910390fd5b6106388383610d35565b505050565b60008061064a600a610dee565b90506106563382610dfc565b610660600a610fca565b8091505090565b6000600880549050905090565b61068561067f610d2d565b82610fe0565b6106c4576040517f08c379a00000000000000000000000000000000000000000000000000000000081526004016106bb906125c7565b60405180910390fd5b6106cf8383836110be565b505050565b60006106df836108e2565b8210610720576040517f08c379a000000000000000000000000000000000000000000000000000000000815260040161071790612407565b60405180910390fd5b600660008473ffffffffffffffffffffffffffffffffffffffff1673ffffffffffffffffffffffffffffffffffffffff168152602001908152602001600020600083815260200190815260200160002054905092915050565b61079483838360405180602001604052806000815250610a42565b505050565b60006107a3610667565b82106107e4576040517f08c379a00000000000000000000000000000000000000000000000000000000081526004016107db906125e7565b60405180910390fd5b6008828154811061081e577f4e487b7100000000000000000000000000000000000000000000000000000000600052603260045260246000fd5b90600052602060002001549050919050565b6000806002600084815260200190815260200160002060009054906101000a900473ffffffffffffffffffffffffffffffffffffffff169050600073ffffffffffffffffffffffffffffffffffffffff168173ffffffffffffffffffffffffffffffffffffffff1614156108d9576040517f08c379a00000000000000000000000000000000000000000000000000000000081526004016108d090612507565b60405180910390fd5b80915050919050565b60008073ffffffffffffffffffffffffffffffffffffffff168273ffffffffffffffffffffffffffffffffffffffff161415610953576040517f08c379a000000000000000000000000000000000000000000000000000000000815260040161094a906124e7565b60405180910390fd5b600360008373ffffffffffffffffffffffffffffffffffffffff1673ffffffffffffffffffffffffffffffffffffffff168152602001908152602001600020549050919050565b6060600180546109a99061282c565b80601f01602080910402602001604051908101604052809291908181526020018280546109d59061282c565b8015610a225780601f106109f757610100808354040283529160200191610a22565b820191906000526020600020905b815481529060010190602001808311610a0557829003601f168201915b5050505050905090565b610a3e610a37610d2d565b838361131a565b5050565b610a53610a4d610d2d565b83610fe0565b610a92576040517f08c379a0000000000000000000000000000000000000000000000000000000008152600401610a89906125c7565b60405180910390fd5b610a9e84848484611487565b50505050565b6060610aaf82610cc1565b610aee576040517f08c379a0000000000000000000000000000000000000000000000000000000008152600401610ae590612587565b60405180910390fd5b6000610af86114e3565b90506000815111610b185760405180602001604052806000815250610b43565b80610b22846114fa565b604051602001610b3392919061233f565b6040516020818303038152906040525b915050919050565b6000600560008473ffffffffffffffffffffffffffffffffffffffff1673ffffffffffffffffffffffffffffffffffffffff16815260200190815260200160002060008373ffffffffffffffffffffffffffffffffffffffff1673ffffffffffffffffffffffffffffffffffffffff16815260200190815260200160002060009054906101000a900460ff16905092915050565b60007f80ac58cd000000000000000000000000000000000000000000000000000000007bffffffffffffffffffffffffffffffffffffffffffffffffffffffff1916827bffffffffffffffffffffffffffffffffffffffffffffffffffffffff19161480610caa57507f5b5e139f000000000000000000000000000000000000000000000000000000007bffffffffffffffffffffffffffffffffffffffffffffffffffffffff1916827bffffffffffffffffffffffffffffffffffffffffffffffffffffffff1916145b80610cba5750610cb9826116a7565b5b9050919050565b60008073ffffffffffffffffffffffffffffffffffffffff166002600084815260200190815260200160002060009054906101000a900473ffffffffffffffffffffffffffffffffffffffff1673ffffffffffffffffffffffffffffffffffffffff1614159050919050565b600033905090565b816004600083815260200190815260200160002060006101000a81548173ffffffffffffffffffffffffffffffffffffffff021916908373ffffffffffffffffffffffffffffffffffffffff160217905550808273ffffffffffffffffffffffffffffffffffffffff16610da883610830565b73ffffffffffffffffffffffffffffffffffffffff167f8c5be1e5ebec7d5bd14f71427d1e84f3dd0314c0f7b2291e5b200ac8c7c3b92560405160405180910390a45050565b600081600001549050919050565b600073ffffffffffffffffffffffffffffffffffffffff168273ffffffffffffffffffffffffffffffffffffffff161415610e6c576040517f08c379a0000000000000000000000000000000000000000000000000000000008152600401610e6390612527565b60405180910390fd5b610e7581610cc1565b15610eb5576040517f08c379a0000000000000000000000000000000000000000000000000000000008152600401610eac90612447565b60405180910390fd5b610ec160008383611711565b6001600360008473ffffffffffffffffffffffffffffffffffffffff1673ffffffffffffffffffffffffffffffffffffffff1681526020019081526020016000206000828254610f1191906126bb565b92505081905550816002600083815260200190815260200160002060006101000a81548173ffffffffffffffffffffffffffffffffffffffff021916908373ffffffffffffffffffffffffffffffffffffffff160217905550808273ffffffffffffffffffffffffffffffffffffffff16600073ffffffffffffffffffffffffffffffffffffffff167fddf252ad1be2c89b69c2b068fc378daa952ba7f163c4a11628f55a4df523b3ef60405160405180910390a45050565b6001816000016000828254019250508190555050565b6000610feb82610cc1565b61102a576040517f08c379a0000000000000000000000000000000000000000000000000000000008152600401611021906124a7565b60405180910390fd5b600061103583610830565b90508073ffffffffffffffffffffffffffffffffffffffff168473ffffffffffffffffffffffffffffffffffffffff1614806110a457508373ffffffffffffffffffffffffffffffffffffffff1661108c846104a0565b73ffffffffffffffffffffffffffffffffffffffff16145b806110b557506110b48185610b4b565b5b91505092915050565b8273ffffffffffffffffffffffffffffffffffffffff166110de82610830565b73ffffffffffffffffffffffffffffffffffffffff1614611134576040517f08c379a000000000000000000000000000000000000000000000000000000000815260040161112b90612567565b60405180910390fd5b600073ffffffffffffffffffffffffffffffffffffffff168273ffffffffffffffffffffffffffffffffffffffff1614156111a4576040517f08c379a000000000000000000000000000000000000000000000000000000000815260040161119b90612467565b60405180910390fd5b6111af838383611711565b6111ba600082610d35565b6001600360008573ffffffffffffffffffffffffffffffffffffffff1673ffffffffffffffffffffffffffffffffffffffff168152602001908152602001600020600082825461120a9190612742565b925050819055506001600360008473ffffffffffffffffffffffffffffffffffffffff1673ffffffffffffffffffffffffffffffffffffffff168152602001908152602001600020600082825461126191906126bb565b92505081905550816002600083815260200190815260200160002060006101000a81548173ffffffffffffffffffffffffffffffffffffffff021916908373ffffffffffffffffffffffffffffffffffffffff160217905550808273ffffffffffffffffffffffffffffffffffffffff168473ffffffffffffffffffffffffffffffffffffffff167fddf252ad1be2c89b69c2b068fc378daa952ba7f163c4a11628f55a4df523b3ef60405160405180910390a4505050565b8173ffffffffffffffffffffffffffffffffffffffff168373ffffffffffffffffffffffffffffffffffffffff161415611389576040517f08c379a000000000000000000000000000000000000000000000000000000000815260040161138090612487565b60405180910390fd5b80600560008573ffffffffffffffffffffffffffffffffffffffff1673ffffffffffffffffffffffffffffffffffffffff16815260200190815260200160002060008473ffffffffffffffffffffffffffffffffffffffff1673ffffffffffffffffffffffffffffffffffffffff16815260200190815260200160002060006101000a81548160ff0219169083151502179055508173ffffffffffffffffffffffffffffffffffffffff168373ffffffffffffffffffffffffffffffffffffffff167f17307eab39ab6107e8899845ad3d59bd9653f200f220920489ca2b5937696c318360405161147a91906123ca565b60405180910390a3505050565b6114928484846110be565b61149e84848484611825565b6114dd576040517f08c379a00000000000000000000000000000000000000000000000000000000081526004016114d490612427565b60405180910390fd5b50505050565b606060405180602001604052806000815250905090565b60606000821415611542576040518060400160405280600181526020017f300000000000000000000000000000000000000000000000000000000000000081525090506116a2565b600082905060005b6000821461157457808061155d9061288f565b915050600a8261156d9190612711565b915061154a565b60008167ffffffffffffffff8111156115b6577f4e487b7100000000000000000000000000000000000000000000000000000000600052604160045260246000fd5b6040519080825280601f01601f1916602001820160405280156115e85781602001600182028036833780820191505090505b5090505b6000851461169b576001826116019190612742565b9150600a8561161091906128d8565b603061161c91906126bb565b60f81b818381518110611658577f4e487b7100000000000000000000000000000000000000000000000000000000600052603260045260246000fd5b60200101907effffffffffffffffffffffffffffffffffffffffffffffffffffffffffffff1916908160001a905350600a856116949190612711565b94506115ec565b8093505050505b919050565b60007f01ffc9a7000000000000000000000000000000000000000000000000000000007bffffffffffffffffffffffffffffffffffffffffffffffffffffffff1916827bffffffffffffffffffffffffffffffffffffffffffffffffffffffff1916149050919050565b61171c8383836119bc565b600073ffffffffffffffffffffffffffffffffffffffff168373ffffffffffffffffffffffffffffffffffffffff16141561175f5761175a816119c1565b61179e565b8173ffffffffffffffffffffffffffffffffffffffff168373ffffffffffffffffffffffffffffffffffffffff161461179d5761179c8382611a0a565b5b5b600073ffffffffffffffffffffffffffffffffffffffff168273ffffffffffffffffffffffffffffffffffffffff1614156117e1576117dc81611b77565b611820565b8273ffffffffffffffffffffffffffffffffffffffff168273ffffffffffffffffffffffffffffffffffffffff161461181f5761181e8282611cba565b5b5b505050565b60006118468473ffffffffffffffffffffffffffffffffffffffff16611d39565b156119af578373ffffffffffffffffffffffffffffffffffffffff1663150b7a0261186f610d2d565b8786866040518563ffffffff1660e01b8152600401611891949392919061237e565b602060405180830381600087803b1580156118ab57600080fd5b505af19250505080156118dc57506040513d601f19601f820116820180604052508101906118d99190611fed565b60015b61195f573d806000811461190c576040519150601f19603f3d011682016040523d82523d6000602084013e611911565b606091505b50600081511415611957576040517f08c379a000000000000000000000000000000000000000000000000000000000815260040161194e90612427565b60405180910390fd5b805181602001fd5b63150b7a0260e01b7bffffffffffffffffffffffffffffffffffffffffffffffffffffffff1916817bffffffffffffffffffffffffffffffffffffffffffffffffffffffff1916149150506119b4565b600190505b949350505050565b505050565b6008805490506009600083815260200190815260200160002081905550600881908060018154018082558091505060019003906000526020600020016000909190919091505550565b60006001611a17846108e2565b611a219190612742565b9050600060076000848152602001908152602001600020549050818114611b06576000600660008673ffffffffffffffffffffffffffffffffffffffff1673ffffffffffffffffffffffffffffffffffffffff168152602001908152602001600020600084815260200190815260200160002054905080600660008773ffffffffffffffffffffffffffffffffffffffff1673ffffffffffffffffffffffffffffffffffffffff168152602001908152602001600020600084815260200190815260200160002081905550816007600083815260200190815260200160002081905550505b6007600084815260200190815260200160002060009055600660008573ffffffffffffffffffffffffffffffffffffffff1673ffffffffffffffffffffffffffffffffffffffff16815260200190815260200160002060008381526020019081526020016000206000905550505050565b60006001600880549050611b8b9190612742565b9050600060096000848152602001908152602001600020549050600060088381548110611be1577f4e487b7100000000000000000000000000000000000000000000000000000000600052603260045260246000fd5b906000526020600020015490508060088381548110611c29577f4e487b7100000000000000000000000000000000000000000000000000000000600052603260045260246000fd5b906000526020600020018190555081600960008381526020019081526020016000208190555060096000858152602001908152602001600020600090556008805480611c9e577f4e487b7100000000000000000000000000000000000000000000000000000000600052603160045260246000fd5b6001900381819060005260206000200160009055905550505050565b6000611cc5836108e2565b905081600660008573ffffffffffffffffffffffffffffffffffffffff1673ffffffffffffffffffffffffffffffffffffffff168152602001908152602001600020600083815260200190815260200160002081905550806007600084815260200190815260200160002081905550505050565b600080823b905060008111915050919050565b6000611d5f611d5a84612647565b612622565b905082815260208101848484011115611d7757600080fd5b611d828482856127ea565b509392505050565b600081359050611d9981612e54565b92915050565b600081359050611dae81612e6b565b92915050565b600081359050611dc381612e82565b92915050565b600081519050611dd881612e82565b92915050565b600082601f830112611def57600080fd5b8135611dff848260208601611d4c565b91505092915050565b600081359050611e1781612e99565b92915050565b600060208284031215611e2f57600080fd5b6000611e3d84828501611d8a565b91505092915050565b60008060408385031215611e5957600080fd5b6000611e6785828601611d8a565b9250506020611e7885828601611d8a565b9150509250929050565b600080600060608486031215611e9757600080fd5b6000611ea586828701611d8a565b9350506020611eb686828701611d8a565b9250506040611ec786828701611e08565b9150509250925092565b60008060008060808587031215611ee757600080fd5b6000611ef587828801611d8a565b9450506020611f0687828801611d8a565b9350506040611f1787828801611e08565b925050606085013567ffffffffffffffff811115611f3457600080fd5b611f4087828801611dde565b91505092959194509250565b60008060408385031215611f5f57600080fd5b6000611f6d85828601611d8a565b9250506020611f7e85828601611d9f565b9150509250929050565b60008060408385031215611f9b57600080fd5b6000611fa985828601611d8a565b9250506020611fba85828601611e08565b9150509250929050565b600060208284031215611fd657600080fd5b6000611fe484828501611db4565b91505092915050565b600060208284031215611fff57600080fd5b600061200d84828501611dc9565b91505092915050565b60006020828403121561202857600080fd5b600061203684828501611e08565b91505092915050565b61204881612776565b82525050565b61205781612788565b82525050565b600061206882612678565b612072818561268e565b93506120828185602086016127f9565b61208b816129c5565b840191505092915050565b60006120a182612683565b6120ab818561269f565b93506120bb8185602086016127f9565b6120c4816129c5565b840191505092915050565b60006120da82612683565b6120e481856126b0565b93506120f48185602086016127f9565b80840191505092915050565b600061210d602b8361269f565b9150612118826129d6565b604082019050919050565b600061213060328361269f565b915061213b82612a25565b604082019050919050565b6000612153601c8361269f565b915061215e82612a74565b602082019050919050565b600061217660248361269f565b915061218182612a9d565b604082019050919050565b600061219960198361269f565b91506121a482612aec565b602082019050919050565b60006121bc602c8361269f565b91506121c782612b15565b604082019050919050565b60006121df60388361269f565b91506121ea82612b64565b604082019050919050565b6000612202602a8361269f565b915061220d82612bb3565b604082019050919050565b600061222560298361269f565b915061223082612c02565b604082019050919050565b600061224860208361269f565b915061225382612c51565b602082019050919050565b600061226b602c8361269f565b915061227682612c7a565b604082019050919050565b600061228e60298361269f565b915061229982612cc9565b604082019050919050565b60006122b1602f8361269f565b91506122bc82612d18565b604082019050919050565b60006122d460218361269f565b91506122df82612d67565b604082019050919050565b60006122f760318361269f565b915061230282612db6565b604082019050919050565b600061231a602c8361269f565b915061232582612e05565b604082019050919050565b612339816127e0565b82525050565b600061234b82856120cf565b915061235782846120cf565b91508190509392505050565b6000602082019050612378600083018461203f565b92915050565b6000608082019050612393600083018761203f565b6123a0602083018661203f565b6123ad6040830185612330565b81810360608301526123bf818461205d565b905095945050505050565b60006020820190506123df600083018461204e565b92915050565b600060208201905081810360008301526123ff8184612096565b905092915050565b6000602082019050818103600083015261242081612100565b9050919050565b6000602082019050818103600083015261244081612123565b9050919050565b6000602082019050818103600083015261246081612146565b9050919050565b6000602082019050818103600083015261248081612169565b9050919050565b600060208201905081810360008301526124a08161218c565b9050919050565b600060208201905081810360008301526124c0816121af565b9050919050565b600060208201905081810360008301526124e0816121d2565b9050919050565b60006020820190508181036000830152612500816121f5565b9050919050565b6000602082019050818103600083015261252081612218565b9050919050565b600060208201905081810360008301526125408161223b565b9050919050565b600060208201905081810360008301526125608161225e565b9050919050565b6000602082019050818103600083015261258081612281565b9050919050565b600060208201905081810360008301526125a0816122a4565b9050919050565b600060208201905081810360008301526125c0816122c7565b9050919050565b600060208201905081810360008301526125e0816122ea565b9050919050565b600060208201905081810360008301526126008161230d565b9050919050565b600060208201905061261c6000830184612330565b92915050565b600061262c61263d565b9050612638828261285e565b919050565b6000604051905090565b600067ffffffffffffffff82111561266257612661612996565b5b61266b826129c5565b9050602081019050919050565b600081519050919050565b600081519050919050565b600082825260208201905092915050565b600082825260208201905092915050565b600081905092915050565b60006126c6826127e0565b91506126d1836127e0565b9250827fffffffffffffffffffffffffffffffffffffffffffffffffffffffffffffffff0382111561270657612705612909565b5b828201905092915050565b600061271c826127e0565b9150612727836127e0565b92508261273757612736612938565b5b828204905092915050565b600061274d826127e0565b9150612758836127e0565b92508282101561276b5761276a612909565b5b828203905092915050565b6000612781826127c0565b9050919050565b60008115159050919050565b60007fffffffff0000000000000000000000000000000000000000000000000000000082169050919050565b600073ffffffffffffffffffffffffffffffffffffffff82169050919050565b6000819050919050565b82818337600083830152505050565b60005b838110156128175780820151818401526020810190506127fc565b83811115612826576000848401525b50505050565b6000600282049050600182168061284457607f821691505b6020821081141561285857612857612967565b5b50919050565b612867826129c5565b810181811067ffffffffffffffff8211171561288657612885612996565b5b80604052505050565b600061289a826127e0565b91507fffffffffffffffffffffffffffffffffffffffffffffffffffffffffffffffff8214156128cd576128cc612909565b5b600182019050919050565b60006128e3826127e0565b91506128ee836127e0565b9250826128fe576128fd612938565b5b828206905092915050565b7f4e487b7100000000000000000000000000000000000000000000000000000000600052601160045260246000fd5b7f4e487b7100000000000000000000000000000000000000000000000000000000600052601260045260246000fd5b7f4e487b7100000000000000000000000000000000000000000000000000000000600052602260045260246000fd5b7f4e487b7100000000000000000000000000000000000000000000000000000000600052604160045260246000fd5b6000601f19601f8301169050919050565b7f455243373231456e756d657261626c653a206f776e657220696e646578206f7560008201527f74206f6620626f756e6473000000000000000000000000000000000000000000602082015250565b7f4552433732313a207472616e7366657220746f206e6f6e20455243373231526560008201527f63656976657220696d706c656d656e7465720000000000000000000000000000602082015250565b7f4552433732313a20746f6b656e20616c7265616479206d696e74656400000000600082015250565b7f4552433732313a207472616e7366657220746f20746865207a65726f2061646460008201527f7265737300000000000000000000000000000000000000000000000000000000602082015250565b7f4552433732313a20617070726f766520746f2063616c6c657200000000000000600082015250565b7f4552433732313a206f70657261746f7220717565727920666f72206e6f6e657860008201527f697374656e7420746f6b656e0000000000000000000000000000000000000000602082015250565b7f4552433732313a20617070726f76652063616c6c6572206973206e6f74206f7760008201527f6e6572206e6f7220617070726f76656420666f7220616c6c0000000000000000602082015250565b7f4552433732313a2062616c616e636520717565727920666f7220746865207a6560008201527f726f206164647265737300000000000000000000000000000000000000000000602082015250565b7f4552433732313a206f776e657220717565727920666f72206e6f6e657869737460008201527f656e7420746f6b656e0000000000000000000000000000000000000000000000602082015250565b7f4552433732313a206d696e7420746f20746865207a65726f2061646472657373600082015250565b7f4552433732313a20617070726f76656420717565727920666f72206e6f6e657860008201527f697374656e7420746f6b656e0000000000000000000000000000000000000000602082015250565b7f4552433732313a207472616e73666572206f6620746f6b656e2074686174206960008201527f73206e6f74206f776e0000000000000000000000000000000000000000000000602082015250565b7f4552433732314d657461646174613a2055524920717565727920666f72206e6f60008201527f6e6578697374656e7420746f6b656e0000000000000000000000000000000000602082015250565b7f4552433732313a20617070726f76616c20746f2063757272656e74206f776e6560008201527f7200000000000000000000000000000000000000000000000000000000000000602082015250565b7f4552433732313a207472616e736665722063616c6c6572206973206e6f74206f60008201527f776e6572206e6f7220617070726f766564000000000000000000000000000000602082015250565b7f455243373231456e756d657261626c653a20676c6f62616c20696e646578206f60008201527f7574206f6620626f756e64730000000000000000000000000000000000000000602082015250565b612e5d81612776565b8114612e6857600080fd5b50565b612e7481612788565b8114612e7f57600080fd5b50565b612e8b81612794565b8114612e9657600080fd5b50565b612ea2816127e0565b8114612ead57600080fd5b5056fea264697066735822122081c7891349e57fb895ec1e9aad7783bea51ace25e9d05f1a589642e8a5e4049264736f6c63430008040033",
  "linkReferences": {},
  "deployedLinkReferences": {}
}