{
  "address": "0x26B1029bD0bEEb31F2F5da74d2dd19fAC92b85Cc",
  "abi": [
    {
      "anonymous": false,
      "inputs": [
        {
          "indexed": true,
          "internalType": "address",
          "name": "creator",
          "type": "address"
        },
        {
          "indexed": true,
          "internalType": "address",
          "name": "account",
          "type": "address"
        },
        {
          "indexed": false,
          "internalType": "uint256",
          "name": "index",
          "type": "uint256"
        }
      ],
      "name": "AccountCreated",
      "type": "event"
    },
    {
      "inputs": [
        {
          "internalType": "address",
          "name": "",
          "type": "address"
        }
      ],
      "name": "accounts",
      "outputs": [
        {
          "internalType": "address",
          "name": "",
          "type": "address"
        }
      ],
      "stateMutability": "view",
      "type": "function"
    },
    {
      "inputs": [],
      "name": "createAccount",
      "outputs": [
        {
          "internalType": "address",
          "name": "account",
          "type": "address"
        }
      ],
      "stateMutability": "payable",
      "type": "function"
    },
    {
      "inputs": [
        {
          "internalType": "address[]",
          "name": "whitelist",
          "type": "address[]"
        }
      ],
      "name": "createAccountWithWhitelist",
      "outputs": [
        {
          "internalType": "address",
          "name": "account",
          "type": "address"
        }
      ],
      "stateMutability": "payable",
      "type": "function"
    },
    {
      "inputs": [
        {
          "internalType": "uint256",
          "name": "",
          "type": "uint256"
        }
      ],
      "name": "creators",
      "outputs": [
        {
          "internalType": "address",
          "name": "",
          "type": "address"
        }
      ],
      "stateMutability": "view",
      "type": "function"
    },
    {
      "inputs": [
        {
          "internalType": "address",
          "name": "creator",
          "type": "address"
        }
      ],
      "name": "hasAccount",
      "outputs": [
        {
          "internalType": "bool",
          "name": "",
          "type": "bool"
        }
      ],
      "stateMutability": "view",
      "type": "function"
    },
    {
      "inputs": [],
      "name": "total",
      "outputs": [
        {
          "internalType": "uint256",
          "name": "",
          "type": "uint256"
        }
      ],
      "stateMutability": "view",
      "type": "function"
    }
  ],
  "transactionHash": "0xd581a0c33a02ebdf8892af16be3ad1d68a5bd40687dd1fc0bf622a771bea73c0",
  "args": [],
  "numDeployments": 1,
  "solcInputHash": "35bd8e0ff71a43f5bb2b479f8778ff22",
  "bytecode": "0x608060405234801561001057600080fd5b506130f2806100206000396000f3fe6080604052600436106100555760003560e01c80632ddbd13a1461005a5780635e5c06e2146100855780635f3e3a1c146100c25780639dca362f146100f2578063c8e40fbf14610110578063cd53d08e1461014d575b600080fd5b34801561006657600080fd5b5061006f61018a565b60405161007c919061091c565b60405180910390f35b34801561009157600080fd5b506100ac60048036038101906100a791906106eb565b610197565b6040516100b99190610896565b60405180910390f35b6100dc60048036038101906100d79190610714565b6101ca565b6040516100e99190610896565b60405180910390f35b6100fa6104c9565b6040516101079190610896565b60405180910390f35b34801561011c57600080fd5b50610137600480360381019061013291906106eb565b610548565b60405161014491906108e1565b60405180910390f35b34801561015957600080fd5b50610174600480360381019061016f9190610755565b6105df565b6040516101819190610896565b60405180910390f35b6000600180549050905090565b60006020528060005260406000206000915054906101000a900473ffffffffffffffffffffffffffffffffffffffff1681565b600080339050600073ffffffffffffffffffffffffffffffffffffffff166000808373ffffffffffffffffffffffffffffffffffffffff1673ffffffffffffffffffffffffffffffffffffffff16815260200190815260200160002060009054906101000a900473ffffffffffffffffffffffffffffffffffffffff1673ffffffffffffffffffffffffffffffffffffffff161461029d576040517f08c379a0000000000000000000000000000000000000000000000000000000008152600401610294906108fc565b60405180910390fd5b6000604051806020016102af9061061e565b6020820181038252601f19601f820116604052509050600030836040516020016102da92919061086a565b604051602081830303815290604052805190602001209050808251602084016000f593508373ffffffffffffffffffffffffffffffffffffffff1663946d92043485886040518463ffffffff1660e01b815260040161033a9291906108b1565b6000604051808303818588803b15801561035357600080fd5b505af1158015610367573d6000803e3d6000fd5b5050505050836000808573ffffffffffffffffffffffffffffffffffffffff1673ffffffffffffffffffffffffffffffffffffffff16815260200190815260200160002060006101000a81548173ffffffffffffffffffffffffffffffffffffffff021916908373ffffffffffffffffffffffffffffffffffffffff1602179055506001839080600181540180825580915050600190039060005260206000200160009091909190916101000a81548173ffffffffffffffffffffffffffffffffffffffff021916908373ffffffffffffffffffffffffffffffffffffffff1602179055508373ffffffffffffffffffffffffffffffffffffffff168373ffffffffffffffffffffffffffffffffffffffff167f33310a89c32d8cc00057ad6ef6274d2f8fe22389a992cf89983e09fc84f6cfff600180805490506104ac91906109d2565b6040516104b9919061091c565b60405180910390a3505050919050565b6000610543600067ffffffffffffffff81111561050f577f4e487b7100000000000000000000000000000000000000000000000000000000600052604160045260246000fd5b60405190808252806020026020018201604052801561053d5781602001602082028036833780820191505090505b506101ca565b905090565b60008073ffffffffffffffffffffffffffffffffffffffff166000808473ffffffffffffffffffffffffffffffffffffffff1673ffffffffffffffffffffffffffffffffffffffff16815260200190815260200160002060009054906101000a900473ffffffffffffffffffffffffffffffffffffffff1673ffffffffffffffffffffffffffffffffffffffff1614159050919050565b600181815481106105ef57600080fd5b906000526020600020016000915054906101000a900473ffffffffffffffffffffffffffffffffffffffff1681565b61254680610b7783390190565b600061063e6106398461095c565b610937565b9050808382526020820190508285602086028201111561065d57600080fd5b60005b8581101561068d57816106738882610697565b845260208401935060208301925050600181019050610660565b5050509392505050565b6000813590506106a681610b48565b92915050565b600082601f8301126106bd57600080fd5b81356106cd84826020860161062b565b91505092915050565b6000813590506106e581610b5f565b92915050565b6000602082840312156106fd57600080fd5b600061070b84828501610697565b91505092915050565b60006020828403121561072657600080fd5b600082013567ffffffffffffffff81111561074057600080fd5b61074c848285016106ac565b91505092915050565b60006020828403121561076757600080fd5b6000610775848285016106d6565b91505092915050565b600061078a8383610796565b60208301905092915050565b61079f81610a06565b82525050565b6107ae81610a06565b82525050565b6107c56107c082610a06565b610a7f565b82525050565b60006107d682610998565b6107e081856109b0565b93506107eb83610988565b8060005b8381101561081c578151610803888261077e565b975061080e836109a3565b9250506001810190506107ef565b5085935050505092915050565b61083281610a18565b82525050565b6000610845601e836109c1565b915061085082610b1f565b602082019050919050565b61086481610a44565b82525050565b600061087682856107b4565b60148201915061088682846107b4565b6014820191508190509392505050565b60006020820190506108ab60008301846107a5565b92915050565b60006040820190506108c660008301856107a5565b81810360208301526108d881846107cb565b90509392505050565b60006020820190506108f66000830184610829565b92915050565b6000602082019050818103600083015261091581610838565b9050919050565b6000602082019050610931600083018461085b565b92915050565b6000610941610952565b905061094d8282610a4e565b919050565b6000604051905090565b600067ffffffffffffffff82111561097757610976610ad2565b5b602082029050602081019050919050565b6000819050602082019050919050565b600081519050919050565b6000602082019050919050565b600082825260208201905092915050565b600082825260208201905092915050565b60006109dd82610a44565b91506109e883610a44565b9250828210156109fb576109fa610aa3565b5b828203905092915050565b6000610a1182610a24565b9050919050565b60008115159050919050565b600073ffffffffffffffffffffffffffffffffffffffff82169050919050565b6000819050919050565b610a5782610b01565b810181811067ffffffffffffffff82111715610a7657610a75610ad2565b5b80604052505050565b6000610a8a82610a91565b9050919050565b6000610a9c82610b12565b9050919050565b7f4e487b7100000000000000000000000000000000000000000000000000000000600052601160045260246000fd5b7f4e487b7100000000000000000000000000000000000000000000000000000000600052604160045260246000fd5b6000601f19601f8301169050919050565b60008160601b9050919050565b7f4163636f756e74466163746f72793a206163636f756e74206578697374730000600082015250565b610b5181610a06565b8114610b5c57600080fd5b50565b610b6881610a44565b8114610b7357600080fd5b5056fe608060405234801561001057600080fd5b50336000806101000a81548173ffffffffffffffffffffffffffffffffffffffff021916908373ffffffffffffffffffffffffffffffffffffffff1602179055506124e6806100606000396000f3fe6080604052600436106100ec5760003560e01c80638da5cb5b1161008a578063c45a015511610059578063c45a01551461034f578063c7cd469a1461037a578063d01f63f5146103a3578063f23a6e61146103ce57610141565b80638da5cb5b1461029b578063946d9204146102c6578063a0b5ffb0146102e2578063bc197c811461031257610141565b80632a011594116100c65780632a011594146101dc5780633af32abf1461020c578063548db174146102495780637f6497831461027257610141565b806301ffc9a714610146578063150b7a021461018357806324a084df146101c057610141565b36610141573373ffffffffffffffffffffffffffffffffffffffff167f88a5966d370b9919b20f3e2c13ff65706f196a4e32cc2c12bf57088f88525874346040516101379190611f93565b60405180910390a2005b600080fd5b34801561015257600080fd5b5061016d60048036038101906101689190611b2b565b61040b565b60405161017a9190611e39565b60405180910390f35b34801561018f57600080fd5b506101aa60048036038101906101a59190611861565b610485565b6040516101b79190611e54565b60405180910390f35b6101da60048036038101906101d59190611766565b610499565b005b6101f660048036038101906101f19190611a17565b6104ef565b6040516102039190611e6f565b60405180910390f35b34801561021857600080fd5b50610233600480360381019061022e919061173d565b61054d565b6040516102409190611e39565b60405180910390f35b34801561025557600080fd5b50610270600480360381019061026b9190611a7e565b6105c2565b005b34801561027e57600080fd5b5061029960048036038101906102949190611a7e565b6106ce565b005b3480156102a757600080fd5b506102b06107da565b6040516102bd9190611dfc565b60405180910390f35b6102e060048036038101906102db919061196b565b610800565b005b6102fc60048036038101906102f791906119c3565b6109e7565b6040516103099190611e6f565b60405180910390f35b34801561031e57600080fd5b50610339600480360381019061033491906117a2565b610a43565b6040516103469190611e54565b60405180910390f35b34801561035b57600080fd5b50610364610a58565b6040516103719190611dfc565b60405180910390f35b34801561038657600080fd5b506103a1600480360381019061039c9190611abf565b610a7c565b005b3480156103af57600080fd5b506103b8610b1a565b6040516103c59190611e17565b60405180910390f35b3480156103da57600080fd5b506103f560048036038101906103f091906118dc565b610c4b565b6040516104029190611e54565b60405180910390f35b60007f4e2312e0000000000000000000000000000000000000000000000000000000007bffffffffffffffffffffffffffffffffffffffffffffffffffffffff1916827bffffffffffffffffffffffffffffffffffffffffffffffffffffffff1916148061047e575061047d82610c60565b5b9050919050565b600063150b7a0260e01b9050949350505050565b6104a23361054d565b6104e1576040517f08c379a00000000000000000000000000000000000000000000000000000000081526004016104d890611eb3565b60405180910390fd5b6104eb8282610cca565b5050565b60606104fa3361054d565b610539576040517f08c379a000000000000000000000000000000000000000000000000000000000815260040161053090611eb3565b60405180910390fd5b610544848484610dbe565b90509392505050565b6000600160009054906101000a900473ffffffffffffffffffffffffffffffffffffffff1673ffffffffffffffffffffffffffffffffffffffff168273ffffffffffffffffffffffffffffffffffffffff1614806105bb57506105ba826002610ded90919063ffffffff16565b5b9050919050565b600160009054906101000a900473ffffffffffffffffffffffffffffffffffffffff1673ffffffffffffffffffffffffffffffffffffffff163373ffffffffffffffffffffffffffffffffffffffff1614610652576040517f08c379a000000000000000000000000000000000000000000000000000000000815260040161064990611f53565b60405180910390fd5b6106cb600067ffffffffffffffff811115610696577f4e487b7100000000000000000000000000000000000000000000000000000000600052604160045260246000fd5b6040519080825280602002602001820160405280156106c45781602001602082028036833780820191505090505b5082610e1d565b50565b600160009054906101000a900473ffffffffffffffffffffffffffffffffffffffff1673ffffffffffffffffffffffffffffffffffffffff163373ffffffffffffffffffffffffffffffffffffffff161461075e576040517f08c379a000000000000000000000000000000000000000000000000000000000815260040161075590611f53565b60405180910390fd5b6107d781600067ffffffffffffffff8111156107a3577f4e487b7100000000000000000000000000000000000000000000000000000000600052604160045260246000fd5b6040519080825280602002602001820160405280156107d15781602001602082028036833780820191505090505b50610e1d565b50565b600160009054906101000a900473ffffffffffffffffffffffffffffffffffffffff1681565b60008054906101000a900473ffffffffffffffffffffffffffffffffffffffff1673ffffffffffffffffffffffffffffffffffffffff163373ffffffffffffffffffffffffffffffffffffffff161461088e576040517f08c379a000000000000000000000000000000000000000000000000000000000815260040161088590611ed3565b60405180910390fd5b82600160006101000a81548173ffffffffffffffffffffffffffffffffffffffff021916908373ffffffffffffffffffffffffffffffffffffffff160217905550610989828280806020026020016040519081016040528093929190818152602001838360200280828437600081840152601f19601f82011690508083019250505050505050600067ffffffffffffffff811115610955577f4e487b7100000000000000000000000000000000000000000000000000000000600052604160045260246000fd5b6040519080825280602002602001820160405280156109835781602001602082028036833780820191505090505b50610e1d565b60004711156109e257600073ffffffffffffffffffffffffffffffffffffffff167f88a5966d370b9919b20f3e2c13ff65706f196a4e32cc2c12bf57088f88525874476040516109d99190611f93565b60405180910390a25b505050565b60606109f23361054d565b610a31576040517f08c379a0000000000000000000000000000000000000000000000000000000008152600401610a2890611eb3565b60405180910390fd5b610a3b8383611011565b905092915050565b600063bc197c8160e01b905095945050505050565b60008054906101000a900473ffffffffffffffffffffffffffffffffffffffff1681565b600160009054906101000a900473ffffffffffffffffffffffffffffffffffffffff1673ffffffffffffffffffffffffffffffffffffffff163373ffffffffffffffffffffffffffffffffffffffff1614610b0c576040517f08c379a0000000000000000000000000000000000000000000000000000000008152600401610b0390611f53565b60405180910390fd5b610b168282610e1d565b5050565b60606000610b28600261105b565b905060008167ffffffffffffffff811115610b6c577f4e487b7100000000000000000000000000000000000000000000000000000000600052604160045260246000fd5b604051908082528060200260200182016040528015610b9a5781602001602082028036833780820191505090505b50905060005b82811015610c4257610bbc81600261107090919063ffffffff16565b828281518110610bf5577f4e487b7100000000000000000000000000000000000000000000000000000000600052603260045260246000fd5b602002602001019073ffffffffffffffffffffffffffffffffffffffff16908173ffffffffffffffffffffffffffffffffffffffff16815250508080610c3a90612205565b915050610ba0565b50809250505090565b600063f23a6e6160e01b905095945050505050565b60007f01ffc9a7000000000000000000000000000000000000000000000000000000007bffffffffffffffffffffffffffffffffffffffffffffffffffffffff1916827bffffffffffffffffffffffffffffffffffffffffffffffffffffffff1916149050919050565b80471015610d0d576040517f08c379a0000000000000000000000000000000000000000000000000000000008152600401610d0490611f13565b60405180910390fd5b60008273ffffffffffffffffffffffffffffffffffffffff1682604051610d3390611de7565b60006040518083038185875af1925050503d8060008114610d70576040519150601f19603f3d011682016040523d82523d6000602084013e610d75565b606091505b5050905080610db9576040517f08c379a0000000000000000000000000000000000000000000000000000000008152600401610db090611ef3565b60405180910390fd5b505050565b6060610de48484846040518060600160405280602981526020016124886029913961108a565b90509392505050565b6000610e15836000018373ffffffffffffffffffffffffffffffffffffffff1660001b61119e565b905092915050565b60005b8251811015610f1457610e7d838281518110610e65577f4e487b7100000000000000000000000000000000000000000000000000000000600052603260045260246000fd5b602002602001015160026111c190919063ffffffff16565b50828181518110610eb7577f4e487b7100000000000000000000000000000000000000000000000000000000600052603260045260246000fd5b602002602001015173ffffffffffffffffffffffffffffffffffffffff167f4790a4adb426ca2345bb5108f6e454eae852a7bf687544cd66a7270dff3a41d660405160405180910390a28080610f0c90612205565b915050610e20565b5060005b815181101561100c57610f75828281518110610f5d577f4e487b7100000000000000000000000000000000000000000000000000000000600052603260045260246000fd5b602002602001015160026111f190919063ffffffff16565b50818181518110610faf577f4e487b7100000000000000000000000000000000000000000000000000000000600052603260045260246000fd5b602002602001015173ffffffffffffffffffffffffffffffffffffffff167fde8cf212af7ce38b2840785a2768d97ff2dbf3c21b516961cec0061e134c2a1e60405160405180910390a2808061100490612205565b915050610f18565b505050565b606061105383836040518060400160405280601e81526020017f416464726573733a206c6f772d6c6576656c2063616c6c206661696c65640000815250611221565b905092915050565b600061106982600001611239565b9050919050565b600061107f836000018361124a565b60001c905092915050565b6060824710156110cf576040517f08c379a00000000000000000000000000000000000000000000000000000000081526004016110c690611f33565b60405180910390fd5b6110d88561129b565b611117576040517f08c379a000000000000000000000000000000000000000000000000000000000815260040161110e90611f73565b60405180910390fd5b6000808673ffffffffffffffffffffffffffffffffffffffff1685876040516111409190611dd0565b60006040518083038185875af1925050503d806000811461117d576040519150601f19603f3d011682016040523d82523d6000602084013e611182565b606091505b50915091506111928282866112ae565b92505050949350505050565b600080836001016000848152602001908152602001600020541415905092915050565b60006111e9836000018373ffffffffffffffffffffffffffffffffffffffff1660001b611315565b905092915050565b6000611219836000018373ffffffffffffffffffffffffffffffffffffffff1660001b611385565b905092915050565b6060611230848460008561108a565b90509392505050565b600081600001805490509050919050565b6000826000018281548110611288577f4e487b7100000000000000000000000000000000000000000000000000000000600052603260045260246000fd5b9060005260206000200154905092915050565b600080823b905060008111915050919050565b606083156112be5782905061130e565b6000835111156112d15782518084602001fd5b816040517f08c379a00000000000000000000000000000000000000000000000000000000081526004016113059190611e91565b60405180910390fd5b9392505050565b6000611321838361119e565b61137a57826000018290806001815401808255809150506001900390600052602060002001600090919091909150558260000180549050836001016000848152602001908152602001600020819055506001905061137f565b600090505b92915050565b600080836001016000848152602001908152602001600020549050600081146114ff5760006001826113b791906120d8565b90506000600186600001805490506113cf91906120d8565b905081811461148a576000866000018281548110611416577f4e487b7100000000000000000000000000000000000000000000000000000000600052603260045260246000fd5b9060005260206000200154905080876000018481548110611460577f4e487b7100000000000000000000000000000000000000000000000000000000600052603260045260246000fd5b90600052602060002001819055508387600101600083815260200190815260200160002081905550505b856000018054806114c4577f4e487b7100000000000000000000000000000000000000000000000000000000600052603160045260246000fd5b600190038181906000526020600020016000905590558560010160008681526020019081526020016000206000905560019350505050611505565b60009150505b92915050565b600061151e61151984611fd3565b611fae565b9050808382526020820190508285602086028201111561153d57600080fd5b60005b8581101561156d57816115538882611621565b845260208401935060208301925050600181019050611540565b5050509392505050565b600061158a61158584611fff565b611fae565b905080838252602082019050828560208602820111156115a957600080fd5b60005b858110156115d957816115bf8882611728565b8452602084019350602083019250506001810190506115ac565b5050509392505050565b60006115f66115f18461202b565b611fae565b90508281526020810184848401111561160e57600080fd5b611619848285612192565b509392505050565b6000813590506116308161242b565b92915050565b60008135905061164581612442565b92915050565b60008083601f84011261165d57600080fd5b8235905067ffffffffffffffff81111561167657600080fd5b60208301915083602082028301111561168e57600080fd5b9250929050565b600082601f8301126116a657600080fd5b81356116b684826020860161150b565b91505092915050565b600082601f8301126116d057600080fd5b81356116e0848260208601611577565b91505092915050565b6000813590506116f881612459565b92915050565b600082601f83011261170f57600080fd5b813561171f8482602086016115e3565b91505092915050565b60008135905061173781612470565b92915050565b60006020828403121561174f57600080fd5b600061175d84828501611621565b91505092915050565b6000806040838503121561177957600080fd5b600061178785828601611636565b925050602061179885828601611728565b9150509250929050565b600080600080600060a086880312156117ba57600080fd5b60006117c888828901611621565b95505060206117d988828901611621565b945050604086013567ffffffffffffffff8111156117f657600080fd5b611802888289016116bf565b935050606086013567ffffffffffffffff81111561181f57600080fd5b61182b888289016116bf565b925050608086013567ffffffffffffffff81111561184857600080fd5b611854888289016116fe565b9150509295509295909350565b6000806000806080858703121561187757600080fd5b600061188587828801611621565b945050602061189687828801611621565b93505060406118a787828801611728565b925050606085013567ffffffffffffffff8111156118c457600080fd5b6118d0878288016116fe565b91505092959194509250565b600080600080600060a086880312156118f457600080fd5b600061190288828901611621565b955050602061191388828901611621565b945050604061192488828901611728565b935050606061193588828901611728565b925050608086013567ffffffffffffffff81111561195257600080fd5b61195e888289016116fe565b9150509295509295909350565b60008060006040848603121561198057600080fd5b600061198e86828701611621565b935050602084013567ffffffffffffffff8111156119ab57600080fd5b6119b78682870161164b565b92509250509250925092565b600080604083850312156119d657600080fd5b60006119e485828601611621565b925050602083013567ffffffffffffffff811115611a0157600080fd5b611a0d858286016116fe565b9150509250929050565b600080600060608486031215611a2c57600080fd5b6000611a3a86828701611621565b935050602084013567ffffffffffffffff811115611a5757600080fd5b611a63868287016116fe565b9250506040611a7486828701611728565b9150509250925092565b600060208284031215611a9057600080fd5b600082013567ffffffffffffffff811115611aaa57600080fd5b611ab684828501611695565b91505092915050565b60008060408385031215611ad257600080fd5b600083013567ffffffffffffffff811115611aec57600080fd5b611af885828601611695565b925050602083013567ffffffffffffffff811115611b1557600080fd5b611b2185828601611695565b9150509250929050565b600060208284031215611b3d57600080fd5b6000611b4b848285016116e9565b91505092915050565b6000611b608383611b6c565b60208301905092915050565b611b758161210c565b82525050565b611b848161210c565b82525050565b6000611b958261206c565b611b9f818561209a565b9350611baa8361205c565b8060005b83811015611bdb578151611bc28882611b54565b9750611bcd8361208d565b925050600181019050611bae565b5085935050505092915050565b611bf181612130565b82525050565b611c008161213c565b82525050565b6000611c1182612077565b611c1b81856120ab565b9350611c2b8185602086016121a1565b611c34816122ac565b840191505092915050565b6000611c4a82612077565b611c5481856120bc565b9350611c648185602086016121a1565b80840191505092915050565b6000611c7b82612082565b611c8581856120c7565b9350611c958185602086016121a1565b611c9e816122ac565b840191505092915050565b6000611cb66018836120c7565b9150611cc1826122bd565b602082019050919050565b6000611cd96016836120c7565b9150611ce4826122e6565b602082019050919050565b6000611cfc603a836120c7565b9150611d078261230f565b604082019050919050565b6000611d1f601d836120c7565b9150611d2a8261235e565b602082019050919050565b6000611d426026836120c7565b9150611d4d82612387565b604082019050919050565b6000611d656012836120c7565b9150611d70826123d6565b602082019050919050565b6000611d886000836120bc565b9150611d93826123ff565b600082019050919050565b6000611dab601d836120c7565b9150611db682612402565b602082019050919050565b611dca81612188565b82525050565b6000611ddc8284611c3f565b915081905092915050565b6000611df282611d7b565b9150819050919050565b6000602082019050611e116000830184611b7b565b92915050565b60006020820190508181036000830152611e318184611b8a565b905092915050565b6000602082019050611e4e6000830184611be8565b92915050565b6000602082019050611e696000830184611bf7565b92915050565b60006020820190508181036000830152611e898184611c06565b905092915050565b60006020820190508181036000830152611eab8184611c70565b905092915050565b60006020820190508181036000830152611ecc81611ca9565b9050919050565b60006020820190508181036000830152611eec81611ccc565b9050919050565b60006020820190508181036000830152611f0c81611cef565b9050919050565b60006020820190508181036000830152611f2c81611d12565b9050919050565b60006020820190508181036000830152611f4c81611d35565b9050919050565b60006020820190508181036000830152611f6c81611d58565b9050919050565b60006020820190508181036000830152611f8c81611d9e565b9050919050565b6000602082019050611fa86000830184611dc1565b92915050565b6000611fb8611fc9565b9050611fc482826121d4565b919050565b6000604051905090565b600067ffffffffffffffff821115611fee57611fed61227d565b5b602082029050602081019050919050565b600067ffffffffffffffff82111561201a5761201961227d565b5b602082029050602081019050919050565b600067ffffffffffffffff8211156120465761204561227d565b5b61204f826122ac565b9050602081019050919050565b6000819050602082019050919050565b600081519050919050565b600081519050919050565b600081519050919050565b6000602082019050919050565b600082825260208201905092915050565b600082825260208201905092915050565b600081905092915050565b600082825260208201905092915050565b60006120e382612188565b91506120ee83612188565b9250828210156121015761210061224e565b5b828203905092915050565b600061211782612168565b9050919050565b600061212982612168565b9050919050565b60008115159050919050565b60007fffffffff0000000000000000000000000000000000000000000000000000000082169050919050565b600073ffffffffffffffffffffffffffffffffffffffff82169050919050565b6000819050919050565b82818337600083830152505050565b60005b838110156121bf5780820151818401526020810190506121a4565b838111156121ce576000848401525b50505050565b6121dd826122ac565b810181811067ffffffffffffffff821117156121fc576121fb61227d565b5b80604052505050565b600061221082612188565b91507fffffffffffffffffffffffffffffffffffffffffffffffffffffffffffffffff8214156122435761224261224e565b5b600182019050919050565b7f4e487b7100000000000000000000000000000000000000000000000000000000600052601160045260246000fd5b7f4e487b7100000000000000000000000000000000000000000000000000000000600052604160045260246000fd5b6000601f19601f8301169050919050565b7f4163636f756e743a206e6f742077686974656c69737465640000000000000000600082015250565b7f4163636f756e743a206e6f207065726d697373696f6e00000000000000000000600082015250565b7f416464726573733a20756e61626c6520746f2073656e642076616c75652c207260008201527f6563697069656e74206d61792068617665207265766572746564000000000000602082015250565b7f416464726573733a20696e73756666696369656e742062616c616e6365000000600082015250565b7f416464726573733a20696e73756666696369656e742062616c616e636520666f60008201527f722063616c6c0000000000000000000000000000000000000000000000000000602082015250565b7f4163636f756e743a206e6f74206f776e65720000000000000000000000000000600082015250565b50565b7f416464726573733a2063616c6c20746f206e6f6e2d636f6e7472616374000000600082015250565b6124348161210c565b811461243f57600080fd5b50565b61244b8161211e565b811461245657600080fd5b50565b6124628161213c565b811461246d57600080fd5b50565b61247981612188565b811461248457600080fd5b5056fe416464726573733a206c6f772d6c6576656c2063616c6c20776974682076616c7565206661696c6564a2646970667358221220b31e5c841cc28b21ec89f68e67af71489e2f97a197d517aa7b8ecdd0c4ac376b64736f6c63430008040033a264697066735822122036ad3750de482bd2a4b16a7ea39224b3fecbfc70f374a7a5a0bb03e919992bfa64736f6c63430008040033",
  "devdoc": {
    "kind": "dev",
    "methods": {},
    "version": 1
  },
  "userdoc": {
    "kind": "user",
    "methods": {},
    "version": 1
  },
  "storageLayout": {
    "storage": [
      {
        "astId": 3772,
        "contract": "contracts/AccountFactory.sol:AccountFactory",
        "label": "accounts",
        "offset": 0,
        "slot": "0",
        "type": "t_mapping(t_address,t_address)"
      },
      {
        "astId": 3776,
        "contract": "contracts/AccountFactory.sol:AccountFactory",
        "label": "creators",
        "offset": 0,
        "slot": "1",
        "type": "t_array(t_address)dyn_storage"
      }
    ],
    "types": {
      "t_address": {
        "encoding": "inplace",
        "label": "address",
        "numberOfBytes": "20"
      },
      "t_array(t_address)dyn_storage": {
        "base": "t_address",
        "encoding": "dynamic_array",
        "label": "address[]",
        "numberOfBytes": "32"
      },
      "t_mapping(t_address,t_address)": {
        "encoding": "mapping",
        "key": "t_address",
        "label": "mapping(address => address)",
        "numberOfBytes": "32",
        "value": "t_address"
      }
    }
  }
}