{
  "address": "0xEf2A2AA8F36e482d01c15f4D6C75e69Ab2920C44",
  "abi": [
    {
      "inputs": [
        {
          "internalType": "address",
          "name": "_accountFactory",
          "type": "address"
        },
        {
          "internalType": "address",
          "name": "_JEWEL",
          "type": "address"
        }
      ],
      "stateMutability": "nonpayable",
      "type": "constructor"
    },
    {
      "anonymous": false,
      "inputs": [
        {
          "indexed": false,
          "internalType": "address",
          "name": "newAdmin",
          "type": "address"
        },
        {
          "indexed": false,
          "internalType": "address",
          "name": "oldAdmin",
          "type": "address"
        }
      ],
      "name": "NewAdmin",
      "type": "event"
    },
    {
      "anonymous": false,
      "inputs": [
        {
          "indexed": false,
          "internalType": "address",
          "name": "newPendingAdmin",
          "type": "address"
        },
        {
          "indexed": false,
          "internalType": "address",
          "name": "oldPendingAdmin",
          "type": "address"
        }
      ],
      "name": "NewPendingAdmin",
      "type": "event"
    },
    {
      "anonymous": false,
      "inputs": [
        {
          "indexed": true,
          "internalType": "uint256",
          "name": "offerId",
          "type": "uint256"
        },
        {
          "indexed": true,
          "internalType": "address",
          "name": "creator",
          "type": "address"
        },
        {
          "indexed": true,
          "internalType": "address",
          "name": "item",
          "type": "address"
        }
      ],
      "name": "OfferCancelled",
      "type": "event"
    },
    {
      "anonymous": false,
      "inputs": [
        {
          "indexed": true,
          "internalType": "uint256",
          "name": "offerId",
          "type": "uint256"
        },
        {
          "indexed": true,
          "internalType": "address",
          "name": "creator",
          "type": "address"
        },
        {
          "indexed": true,
          "internalType": "address",
          "name": "item",
          "type": "address"
        },
        {
          "indexed": false,
          "internalType": "address",
          "name": "bidder",
          "type": "address"
        }
      ],
      "name": "OfferCompleted",
      "type": "event"
    },
    {
      "anonymous": false,
      "inputs": [
        {
          "indexed": true,
          "internalType": "uint256",
          "name": "offerId",
          "type": "uint256"
        },
        {
          "indexed": false,
          "internalType": "uint256",
          "name": "costInJewel",
          "type": "uint256"
        }
      ],
      "name": "OfferCostChanged",
      "type": "event"
    },
    {
      "anonymous": false,
      "inputs": [
        {
          "indexed": true,
          "internalType": "uint256",
          "name": "offerId",
          "type": "uint256"
        },
        {
          "indexed": true,
          "internalType": "address",
          "name": "creator",
          "type": "address"
        },
        {
          "indexed": true,
          "internalType": "address",
          "name": "item",
          "type": "address"
        },
        {
          "indexed": false,
          "internalType": "uint256",
          "name": "amount",
          "type": "uint256"
        },
        {
          "indexed": false,
          "internalType": "uint256",
          "name": "costInJewel",
          "type": "uint256"
        }
      ],
      "name": "OfferCreated",
      "type": "event"
    },
    {
      "anonymous": false,
      "inputs": [
        {
          "indexed": false,
          "internalType": "uint256",
          "name": "newValue",
          "type": "uint256"
        },
        {
          "indexed": false,
          "internalType": "uint256",
          "name": "oldValue",
          "type": "uint256"
        }
      ],
      "name": "TradingFeeChanged",
      "type": "event"
    },
    {
      "inputs": [],
      "name": "acceptAdmin",
      "outputs": [],
      "stateMutability": "nonpayable",
      "type": "function"
    },
    {
      "inputs": [],
      "name": "accountFactory",
      "outputs": [
        {
          "internalType": "address",
          "name": "",
          "type": "address"
        }
      ],
      "stateMutability": "view",
      "type": "function"
    },
    {
      "inputs": [],
      "name": "admin",
      "outputs": [
        {
          "internalType": "address",
          "name": "",
          "type": "address"
        }
      ],
      "stateMutability": "view",
      "type": "function"
    },
    {
      "inputs": [
        {
          "internalType": "address[]",
          "name": "_erc20Tokens",
          "type": "address[]"
        },
        {
          "internalType": "uint256[]",
          "name": "_amounts",
          "type": "uint256[]"
        }
      ],
      "name": "batchWithdrawalERC20Tokens",
      "outputs": [],
      "stateMutability": "nonpayable",
      "type": "function"
    },
    {
      "inputs": [
        {
          "internalType": "address",
          "name": "_erc721Token",
          "type": "address"
        },
        {
          "internalType": "uint256[]",
          "name": "_tokenIds",
          "type": "uint256[]"
        }
      ],
      "name": "batchWithdrawalERC721Tokens",
      "outputs": [],
      "stateMutability": "nonpayable",
      "type": "function"
    },
    {
      "inputs": [
        {
          "internalType": "uint256",
          "name": "offerId",
          "type": "uint256"
        }
      ],
      "name": "bid",
      "outputs": [],
      "stateMutability": "nonpayable",
      "type": "function"
    },
    {
      "inputs": [
        {
          "internalType": "uint256",
          "name": "offerId",
          "type": "uint256"
        }
      ],
      "name": "cancelOffer",
      "outputs": [],
      "stateMutability": "nonpayable",
      "type": "function"
    },
    {
      "inputs": [
        {
          "internalType": "uint256",
          "name": "offerId",
          "type": "uint256"
        },
        {
          "internalType": "uint256",
          "name": "_costInJewel",
          "type": "uint256"
        }
      ],
      "name": "changeOfferCost",
      "outputs": [],
      "stateMutability": "nonpayable",
      "type": "function"
    },
    {
      "inputs": [
        {
          "internalType": "address",
          "name": "item",
          "type": "address"
        },
        {
          "internalType": "uint256",
          "name": "amount",
          "type": "uint256"
        },
        {
          "internalType": "uint256",
          "name": "costInJewel",
          "type": "uint256"
        }
      ],
      "name": "createOffer",
      "outputs": [
        {
          "internalType": "uint256",
          "name": "offerId",
          "type": "uint256"
        }
      ],
      "stateMutability": "nonpayable",
      "type": "function"
    },
    {
      "inputs": [
        {
          "internalType": "address",
          "name": "user",
          "type": "address"
        }
      ],
      "name": "getAccount",
      "outputs": [
        {
          "internalType": "address",
          "name": "",
          "type": "address"
        }
      ],
      "stateMutability": "view",
      "type": "function"
    },
    {
      "inputs": [
        {
          "internalType": "address",
          "name": "user",
          "type": "address"
        }
      ],
      "name": "hasAccount",
      "outputs": [
        {
          "internalType": "bool",
          "name": "",
          "type": "bool"
        }
      ],
      "stateMutability": "view",
      "type": "function"
    },
    {
      "inputs": [],
      "name": "numOffers",
      "outputs": [
        {
          "internalType": "uint256",
          "name": "",
          "type": "uint256"
        }
      ],
      "stateMutability": "view",
      "type": "function"
    },
    {
      "inputs": [
        {
          "internalType": "uint256",
          "name": "",
          "type": "uint256"
        }
      ],
      "name": "offers",
      "outputs": [
        {
          "internalType": "address",
          "name": "creator",
          "type": "address"
        },
        {
          "internalType": "address",
          "name": "bidder",
          "type": "address"
        },
        {
          "internalType": "address",
          "name": "item",
          "type": "address"
        },
        {
          "internalType": "uint256",
          "name": "amount",
          "type": "uint256"
        },
        {
          "internalType": "uint256",
          "name": "costInJewel",
          "type": "uint256"
        },
        {
          "internalType": "uint256",
          "name": "tradingFee",
          "type": "uint256"
        },
        {
          "internalType": "enum DFKEarnMarket.OfferStatus",
          "name": "status",
          "type": "uint8"
        }
      ],
      "stateMutability": "view",
      "type": "function"
    },
    {
      "inputs": [],
      "name": "pendingAdmin",
      "outputs": [
        {
          "internalType": "address",
          "name": "",
          "type": "address"
        }
      ],
      "stateMutability": "view",
      "type": "function"
    },
    {
      "inputs": [
        {
          "internalType": "address[]",
          "name": "_items",
          "type": "address[]"
        },
        {
          "internalType": "uint256[]",
          "name": "_amounts",
          "type": "uint256[]"
        }
      ],
      "name": "sellToVender",
      "outputs": [],
      "stateMutability": "nonpayable",
      "type": "function"
    },
    {
      "inputs": [
        {
          "internalType": "address",
          "name": "_newPendingAdmin",
          "type": "address"
        }
      ],
      "name": "setPendingAdmin",
      "outputs": [],
      "stateMutability": "nonpayable",
      "type": "function"
    },
    {
      "inputs": [
        {
          "internalType": "uint256",
          "name": "_tradingFee",
          "type": "uint256"
        }
      ],
      "name": "setTradingFee",
      "outputs": [],
      "stateMutability": "nonpayable",
      "type": "function"
    },
    {
      "inputs": [],
      "name": "tradingFee",
      "outputs": [
        {
          "internalType": "uint256",
          "name": "",
          "type": "uint256"
        }
      ],
      "stateMutability": "view",
      "type": "function"
    },
    {
      "inputs": [
        {
          "internalType": "address",
          "name": "user",
          "type": "address"
        }
      ],
      "name": "tryGetAccount",
      "outputs": [
        {
          "internalType": "address",
          "name": "",
          "type": "address"
        }
      ],
      "stateMutability": "view",
      "type": "function"
    },
    {
      "inputs": [
        {
          "internalType": "uint256",
          "name": "_amount",
          "type": "uint256"
        }
      ],
      "name": "withdrawalNativeToken",
      "outputs": [],
      "stateMutability": "nonpayable",
      "type": "function"
    }
  ],
  "transactionHash": "0x9aba2a9ba67b3d8831d0bb3143680468e02f3f2627014691962419ac241e5b18",
  "args": [
    "0x26B1029bD0bEEb31F2F5da74d2dd19fAC92b85Cc",
    "0x72Cb10C6bfA5624dD07Ef608027E366bd690048F"
  ],
  "numDeployments": 1,
  "solcInputHash": "35bd8e0ff71a43f5bb2b479f8778ff22",
  "bytecode": "0x60c060405260fa60025560006003553480156200001b57600080fd5b5060405162003df038038062003df083398181016040528101906200004191906200016c565b81336000806101000a81548173ffffffffffffffffffffffffffffffffffffffff021916908373ffffffffffffffffffffffffffffffffffffffff1602179055507ff9ffabca9c8276e99321725bcb43fb076a6c66a54b7f21c4e8146d8519b417dc60008054906101000a900473ffffffffffffffffffffffffffffffffffffffff166000604051620000d6929190620001be565b60405180910390a18073ffffffffffffffffffffffffffffffffffffffff1660808173ffffffffffffffffffffffffffffffffffffffff1660601b81525050508073ffffffffffffffffffffffffffffffffffffffff1660a08173ffffffffffffffffffffffffffffffffffffffff1660601b81525050505062000239565b60008151905062000166816200021f565b92915050565b600080604083850312156200018057600080fd5b6000620001908582860162000155565b9250506020620001a38582860162000155565b9150509250929050565b620001b881620001eb565b82525050565b6000604082019050620001d56000830185620001ad565b620001e46020830184620001ad565b9392505050565b6000620001f882620001ff565b9050919050565b600073ffffffffffffffffffffffffffffffffffffffff82169050919050565b6200022a81620001eb565b81146200023657600080fd5b50565b60805160601c60a05160601c613b766200027a600039600081816114d3015281816115e201526116b2015260008181610b590152611bb00152613b766000f3fe608060405234801561001057600080fd5b506004361061012c5760003560e01c80637a5cadd0116100ad578063c8e40fbf11610071578063c8e40fbf1461030b578063cc6bee541461033b578063ef706adf14610359578063f851a44014610375578063fbcbc0f1146103935761012c565b80637a5cadd0146102655780638a72ea6a14610281578063b0d54bcf146102b7578063b3835447146102d3578063c6262ec8146102ef5761012c565b80633760da5a116100f45780633760da5a146101d5578063454a2ab3146101f15780634dd18bf51461020d57806356f4335214610229578063687cd9c1146102475761012c565b80630e18b681146101315780631c6c71281461013b5780631cc1b0e11461016b578063267822471461019b5780632eaa6053146101b9575b600080fd5b6101396103c3565b005b61015560048036038101906101509190612e6b565b610635565b6040516101629190613556565b60405180910390f35b61018560048036038101906101809190612dc1565b610b55565b604051610192919061324f565b60405180910390f35b6101a3610c07565b6040516101b0919061324f565b60405180910390f35b6101d360048036038101906101ce9190612e13565b610c2d565b005b6101ef60048036038101906101ea9190612eba565b610f00565b005b61020b60048036038101906102069190612f99565b611241565b005b61022760048036038101906102229190612dc1565b611935565b005b610231611ba8565b60405161023e9190613556565b60405180910390f35b61024f611bae565b60405161025c919061324f565b60405180910390f35b61027f600480360381019061027a9190612f99565b611bd2565b005b61029b60048036038101906102969190612f99565b611caa565b6040516102ae97969594939291906132bc565b60405180910390f35b6102d160048036038101906102cc9190612f99565b611d59565b005b6102ed60048036038101906102e89190612eba565b611e34565b005b61030960048036038101906103049190612feb565b612325565b005b61032560048036038101906103209190612dc1565b612704565b60405161033291906133bb565b60405180910390f35b610343612745565b6040516103509190613556565b60405180910390f35b610373600480360381019061036e9190612f99565b61274b565b005b61037d612bb1565b60405161038a919061324f565b60405180910390f35b6103ad60048036038101906103a89190612dc1565b612bd5565b6040516103ba919061324f565b60405180910390f35b600160009054906101000a900473ffffffffffffffffffffffffffffffffffffffff1673ffffffffffffffffffffffffffffffffffffffff163373ffffffffffffffffffffffffffffffffffffffff1614801561044d5750600073ffffffffffffffffffffffffffffffffffffffff163373ffffffffffffffffffffffffffffffffffffffff1614155b61048c576040517f08c379a0000000000000000000000000000000000000000000000000000000008152600401610483906134f6565b60405180910390fd5b60008060009054906101000a900473ffffffffffffffffffffffffffffffffffffffff1690506000600160009054906101000a900473ffffffffffffffffffffffffffffffffffffffff169050600160009054906101000a900473ffffffffffffffffffffffffffffffffffffffff166000806101000a81548173ffffffffffffffffffffffffffffffffffffffff021916908373ffffffffffffffffffffffffffffffffffffffff1602179055506000600160006101000a81548173ffffffffffffffffffffffffffffffffffffffff021916908373ffffffffffffffffffffffffffffffffffffffff1602179055507ff9ffabca9c8276e99321725bcb43fb076a6c66a54b7f21c4e8146d8519b417dc60008054906101000a900473ffffffffffffffffffffffffffffffffffffffff16836040516105ce929190613293565b60405180910390a17fca4f2f25d0898edd99413412fb94012f9e54ec8142f9b093e7720646a95b16a9600160009054906101000a900473ffffffffffffffffffffffffffffffffffffffff1682604051610629929190613293565b60405180910390a15050565b6000808311610679576040517f08c379a000000000000000000000000000000000000000000000000000000000815260040161067090613456565b60405180910390fd5b600082116106bc576040517f08c379a00000000000000000000000000000000000000000000000000000000081526004016106b3906133f6565b60405180910390fd5b60006106c733612bd5565b905060008573ffffffffffffffffffffffffffffffffffffffff166370a08231836040518263ffffffff1660e01b8152600401610704919061324f565b60206040518083038186803b15801561071c57600080fd5b505afa158015610730573d6000803e3d6000fd5b505050506040513d601f19601f820116820180604052508101906107549190612fc2565b905084811015610799576040517f08c379a0000000000000000000000000000000000000000000000000000000008152600401610790906134b6565b60405180910390fd5b8173ffffffffffffffffffffffffffffffffffffffff1663a0b5ffb08730886040516024016107c9929190613392565b6040516020818303038152906040527fa9059cbb000000000000000000000000000000000000000000000000000000007bffffffffffffffffffffffffffffffffffffffffffffffffffffffff19166020820180517bffffffffffffffffffffffffffffffffffffffffffffffffffffffff83818316178352505050506040518363ffffffff1660e01b8152600401610863929190613362565b600060405180830381600087803b15801561087d57600080fd5b505af1158015610891573d6000803e3d6000fd5b505050506040513d6000823e3d601f19601f820116820180604052508101906108ba9190612f58565b50600360008154809291906108ce906137bf565b9190505592506040518060e001604052808373ffffffffffffffffffffffffffffffffffffffff168152602001600073ffffffffffffffffffffffffffffffffffffffff1681526020018773ffffffffffffffffffffffffffffffffffffffff168152602001868152602001858152602001600254815260200160006002811115610982577f4e487b7100000000000000000000000000000000000000000000000000000000600052602160045260246000fd5b8152506004600085815260200190815260200160002060008201518160000160006101000a81548173ffffffffffffffffffffffffffffffffffffffff021916908373ffffffffffffffffffffffffffffffffffffffff16021790555060208201518160010160006101000a81548173ffffffffffffffffffffffffffffffffffffffff021916908373ffffffffffffffffffffffffffffffffffffffff16021790555060408201518160020160006101000a81548173ffffffffffffffffffffffffffffffffffffffff021916908373ffffffffffffffffffffffffffffffffffffffff160217905550606082015181600301556080820151816004015560a0820151816005015560c08201518160060160006101000a81548160ff02191690836002811115610adc577f4e487b7100000000000000000000000000000000000000000000000000000000600052602160045260246000fd5b02179055509050508573ffffffffffffffffffffffffffffffffffffffff168273ffffffffffffffffffffffffffffffffffffffff16847f6cde6cb15ae436d9a233ffac7fee903539ea6b27dc2065434ae7d3900b6cdd7a8888604051610b44929190613571565b60405180910390a450509392505050565b60007f000000000000000000000000000000000000000000000000000000000000000073ffffffffffffffffffffffffffffffffffffffff16635e5c06e2836040518263ffffffff1660e01b8152600401610bb0919061324f565b60206040518083038186803b158015610bc857600080fd5b505afa158015610bdc573d6000803e3d6000fd5b505050506040513d601f19601f82011682018060405250810190610c009190612dea565b9050919050565b600160009054906101000a900473ffffffffffffffffffffffffffffffffffffffff1681565b6000610c3833612bd5565b905060005b83839050811015610ef95760008573ffffffffffffffffffffffffffffffffffffffff16636352211e868685818110610c9f577f4e487b7100000000000000000000000000000000000000000000000000000000600052603260045260246000fd5b905060200201356040518263ffffffff1660e01b8152600401610cc29190613556565b60206040518083038186803b158015610cda57600080fd5b505afa158015610cee573d6000803e3d6000fd5b505050506040513d601f19601f82011682018060405250810190610d129190612dea565b90508273ffffffffffffffffffffffffffffffffffffffff168173ffffffffffffffffffffffffffffffffffffffff1614610d82576040517f08c379a0000000000000000000000000000000000000000000000000000000008152600401610d7990613516565b60405180910390fd5b8273ffffffffffffffffffffffffffffffffffffffff1663a0b5ffb0878533898988818110610dda577f4e487b7100000000000000000000000000000000000000000000000000000000600052603260045260246000fd5b90506020020135604051602401610df39392919061332b565b6040516020818303038152906040527f42842e0e000000000000000000000000000000000000000000000000000000007bffffffffffffffffffffffffffffffffffffffffffffffffffffffff19166020820180517bffffffffffffffffffffffffffffffffffffffffffffffffffffffff83818316178352505050506040518363ffffffff1660e01b8152600401610e8d929190613362565b600060405180830381600087803b158015610ea757600080fd5b505af1158015610ebb573d6000803e3d6000fd5b505050506040513d6000823e3d601f19601f82011682018060405250810190610ee49190612f58565b50508080610ef1906137bf565b915050610c3d565b5050505050565b6000610f0b33612bd5565b905060005b85859050811015611239576000868683818110610f56577f4e487b7100000000000000000000000000000000000000000000000000000000600052603260045260246000fd5b9050602002016020810190610f6b9190612dc1565b73ffffffffffffffffffffffffffffffffffffffff166370a08231846040518263ffffffff1660e01b8152600401610fa3919061324f565b60206040518083038186803b158015610fbb57600080fd5b505afa158015610fcf573d6000803e3d6000fd5b505050506040513d601f19601f82011682018060405250810190610ff39190612fc2565b90508085858481811061102f577f4e487b7100000000000000000000000000000000000000000000000000000000600052603260045260246000fd5b905060200201351115611077576040517f08c379a000000000000000000000000000000000000000000000000000000000815260040161106e906134b6565b60405180910390fd5b8273ffffffffffffffffffffffffffffffffffffffff1663a0b5ffb08888858181106110cc577f4e487b7100000000000000000000000000000000000000000000000000000000600052603260045260246000fd5b90506020020160208101906110e19190612dc1565b3388888781811061111b577f4e487b7100000000000000000000000000000000000000000000000000000000600052603260045260246000fd5b90506020020135604051602401611133929190613392565b6040516020818303038152906040527fa9059cbb000000000000000000000000000000000000000000000000000000007bffffffffffffffffffffffffffffffffffffffffffffffffffffffff19166020820180517bffffffffffffffffffffffffffffffffffffffffffffffffffffffff83818316178352505050506040518363ffffffff1660e01b81526004016111cd929190613362565b600060405180830381600087803b1580156111e757600080fd5b505af11580156111fb573d6000803e3d6000fd5b505050506040513d6000823e3d601f19601f820116820180604052508101906112249190612f58565b50508080611231906137bf565b915050610f10565b505050505050565b6000600460008381526020019081526020016000206040518060e00160405290816000820160009054906101000a900473ffffffffffffffffffffffffffffffffffffffff1673ffffffffffffffffffffffffffffffffffffffff1673ffffffffffffffffffffffffffffffffffffffff1681526020016001820160009054906101000a900473ffffffffffffffffffffffffffffffffffffffff1673ffffffffffffffffffffffffffffffffffffffff1673ffffffffffffffffffffffffffffffffffffffff1681526020016002820160009054906101000a900473ffffffffffffffffffffffffffffffffffffffff1673ffffffffffffffffffffffffffffffffffffffff1673ffffffffffffffffffffffffffffffffffffffff1681526020016003820154815260200160048201548152602001600582015481526020016006820160009054906101000a900460ff1660028111156113cc577f4e487b7100000000000000000000000000000000000000000000000000000000600052602160045260246000fd5b6002811115611404577f4e487b7100000000000000000000000000000000000000000000000000000000600052602160045260246000fd5b81525050905060006002811115611444577f4e487b7100000000000000000000000000000000000000000000000000000000600052602160045260246000fd5b8160c001516002811115611481577f4e487b7100000000000000000000000000000000000000000000000000000000600052602160045260246000fd5b146114c1576040517f08c379a00000000000000000000000000000000000000000000000000000000081526004016114b8906133d6565b60405180910390fd5b600033905060008260800151905060007f000000000000000000000000000000000000000000000000000000000000000073ffffffffffffffffffffffffffffffffffffffff166370a08231846040518263ffffffff1660e01b815260040161152a919061324f565b60206040518083038186803b15801561154257600080fd5b505afa158015611556573d6000803e3d6000fd5b505050506040513d601f19601f8201168201806040525081019061157a9190612fc2565b9050818110156115bf576040517f08c379a00000000000000000000000000000000000000000000000000000000081526004016115b690613536565b60405180910390fd5b60006127108560a00151846115d4919061364e565b6115de919061361d565b90507f000000000000000000000000000000000000000000000000000000000000000073ffffffffffffffffffffffffffffffffffffffff166323b872dd8560008054906101000a900473ffffffffffffffffffffffffffffffffffffffff16846040518463ffffffff1660e01b815260040161165d9392919061332b565b602060405180830381600087803b15801561167757600080fd5b505af115801561168b573d6000803e3d6000fd5b505050506040513d601f19601f820116820180604052508101906116af9190612f2f565b507f000000000000000000000000000000000000000000000000000000000000000073ffffffffffffffffffffffffffffffffffffffff166323b872dd85876000015184876116fe91906136a8565b6040518463ffffffff1660e01b815260040161171c9392919061332b565b602060405180830381600087803b15801561173657600080fd5b505af115801561174a573d6000803e3d6000fd5b505050506040513d601f19601f8201168201806040525081019061176e9190612f2f565b50846040015173ffffffffffffffffffffffffffffffffffffffff1663a9059cbb8587606001516040518363ffffffff1660e01b81526004016117b2929190613392565b602060405180830381600087803b1580156117cc57600080fd5b505af11580156117e0573d6000803e3d6000fd5b505050506040513d601f19601f820116820180604052508101906118049190612f2f565b50836004600088815260200190815260200160002060010160006101000a81548173ffffffffffffffffffffffffffffffffffffffff021916908373ffffffffffffffffffffffffffffffffffffffff16021790555060026004600088815260200190815260200160002060060160006101000a81548160ff021916908360028111156118ba577f4e487b7100000000000000000000000000000000000000000000000000000000600052602160045260246000fd5b0217905550846040015173ffffffffffffffffffffffffffffffffffffffff16856000015173ffffffffffffffffffffffffffffffffffffffff16877f94f977c3be3ff6d84397a77380e62fb0de0dde5ea373efcb43e7b3506d6e366287604051611925919061324f565b60405180910390a4505050505050565b60008054906101000a900473ffffffffffffffffffffffffffffffffffffffff1673ffffffffffffffffffffffffffffffffffffffff163373ffffffffffffffffffffffffffffffffffffffff16146119c3576040517f08c379a00000000000000000000000000000000000000000000000000000000081526004016119ba90613416565b60405180910390fd5b60008054906101000a900473ffffffffffffffffffffffffffffffffffffffff1673ffffffffffffffffffffffffffffffffffffffff168173ffffffffffffffffffffffffffffffffffffffff1614158015611a4c5750600073ffffffffffffffffffffffffffffffffffffffff168173ffffffffffffffffffffffffffffffffffffffff1614155b611a8b576040517f08c379a0000000000000000000000000000000000000000000000000000000008152600401611a8290613476565b60405180910390fd5b8073ffffffffffffffffffffffffffffffffffffffff16600160009054906101000a900473ffffffffffffffffffffffffffffffffffffffff1673ffffffffffffffffffffffffffffffffffffffff1614611ba5576000600160009054906101000a900473ffffffffffffffffffffffffffffffffffffffff16905081600160006101000a81548173ffffffffffffffffffffffffffffffffffffffff021916908373ffffffffffffffffffffffffffffffffffffffff1602179055507fca4f2f25d0898edd99413412fb94012f9e54ec8142f9b093e7720646a95b16a9600160009054906101000a900473ffffffffffffffffffffffffffffffffffffffff1682604051611b9b929190613293565b60405180910390a1505b50565b60025481565b7f000000000000000000000000000000000000000000000000000000000000000081565b6000611bdd33612bd5565b90508073ffffffffffffffffffffffffffffffffffffffff1631821115611c39576040517f08c379a0000000000000000000000000000000000000000000000000000000008152600401611c30906134b6565b60405180910390fd5b8073ffffffffffffffffffffffffffffffffffffffff166324a084df33846040518363ffffffff1660e01b8152600401611c7492919061326a565b600060405180830381600087803b158015611c8e57600080fd5b505af1158015611ca2573d6000803e3d6000fd5b505050505050565b60046020528060005260406000206000915090508060000160009054906101000a900473ffffffffffffffffffffffffffffffffffffffff16908060010160009054906101000a900473ffffffffffffffffffffffffffffffffffffffff16908060020160009054906101000a900473ffffffffffffffffffffffffffffffffffffffff16908060030154908060040154908060050154908060060160009054906101000a900460ff16905087565b60008054906101000a900473ffffffffffffffffffffffffffffffffffffffff1673ffffffffffffffffffffffffffffffffffffffff163373ffffffffffffffffffffffffffffffffffffffff1614611de7576040517f08c379a0000000000000000000000000000000000000000000000000000000008152600401611dde90613416565b60405180910390fd5b60006002549050816002819055507fd09ec1129db52cb8c45d6993c129e0eb8eea92500b1d58b19054496e705c695e60025482604051611e28929190613571565b60405180910390a15050565b600073e53bf78f8b99b6d356f93f41afb9951168cca2c690506000611e5833612bd5565b905060005b8686905081101561231c576000878783818110611ea3577f4e487b7100000000000000000000000000000000000000000000000000000000600052603260045260246000fd5b9050602002016020810190611eb89190612dc1565b73ffffffffffffffffffffffffffffffffffffffff166370a08231846040518263ffffffff1660e01b8152600401611ef0919061324f565b60206040518083038186803b158015611f0857600080fd5b505afa158015611f1c573d6000803e3d6000fd5b505050506040513d601f19601f82011682018060405250810190611f409190612fc2565b905080868684818110611f7c577f4e487b7100000000000000000000000000000000000000000000000000000000600052603260045260246000fd5b905060200201351115611fc4576040517f08c379a0000000000000000000000000000000000000000000000000000000008152600401611fbb906134b6565b60405180910390fd5b8273ffffffffffffffffffffffffffffffffffffffff1663a0b5ffb0898985818110612019577f4e487b7100000000000000000000000000000000000000000000000000000000600052603260045260246000fd5b905060200201602081019061202e9190612dc1565b86898987818110612068577f4e487b7100000000000000000000000000000000000000000000000000000000600052603260045260246000fd5b90506020020135604051602401612080929190613392565b6040516020818303038152906040527f095ea7b3000000000000000000000000000000000000000000000000000000007bffffffffffffffffffffffffffffffffffffffffffffffffffffffff19166020820180517bffffffffffffffffffffffffffffffffffffffffffffffffffffffff83818316178352505050506040518363ffffffff1660e01b815260040161211a929190613362565b600060405180830381600087803b15801561213457600080fd5b505af1158015612148573d6000803e3d6000fd5b505050506040513d6000823e3d601f19601f820116820180604052508101906121719190612f58565b508273ffffffffffffffffffffffffffffffffffffffff1663a0b5ffb08563096c5e1a60e01b8b8b878181106121d0577f4e487b7100000000000000000000000000000000000000000000000000000000600052603260045260246000fd5b90506020020160208101906121e59190612dc1565b8a8a8881811061221e577f4e487b7100000000000000000000000000000000000000000000000000000000600052603260045260246000fd5b90506020020135604051602401612236929190613392565b604051602081830303815290604052907bffffffffffffffffffffffffffffffffffffffffffffffffffffffff19166020820180517bffffffffffffffffffffffffffffffffffffffffffffffffffffffff83818316178352505050506040518363ffffffff1660e01b81526004016122b0929190613362565b600060405180830381600087803b1580156122ca57600080fd5b505af11580156122de573d6000803e3d6000fd5b505050506040513d6000823e3d601f19601f820116820180604052508101906123079190612f58565b50508080612314906137bf565b915050611e5d565b50505050505050565b6003548210612369576040517f08c379a0000000000000000000000000000000000000000000000000000000008152600401612360906134d6565b60405180910390fd5b6000600460008481526020019081526020016000206040518060e00160405290816000820160009054906101000a900473ffffffffffffffffffffffffffffffffffffffff1673ffffffffffffffffffffffffffffffffffffffff1673ffffffffffffffffffffffffffffffffffffffff1681526020016001820160009054906101000a900473ffffffffffffffffffffffffffffffffffffffff1673ffffffffffffffffffffffffffffffffffffffff1673ffffffffffffffffffffffffffffffffffffffff1681526020016002820160009054906101000a900473ffffffffffffffffffffffffffffffffffffffff1673ffffffffffffffffffffffffffffffffffffffff1673ffffffffffffffffffffffffffffffffffffffff1681526020016003820154815260200160048201548152602001600582015481526020016006820160009054906101000a900460ff1660028111156124f4577f4e487b7100000000000000000000000000000000000000000000000000000000600052602160045260246000fd5b600281111561252c577f4e487b7100000000000000000000000000000000000000000000000000000000600052602160045260246000fd5b8152505090506000600281111561256c577f4e487b7100000000000000000000000000000000000000000000000000000000600052602160045260246000fd5b8160c0015160028111156125a9577f4e487b7100000000000000000000000000000000000000000000000000000000600052602160045260246000fd5b146125e9576040517f08c379a00000000000000000000000000000000000000000000000000000000081526004016125e0906133d6565b60405180910390fd5b60006125f433612bd5565b9050816000015173ffffffffffffffffffffffffffffffffffffffff168173ffffffffffffffffffffffffffffffffffffffff1614612668576040517f08c379a000000000000000000000000000000000000000000000000000000000815260040161265f90613436565b60405180910390fd5b600083116126ab576040517f08c379a00000000000000000000000000000000000000000000000000000000081526004016126a2906133f6565b60405180910390fd5b826004600086815260200190815260200160002060040181905550837fd9de14bc255c4dff75719fb704725d81649310c9d00c7a2e92dd7405e0cf9a0b846040516126f69190613556565b60405180910390a250505050565b60008073ffffffffffffffffffffffffffffffffffffffff1661272683610b55565b73ffffffffffffffffffffffffffffffffffffffff1614159050919050565b60035481565b6000600460008381526020019081526020016000206040518060e00160405290816000820160009054906101000a900473ffffffffffffffffffffffffffffffffffffffff1673ffffffffffffffffffffffffffffffffffffffff1673ffffffffffffffffffffffffffffffffffffffff1681526020016001820160009054906101000a900473ffffffffffffffffffffffffffffffffffffffff1673ffffffffffffffffffffffffffffffffffffffff1673ffffffffffffffffffffffffffffffffffffffff1681526020016002820160009054906101000a900473ffffffffffffffffffffffffffffffffffffffff1673ffffffffffffffffffffffffffffffffffffffff1673ffffffffffffffffffffffffffffffffffffffff1681526020016003820154815260200160048201548152602001600582015481526020016006820160009054906101000a900460ff1660028111156128d6577f4e487b7100000000000000000000000000000000000000000000000000000000600052602160045260246000fd5b600281111561290e577f4e487b7100000000000000000000000000000000000000000000000000000000600052602160045260246000fd5b8152505090506000600281111561294e577f4e487b7100000000000000000000000000000000000000000000000000000000600052602160045260246000fd5b8160c00151600281111561298b577f4e487b7100000000000000000000000000000000000000000000000000000000600052602160045260246000fd5b146129cb576040517f08c379a00000000000000000000000000000000000000000000000000000000081526004016129c2906133d6565b60405180910390fd5b60006129d633612bd5565b9050816000015173ffffffffffffffffffffffffffffffffffffffff168173ffffffffffffffffffffffffffffffffffffffff1614612a4a576040517f08c379a0000000000000000000000000000000000000000000000000000000008152600401612a4190613436565b60405180910390fd5b816040015173ffffffffffffffffffffffffffffffffffffffff1663a9059cbb836000015184606001516040518363ffffffff1660e01b8152600401612a91929190613392565b602060405180830381600087803b158015612aab57600080fd5b505af1158015612abf573d6000803e3d6000fd5b505050506040513d601f19601f82011682018060405250810190612ae39190612f2f565b5060016004600085815260200190815260200160002060060160006101000a81548160ff02191690836002811115612b44577f4e487b7100000000000000000000000000000000000000000000000000000000600052602160045260246000fd5b0217905550816040015173ffffffffffffffffffffffffffffffffffffffff16826000015173ffffffffffffffffffffffffffffffffffffffff16847f95c7640046d4e014deb7e219fc04f53725fa4e27a49c281e2744a68a367ce83c60405160405180910390a4505050565b60008054906101000a900473ffffffffffffffffffffffffffffffffffffffff1681565b600080612be183610b55565b9050600073ffffffffffffffffffffffffffffffffffffffff168173ffffffffffffffffffffffffffffffffffffffff161415612c53576040517f08c379a0000000000000000000000000000000000000000000000000000000008152600401612c4a90613496565b60405180910390fd5b80915050919050565b6000612c6f612c6a846135bf565b61359a565b905082815260208101848484011115612c8757600080fd5b612c9284828561375b565b509392505050565b600081359050612ca981613afb565b92915050565b600081519050612cbe81613afb565b92915050565b60008083601f840112612cd657600080fd5b8235905067ffffffffffffffff811115612cef57600080fd5b602083019150836020820283011115612d0757600080fd5b9250929050565b60008083601f840112612d2057600080fd5b8235905067ffffffffffffffff811115612d3957600080fd5b602083019150836020820283011115612d5157600080fd5b9250929050565b600081519050612d6781613b12565b92915050565b600082601f830112612d7e57600080fd5b8151612d8e848260208601612c5c565b91505092915050565b600081359050612da681613b29565b92915050565b600081519050612dbb81613b29565b92915050565b600060208284031215612dd357600080fd5b6000612de184828501612c9a565b91505092915050565b600060208284031215612dfc57600080fd5b6000612e0a84828501612caf565b91505092915050565b600080600060408486031215612e2857600080fd5b6000612e3686828701612c9a565b935050602084013567ffffffffffffffff811115612e5357600080fd5b612e5f86828701612d0e565b92509250509250925092565b600080600060608486031215612e8057600080fd5b6000612e8e86828701612c9a565b9350506020612e9f86828701612d97565b9250506040612eb086828701612d97565b9150509250925092565b60008060008060408587031215612ed057600080fd5b600085013567ffffffffffffffff811115612eea57600080fd5b612ef687828801612cc4565b9450945050602085013567ffffffffffffffff811115612f1557600080fd5b612f2187828801612d0e565b925092505092959194509250565b600060208284031215612f4157600080fd5b6000612f4f84828501612d58565b91505092915050565b600060208284031215612f6a57600080fd5b600082015167ffffffffffffffff811115612f8457600080fd5b612f9084828501612d6d565b91505092915050565b600060208284031215612fab57600080fd5b6000612fb984828501612d97565b91505092915050565b600060208284031215612fd457600080fd5b6000612fe284828501612dac565b91505092915050565b60008060408385031215612ffe57600080fd5b600061300c85828601612d97565b925050602061301d85828601612d97565b9150509250929050565b613030816136ee565b82525050565b61303f816136dc565b82525050565b61304e81613700565b82525050565b600061305f826135f0565b61306981856135fb565b935061307981856020860161375b565b613082816138c4565b840191505092915050565b61309681613749565b82525050565b60006130a9601d8361360c565b91506130b4826138d5565b602082019050919050565b60006130cc60128361360c565b91506130d7826138fe565b602082019050919050565b60006130ef60128361360c565b91506130fa82613927565b602082019050919050565b600061311260168361360c565b915061311d82613950565b602082019050919050565b600061313560148361360c565b915061314082613979565b602082019050919050565b600061315860188361360c565b9150613163826139a2565b602082019050919050565b600061317b60138361360c565b9150613186826139cb565b602082019050919050565b600061319e601d8361360c565b91506131a9826139f4565b602082019050919050565b60006131c160188361360c565b91506131cc82613a1d565b602082019050919050565b60006131e4601a8361360c565b91506131ef82613a46565b602082019050919050565b600061320760128361360c565b915061321282613a6f565b602082019050919050565b600061322a60238361360c565b915061323582613a98565b604082019050919050565b6132498161373f565b82525050565b60006020820190506132646000830184613036565b92915050565b600060408201905061327f6000830185613027565b61328c6020830184613240565b9392505050565b60006040820190506132a86000830185613036565b6132b56020830184613036565b9392505050565b600060e0820190506132d1600083018a613036565b6132de6020830189613036565b6132eb6040830188613036565b6132f86060830187613240565b6133056080830186613240565b61331260a0830185613240565b61331f60c083018461308d565b98975050505050505050565b60006060820190506133406000830186613036565b61334d6020830185613036565b61335a6040830184613240565b949350505050565b60006040820190506133776000830185613036565b81810360208301526133898184613054565b90509392505050565b60006040820190506133a76000830185613036565b6133b46020830184613240565b9392505050565b60006020820190506133d06000830184613045565b92915050565b600060208201905081810360008301526133ef8161309c565b9050919050565b6000602082019050818103600083015261340f816130bf565b9050919050565b6000602082019050818103600083015261342f816130e2565b9050919050565b6000602082019050818103600083015261344f81613105565b9050919050565b6000602082019050818103600083015261346f81613128565b9050919050565b6000602082019050818103600083015261348f8161314b565b9050919050565b600060208201905081810360008301526134af8161316e565b9050919050565b600060208201905081810360008301526134cf81613191565b9050919050565b600060208201905081810360008301526134ef816131b4565b9050919050565b6000602082019050818103600083015261350f816131d7565b9050919050565b6000602082019050818103600083015261352f816131fa565b9050919050565b6000602082019050818103600083015261354f8161321d565b9050919050565b600060208201905061356b6000830184613240565b92915050565b60006040820190506135866000830185613240565b6135936020830184613240565b9392505050565b60006135a46135b5565b90506135b0828261378e565b919050565b6000604051905090565b600067ffffffffffffffff8211156135da576135d9613895565b5b6135e3826138c4565b9050602081019050919050565b600081519050919050565b600082825260208201905092915050565b600082825260208201905092915050565b60006136288261373f565b91506136338361373f565b92508261364357613642613837565b5b828204905092915050565b60006136598261373f565b91506136648361373f565b9250817fffffffffffffffffffffffffffffffffffffffffffffffffffffffffffffffff048311821515161561369d5761369c613808565b5b828202905092915050565b60006136b38261373f565b91506136be8361373f565b9250828210156136d1576136d0613808565b5b828203905092915050565b60006136e78261371f565b9050919050565b60006136f98261371f565b9050919050565b60008115159050919050565b600081905061371a82613ae7565b919050565b600073ffffffffffffffffffffffffffffffffffffffff82169050919050565b6000819050919050565b60006137548261370c565b9050919050565b60005b8381101561377957808201518184015260208101905061375e565b83811115613788576000848401525b50505050565b613797826138c4565b810181811067ffffffffffffffff821117156137b6576137b5613895565b5b80604052505050565b60006137ca8261373f565b91507fffffffffffffffffffffffffffffffffffffffffffffffffffffffffffffffff8214156137fd576137fc613808565b5b600182019050919050565b7f4e487b7100000000000000000000000000000000000000000000000000000000600052601160045260246000fd5b7f4e487b7100000000000000000000000000000000000000000000000000000000600052601260045260246000fd5b7f4e487b7100000000000000000000000000000000000000000000000000000000600052602160045260246000fd5b7f4e487b7100000000000000000000000000000000000000000000000000000000600052604160045260246000fd5b6000601f19601f8301169050919050565b7f44464b4561726e3a20696e76616c6964206f6666657220737461747573000000600082015250565b7f44464b4561726e3a207a65726f20636f73740000000000000000000000000000600082015250565b7f44464b4561726e3a206e6f742061646d696e0000000000000000000000000000600082015250565b7f44464b4561726e3a206e6f207065726d697373696f6e00000000000000000000600082015250565b7f44464b4561726e3a207a65726f20616d6f756e74000000000000000000000000600082015250565b7f44464b4561726e3a20696e76616c696420616464726573730000000000000000600082015250565b7f44464b4561726e3a206e6f206163636f756e7400000000000000000000000000600082015250565b7f44464b4561726e3a20696e73756666696369656e742062616c616e6365000000600082015250565b7f44464b4561726e3a20696e76616c6964206f6666657249640000000000000000600082015250565b7f44464b4561726e3a206e6f742070656e64696e672061646d696e000000000000600082015250565b7f44464b4561726e3a206e6f74206f776e65720000000000000000000000000000600082015250565b7f44464b4561726e3a20696e73756666696369656e74206a6577656c2062616c6160008201527f6e63650000000000000000000000000000000000000000000000000000000000602082015250565b60038110613af857613af7613866565b5b50565b613b04816136dc565b8114613b0f57600080fd5b50565b613b1b81613700565b8114613b2657600080fd5b50565b613b328161373f565b8114613b3d57600080fd5b5056fea2646970667358221220d6945405c4fd84b5d39fd9c55d996bfbbd52264a61dbd61a9bc9257cade8ac8b64736f6c63430008040033",
  "devdoc": {
    "kind": "dev",
    "methods": {},
    "version": 1
  },
  "userdoc": {
    "kind": "user",
    "methods": {},
    "version": 1
  },
  "storageLayout": {
    "storage": [
      {
        "astId": 3911,
        "contract": "contracts/dfkearn/DFKEarnMarket.sol:DFKEarnMarket",
        "label": "admin",
        "offset": 0,
        "slot": "0",
        "type": "t_address"
      },
      {
        "astId": 3913,
        "contract": "contracts/dfkearn/DFKEarnMarket.sol:DFKEarnMarket",
        "label": "pendingAdmin",
        "offset": 0,
        "slot": "1",
        "type": "t_address"
      },
      {
        "astId": 4443,
        "contract": "contracts/dfkearn/DFKEarnMarket.sol:DFKEarnMarket",
        "label": "tradingFee",
        "offset": 0,
        "slot": "2",
        "type": "t_uint256"
      },
      {
        "astId": 4446,
        "contract": "contracts/dfkearn/DFKEarnMarket.sol:DFKEarnMarket",
        "label": "numOffers",
        "offset": 0,
        "slot": "3",
        "type": "t_uint256"
      },
      {
        "astId": 4451,
        "contract": "contracts/dfkearn/DFKEarnMarket.sol:DFKEarnMarket",
        "label": "offers",
        "offset": 0,
        "slot": "4",
        "type": "t_mapping(t_uint256,t_struct(Offer)4395_storage)"
      }
    ],
    "types": {
      "t_address": {
        "encoding": "inplace",
        "label": "address",
        "numberOfBytes": "20"
      },
      "t_enum(OfferStatus)4379": {
        "encoding": "inplace",
        "label": "enum DFKEarnMarket.OfferStatus",
        "numberOfBytes": "1"
      },
      "t_mapping(t_uint256,t_struct(Offer)4395_storage)": {
        "encoding": "mapping",
        "key": "t_uint256",
        "label": "mapping(uint256 => struct DFKEarnMarket.Offer)",
        "numberOfBytes": "32",
        "value": "t_struct(Offer)4395_storage"
      },
      "t_struct(Offer)4395_storage": {
        "encoding": "inplace",
        "label": "struct DFKEarnMarket.Offer",
        "members": [
          {
            "astId": 4381,
            "contract": "contracts/dfkearn/DFKEarnMarket.sol:DFKEarnMarket",
            "label": "creator",
            "offset": 0,
            "slot": "0",
            "type": "t_address"
          },
          {
            "astId": 4383,
            "contract": "contracts/dfkearn/DFKEarnMarket.sol:DFKEarnMarket",
            "label": "bidder",
            "offset": 0,
            "slot": "1",
            "type": "t_address"
          },
          {
            "astId": 4385,
            "contract": "contracts/dfkearn/DFKEarnMarket.sol:DFKEarnMarket",
            "label": "item",
            "offset": 0,
            "slot": "2",
            "type": "t_address"
          },
          {
            "astId": 4387,
            "contract": "contracts/dfkearn/DFKEarnMarket.sol:DFKEarnMarket",
            "label": "amount",
            "offset": 0,
            "slot": "3",
            "type": "t_uint256"
          },
          {
            "astId": 4389,
            "contract": "contracts/dfkearn/DFKEarnMarket.sol:DFKEarnMarket",
            "label": "costInJewel",
            "offset": 0,
            "slot": "4",
            "type": "t_uint256"
          },
          {
            "astId": 4391,
            "contract": "contracts/dfkearn/DFKEarnMarket.sol:DFKEarnMarket",
            "label": "tradingFee",
            "offset": 0,
            "slot": "5",
            "type": "t_uint256"
          },
          {
            "astId": 4394,
            "contract": "contracts/dfkearn/DFKEarnMarket.sol:DFKEarnMarket",
            "label": "status",
            "offset": 0,
            "slot": "6",
            "type": "t_enum(OfferStatus)4379"
          }
        ],
        "numberOfBytes": "224"
      },
      "t_uint256": {
        "encoding": "inplace",
        "label": "uint256",
        "numberOfBytes": "32"
      }
    }
  }
}