{
  "address": "0xa58b203f24a3C0C165094CB8329E6D90fC4Fe24A",
  "abi": [
    {
      "inputs": [
        {
          "internalType": "address",
          "name": "_accountFactory",
          "type": "address"
        },
        {
          "internalType": "address",
          "name": "_DFKQuest",
          "type": "address"
        },
        {
          "internalType": "address",
          "name": "_JEWEL",
          "type": "address"
        }
      ],
      "stateMutability": "nonpayable",
      "type": "constructor"
    },
    {
      "anonymous": false,
      "inputs": [
        {
          "indexed": false,
          "internalType": "address",
          "name": "newAdmin",
          "type": "address"
        },
        {
          "indexed": false,
          "internalType": "address",
          "name": "oldAdmin",
          "type": "address"
        }
      ],
      "name": "NewAdmin",
      "type": "event"
    },
    {
      "anonymous": false,
      "inputs": [
        {
          "indexed": false,
          "internalType": "address",
          "name": "newPendingAdmin",
          "type": "address"
        },
        {
          "indexed": false,
          "internalType": "address",
          "name": "oldPendingAdmin",
          "type": "address"
        }
      ],
      "name": "NewPendingAdmin",
      "type": "event"
    },
    {
      "anonymous": false,
      "inputs": [
        {
          "indexed": false,
          "internalType": "uint256",
          "name": "newValue",
          "type": "uint256"
        },
        {
          "indexed": false,
          "internalType": "uint256",
          "name": "oldValue",
          "type": "uint256"
        }
      ],
      "name": "QuestFeeChanged",
      "type": "event"
    },
    {
      "anonymous": false,
      "inputs": [
        {
          "indexed": false,
          "internalType": "address",
          "name": "quest",
          "type": "address"
        }
      ],
      "name": "QuestTypeAdded",
      "type": "event"
    },
    {
      "inputs": [],
      "name": "DFKQuest",
      "outputs": [
        {
          "internalType": "address",
          "name": "",
          "type": "address"
        }
      ],
      "stateMutability": "view",
      "type": "function"
    },
    {
      "inputs": [],
      "name": "JEWEL",
      "outputs": [
        {
          "internalType": "contract IERC20",
          "name": "",
          "type": "address"
        }
      ],
      "stateMutability": "view",
      "type": "function"
    },
    {
      "inputs": [],
      "name": "acceptAdmin",
      "outputs": [],
      "stateMutability": "nonpayable",
      "type": "function"
    },
    {
      "inputs": [],
      "name": "accountFactory",
      "outputs": [
        {
          "internalType": "address",
          "name": "",
          "type": "address"
        }
      ],
      "stateMutability": "view",
      "type": "function"
    },
    {
      "inputs": [
        {
          "internalType": "address",
          "name": "_operator",
          "type": "address"
        }
      ],
      "name": "addOperator",
      "outputs": [],
      "stateMutability": "nonpayable",
      "type": "function"
    },
    {
      "inputs": [
        {
          "internalType": "address",
          "name": "_quest",
          "type": "address"
        }
      ],
      "name": "addQuestType",
      "outputs": [],
      "stateMutability": "nonpayable",
      "type": "function"
    },
    {
      "inputs": [],
      "name": "admin",
      "outputs": [
        {
          "internalType": "address",
          "name": "",
          "type": "address"
        }
      ],
      "stateMutability": "view",
      "type": "function"
    },
    {
      "inputs": [
        {
          "internalType": "address[]",
          "name": "_erc20Tokens",
          "type": "address[]"
        },
        {
          "internalType": "uint256[]",
          "name": "_amounts",
          "type": "uint256[]"
        }
      ],
      "name": "batchWithdrawalERC20Tokens",
      "outputs": [],
      "stateMutability": "nonpayable",
      "type": "function"
    },
    {
      "inputs": [
        {
          "internalType": "address",
          "name": "_erc721Token",
          "type": "address"
        },
        {
          "internalType": "uint256[]",
          "name": "_tokenIds",
          "type": "uint256[]"
        }
      ],
      "name": "batchWithdrawalERC721Tokens",
      "outputs": [],
      "stateMutability": "nonpayable",
      "type": "function"
    },
    {
      "inputs": [
        {
          "internalType": "address",
          "name": "_account",
          "type": "address"
        },
        {
          "internalType": "uint256",
          "name": "_heroId",
          "type": "uint256"
        }
      ],
      "name": "cancelQuest",
      "outputs": [],
      "stateMutability": "nonpayable",
      "type": "function"
    },
    {
      "inputs": [
        {
          "internalType": "address",
          "name": "_account",
          "type": "address"
        },
        {
          "internalType": "uint256",
          "name": "_heroId",
          "type": "uint256"
        }
      ],
      "name": "completeQuest",
      "outputs": [],
      "stateMutability": "nonpayable",
      "type": "function"
    },
    {
      "inputs": [],
      "name": "extraFeeRate",
      "outputs": [
        {
          "internalType": "uint256",
          "name": "",
          "type": "uint256"
        }
      ],
      "stateMutability": "view",
      "type": "function"
    },
    {
      "inputs": [],
      "name": "extraFeeThreshold",
      "outputs": [
        {
          "internalType": "uint256",
          "name": "",
          "type": "uint256"
        }
      ],
      "stateMutability": "view",
      "type": "function"
    },
    {
      "inputs": [
        {
          "internalType": "address",
          "name": "user",
          "type": "address"
        }
      ],
      "name": "getAccount",
      "outputs": [
        {
          "internalType": "address",
          "name": "",
          "type": "address"
        }
      ],
      "stateMutability": "view",
      "type": "function"
    },
    {
      "inputs": [],
      "name": "getOperators",
      "outputs": [
        {
          "internalType": "address[]",
          "name": "",
          "type": "address[]"
        }
      ],
      "stateMutability": "view",
      "type": "function"
    },
    {
      "inputs": [
        {
          "internalType": "address",
          "name": "user",
          "type": "address"
        }
      ],
      "name": "hasAccount",
      "outputs": [
        {
          "internalType": "bool",
          "name": "",
          "type": "bool"
        }
      ],
      "stateMutability": "view",
      "type": "function"
    },
    {
      "inputs": [],
      "name": "pendingAdmin",
      "outputs": [
        {
          "internalType": "address",
          "name": "",
          "type": "address"
        }
      ],
      "stateMutability": "view",
      "type": "function"
    },
    {
      "inputs": [
        {
          "internalType": "address",
          "name": "_operator",
          "type": "address"
        }
      ],
      "name": "removeOperator",
      "outputs": [],
      "stateMutability": "nonpayable",
      "type": "function"
    },
    {
      "inputs": [
        {
          "internalType": "address[]",
          "name": "_items",
          "type": "address[]"
        },
        {
          "internalType": "uint256[]",
          "name": "_amounts",
          "type": "uint256[]"
        }
      ],
      "name": "sellToVender",
      "outputs": [],
      "stateMutability": "nonpayable",
      "type": "function"
    },
    {
      "inputs": [
        {
          "internalType": "uint256",
          "name": "_extraFeeRate",
          "type": "uint256"
        }
      ],
      "name": "setExtraFeeRate",
      "outputs": [],
      "stateMutability": "nonpayable",
      "type": "function"
    },
    {
      "inputs": [
        {
          "internalType": "uint256",
          "name": "_extraFeeThreshold",
          "type": "uint256"
        }
      ],
      "name": "setExtraFeeThreshold",
      "outputs": [],
      "stateMutability": "nonpayable",
      "type": "function"
    },
    {
      "inputs": [
        {
          "internalType": "uint256",
          "name": "_feePerHero",
          "type": "uint256"
        }
      ],
      "name": "setFeePerHero",
      "outputs": [],
      "stateMutability": "nonpayable",
      "type": "function"
    },
    {
      "inputs": [
        {
          "internalType": "address",
          "name": "_newPendingAdmin",
          "type": "address"
        }
      ],
      "name": "setPendingAdmin",
      "outputs": [],
      "stateMutability": "nonpayable",
      "type": "function"
    },
    {
      "inputs": [
        {
          "internalType": "address",
          "name": "_account",
          "type": "address"
        },
        {
          "internalType": "uint256[]",
          "name": "_heroIds",
          "type": "uint256[]"
        },
        {
          "internalType": "address",
          "name": "_quest",
          "type": "address"
        },
        {
          "internalType": "uint8",
          "name": "_attempts",
          "type": "uint8"
        }
      ],
      "name": "startQuest",
      "outputs": [],
      "stateMutability": "nonpayable",
      "type": "function"
    },
    {
      "inputs": [
        {
          "internalType": "address",
          "name": "_account",
          "type": "address"
        },
        {
          "internalType": "uint256[]",
          "name": "_heroIds",
          "type": "uint256[]"
        },
        {
          "internalType": "address",
          "name": "_quest",
          "type": "address"
        },
        {
          "internalType": "uint8",
          "name": "_attempts",
          "type": "uint8"
        },
        {
          "components": [
            {
              "internalType": "uint256",
              "name": "uint1",
              "type": "uint256"
            },
            {
              "internalType": "uint256",
              "name": "uint2",
              "type": "uint256"
            },
            {
              "internalType": "uint256",
              "name": "uint3",
              "type": "uint256"
            },
            {
              "internalType": "uint256",
              "name": "uint4",
              "type": "uint256"
            },
            {
              "internalType": "int256",
              "name": "int1",
              "type": "int256"
            },
            {
              "internalType": "int256",
              "name": "int2",
              "type": "int256"
            },
            {
              "internalType": "string",
              "name": "string1",
              "type": "string"
            },
            {
              "internalType": "string",
              "name": "string2",
              "type": "string"
            },
            {
              "internalType": "address",
              "name": "address1",
              "type": "address"
            },
            {
              "internalType": "address",
              "name": "address2",
              "type": "address"
            },
            {
              "internalType": "address",
              "name": "address3",
              "type": "address"
            },
            {
              "internalType": "address",
              "name": "address4",
              "type": "address"
            }
          ],
          "internalType": "struct DFKEarnQuest.QuestData",
          "name": "_questData",
          "type": "tuple"
        }
      ],
      "name": "startQuestWithData",
      "outputs": [],
      "stateMutability": "nonpayable",
      "type": "function"
    },
    {
      "inputs": [
        {
          "internalType": "address",
          "name": "",
          "type": "address"
        }
      ],
      "name": "supportedQuest",
      "outputs": [
        {
          "internalType": "bool",
          "name": "",
          "type": "bool"
        }
      ],
      "stateMutability": "view",
      "type": "function"
    },
    {
      "inputs": [
        {
          "internalType": "address",
          "name": "user",
          "type": "address"
        }
      ],
      "name": "tryGetAccount",
      "outputs": [
        {
          "internalType": "address",
          "name": "",
          "type": "address"
        }
      ],
      "stateMutability": "view",
      "type": "function"
    },
    {
      "inputs": [
        {
          "internalType": "uint256",
          "name": "_amount",
          "type": "uint256"
        }
      ],
      "name": "withdrawalNativeToken",
      "outputs": [],
      "stateMutability": "nonpayable",
      "type": "function"
    }
  ],
  "transactionHash": "0xa6e6d379a1a916d2c67f0a564d993abbf9c1776ce3ddf17092ca8a34e2251a2f",
  "args": [
    "0x26B1029bD0bEEb31F2F5da74d2dd19fAC92b85Cc",
    "0x5100Bd31b822371108A0f63DCFb6594b9919Eaf4",
    "0x72Cb10C6bfA5624dD07Ef608027E366bd690048F"
  ],
  "numDeployments": 1,
  "solcInputHash": "35bd8e0ff71a43f5bb2b479f8778ff22",
  "bytecode": "0x60e06040526701aa535d3d0c00006005556703782dace9d9000060065560fa6007553480156200002e57600080fd5b506040516200438b3803806200438b8339818101604052810190620000549190620001b7565b82336000806101000a81548173ffffffffffffffffffffffffffffffffffffffff021916908373ffffffffffffffffffffffffffffffffffffffff1602179055507ff9ffabca9c8276e99321725bcb43fb076a6c66a54b7f21c4e8146d8519b417dc60008054906101000a900473ffffffffffffffffffffffffffffffffffffffff166000604051620000e99291906200021e565b60405180910390a18073ffffffffffffffffffffffffffffffffffffffff1660808173ffffffffffffffffffffffffffffffffffffffff1660601b81525050508173ffffffffffffffffffffffffffffffffffffffff1660a08173ffffffffffffffffffffffffffffffffffffffff1660601b815250508073ffffffffffffffffffffffffffffffffffffffff1660c08173ffffffffffffffffffffffffffffffffffffffff1660601b8152505050505062000299565b600081519050620001b1816200027f565b92915050565b600080600060608486031215620001cd57600080fd5b6000620001dd86828701620001a0565b9350506020620001f086828701620001a0565b92505060406200020386828701620001a0565b9150509250925092565b62000218816200024b565b82525050565b60006040820190506200023560008301856200020d565b6200024460208301846200020d565b9392505050565b600062000258826200025f565b9050919050565b600073ffffffffffffffffffffffffffffffffffffffff82169050919050565b6200028a816200024b565b81146200029657600080fd5b50565b60805160601c60a05160601c60c05160601c6140816200030a60003960008181611565015281816122ae0152818161249b015261259a015260008181610997015281816117cb01528181611fca015281816123750152612853015260008181610878015261154101526140816000f3fe608060405234801561001057600080fd5b50600436106101c45760003560e01c80637a5cadd0116100f9578063c8e40fbf11610097578063eba53f7d11610071578063eba53f7d146104a1578063f243fbff146104bd578063f851a440146104d9578063fbcbc0f1146104f7576101c4565b8063c8e40fbf14610425578063d671b45914610455578063d95780c714610471576101c4565b8063ac8a584a116100d3578063ac8a584a146103b3578063b3835447146103cf578063b8de0547146103eb578063b90adda214610409576101c4565b80637a5cadd01461035f57806388fd6cbd1461037b5780639870d7fe14610397576101c4565b80632bdef6bf116101665780633760da5a116101405780633760da5a146102eb5780634dd18bf514610307578063687cd9c1146103235780636ff6890c14610341576101c4565b80632bdef6bf146102935780632eaa6053146102b1578063333ffea1146102cd576101c4565b80631f77a06a116101a25780631f77a06a1461021f578063242ced8f1461023b578063267822471461025757806327a099d814610275576101c4565b80630e18b681146101c95780631ba61179146101d35780631cc1b0e1146101ef575b600080fd5b6101d1610527565b005b6101ed60048036038101906101e89190613251565b610799565b005b61020960048036038101906102049190612f8b565b610874565b6040516102169190613708565b60405180910390f35b6102396004803603810190610234919061315f565b610926565b005b61025560048036038101906102509190613251565b610abd565b005b61025f610b55565b60405161026c9190613708565b60405180910390f35b61027d610b7b565b60405161028a9190613805565b60405180910390f35b61029b610cac565b6040516102a89190613a12565b60405180910390f35b6102cb60048036038101906102c69190612fdd565b610cb2565b005b6102d5610f85565b6040516102e29190613a12565b60405180910390f35b6103056004803603810190610300919061319b565b610f8b565b005b610321600480360381019061031c9190612f8b565b6112cc565b005b61032b61153f565b6040516103389190613708565b60405180910390f35b610349611563565b60405161035691906138d7565b60405180910390f35b61037960048036038101906103749190613251565b611587565b005b610395600480360381019061039091906130b5565b61165f565b005b6103b160048036038101906103ac9190612f8b565b61198b565b005b6103cd60048036038101906103c89190612f8b565b611a31565b005b6103e960048036038101906103e4919061319b565b611ad7565b005b6103f3611fc8565b6040516104009190613708565b60405180910390f35b610423600480360381019061041e9190612f8b565b611fec565b005b61043f600480360381019061043a9190612f8b565b61215e565b60405161044c91906138bc565b60405180910390f35b61046f600480360381019061046a9190613251565b61219f565b005b61048b60048036038101906104869190612f8b565b612237565b60405161049891906138bc565b60405180910390f35b6104bb60048036038101906104b6919061315f565b612257565b005b6104d760048036038101906104d29190613035565b6126e7565b005b6104e1612a10565b6040516104ee9190613708565b60405180910390f35b610511600480360381019061050c9190612f8b565b612a34565b60405161051e9190613708565b60405180910390f35b600160009054906101000a900473ffffffffffffffffffffffffffffffffffffffff1673ffffffffffffffffffffffffffffffffffffffff163373ffffffffffffffffffffffffffffffffffffffff161480156105b15750600073ffffffffffffffffffffffffffffffffffffffff163373ffffffffffffffffffffffffffffffffffffffff1614155b6105f0576040517f08c379a00000000000000000000000000000000000000000000000000000000081526004016105e7906139d2565b60405180910390fd5b60008060009054906101000a900473ffffffffffffffffffffffffffffffffffffffff1690506000600160009054906101000a900473ffffffffffffffffffffffffffffffffffffffff169050600160009054906101000a900473ffffffffffffffffffffffffffffffffffffffff166000806101000a81548173ffffffffffffffffffffffffffffffffffffffff021916908373ffffffffffffffffffffffffffffffffffffffff1602179055506000600160006101000a81548173ffffffffffffffffffffffffffffffffffffffff021916908373ffffffffffffffffffffffffffffffffffffffff1602179055507ff9ffabca9c8276e99321725bcb43fb076a6c66a54b7f21c4e8146d8519b417dc60008054906101000a900473ffffffffffffffffffffffffffffffffffffffff168360405161073292919061374c565b60405180910390a17fca4f2f25d0898edd99413412fb94012f9e54ec8142f9b093e7720646a95b16a9600160009054906101000a900473ffffffffffffffffffffffffffffffffffffffff168260405161078d92919061374c565b60405180910390a15050565b60008054906101000a900473ffffffffffffffffffffffffffffffffffffffff1673ffffffffffffffffffffffffffffffffffffffff163373ffffffffffffffffffffffffffffffffffffffff1614610827576040517f08c379a000000000000000000000000000000000000000000000000000000000815260040161081e906138f2565b60405180910390fd5b60006005549050816005819055507f95ed68237a6a1d4200ec409bb080ba6295f2a426346b3d475f4bf3a412cc30be60055482604051610868929190613a2d565b60405180910390a15050565b60007f000000000000000000000000000000000000000000000000000000000000000073ffffffffffffffffffffffffffffffffffffffff16635e5c06e2836040518263ffffffff1660e01b81526004016108cf9190613708565b60206040518083038186803b1580156108e757600080fd5b505afa1580156108fb573d6000803e3d6000fd5b505050506040513d601f19601f8201168201806040525081019061091f9190612fb4565b9050919050565b61093a336002612abb90919063ffffffff16565b610979576040517f08c379a000000000000000000000000000000000000000000000000000000000815260040161097090613992565b60405180910390fd5b8173ffffffffffffffffffffffffffffffffffffffff1663a0b5ffb07f0000000000000000000000000000000000000000000000000000000000000000836040516024016109c79190613a12565b6040516020818303038152906040527ffe90ff7d000000000000000000000000000000000000000000000000000000007bffffffffffffffffffffffffffffffffffffffffffffffffffffffff19166020820180517bffffffffffffffffffffffffffffffffffffffffffffffffffffffff83818316178352505050506040518363ffffffff1660e01b8152600401610a619291906137ac565b600060405180830381600087803b158015610a7b57600080fd5b505af1158015610a8f573d6000803e3d6000fd5b505050506040513d6000823e3d601f19601f82011682018060405250810190610ab89190613210565b505050565b60008054906101000a900473ffffffffffffffffffffffffffffffffffffffff1673ffffffffffffffffffffffffffffffffffffffff163373ffffffffffffffffffffffffffffffffffffffff1614610b4b576040517f08c379a0000000000000000000000000000000000000000000000000000000008152600401610b42906138f2565b60405180910390fd5b8060068190555050565b600160009054906101000a900473ffffffffffffffffffffffffffffffffffffffff1681565b60606000610b896002612aeb565b905060008167ffffffffffffffff811115610bcd577f4e487b7100000000000000000000000000000000000000000000000000000000600052604160045260246000fd5b604051908082528060200260200182016040528015610bfb5781602001602082028036833780820191505090505b50905060005b82811015610ca357610c1d816002612b0090919063ffffffff16565b828281518110610c56577f4e487b7100000000000000000000000000000000000000000000000000000000600052603260045260246000fd5b602002602001019073ffffffffffffffffffffffffffffffffffffffff16908173ffffffffffffffffffffffffffffffffffffffff16815250508080610c9b90613d97565b915050610c01565b50809250505090565b60075481565b6000610cbd33612a34565b905060005b83839050811015610f7e5760008573ffffffffffffffffffffffffffffffffffffffff16636352211e868685818110610d24577f4e487b7100000000000000000000000000000000000000000000000000000000600052603260045260246000fd5b905060200201356040518263ffffffff1660e01b8152600401610d479190613a12565b60206040518083038186803b158015610d5f57600080fd5b505afa158015610d73573d6000803e3d6000fd5b505050506040513d601f19601f82011682018060405250810190610d979190612fb4565b90508273ffffffffffffffffffffffffffffffffffffffff168173ffffffffffffffffffffffffffffffffffffffff1614610e07576040517f08c379a0000000000000000000000000000000000000000000000000000000008152600401610dfe906139f2565b60405180910390fd5b8273ffffffffffffffffffffffffffffffffffffffff1663a0b5ffb0878533898988818110610e5f577f4e487b7100000000000000000000000000000000000000000000000000000000600052603260045260246000fd5b90506020020135604051602401610e7893929190613775565b6040516020818303038152906040527f42842e0e000000000000000000000000000000000000000000000000000000007bffffffffffffffffffffffffffffffffffffffffffffffffffffffff19166020820180517bffffffffffffffffffffffffffffffffffffffffffffffffffffffff83818316178352505050506040518363ffffffff1660e01b8152600401610f129291906137ac565b600060405180830381600087803b158015610f2c57600080fd5b505af1158015610f40573d6000803e3d6000fd5b505050506040513d6000823e3d601f19601f82011682018060405250810190610f699190613210565b50508080610f7690613d97565b915050610cc2565b5050505050565b60065481565b6000610f9633612a34565b905060005b858590508110156112c4576000868683818110610fe1577f4e487b7100000000000000000000000000000000000000000000000000000000600052603260045260246000fd5b9050602002016020810190610ff69190612f8b565b73ffffffffffffffffffffffffffffffffffffffff166370a08231846040518263ffffffff1660e01b815260040161102e9190613708565b60206040518083038186803b15801561104657600080fd5b505afa15801561105a573d6000803e3d6000fd5b505050506040513d601f19601f8201168201806040525081019061107e919061327a565b9050808585848181106110ba577f4e487b7100000000000000000000000000000000000000000000000000000000600052603260045260246000fd5b905060200201351115611102576040517f08c379a00000000000000000000000000000000000000000000000000000000081526004016110f9906139b2565b60405180910390fd5b8273ffffffffffffffffffffffffffffffffffffffff1663a0b5ffb0888885818110611157577f4e487b7100000000000000000000000000000000000000000000000000000000600052603260045260246000fd5b905060200201602081019061116c9190612f8b565b338888878181106111a6577f4e487b7100000000000000000000000000000000000000000000000000000000600052603260045260246000fd5b905060200201356040516024016111be9291906137dc565b6040516020818303038152906040527fa9059cbb000000000000000000000000000000000000000000000000000000007bffffffffffffffffffffffffffffffffffffffffffffffffffffffff19166020820180517bffffffffffffffffffffffffffffffffffffffffffffffffffffffff83818316178352505050506040518363ffffffff1660e01b81526004016112589291906137ac565b600060405180830381600087803b15801561127257600080fd5b505af1158015611286573d6000803e3d6000fd5b505050506040513d6000823e3d601f19601f820116820180604052508101906112af9190613210565b505080806112bc90613d97565b915050610f9b565b505050505050565b60008054906101000a900473ffffffffffffffffffffffffffffffffffffffff1673ffffffffffffffffffffffffffffffffffffffff163373ffffffffffffffffffffffffffffffffffffffff161461135a576040517f08c379a0000000000000000000000000000000000000000000000000000000008152600401611351906138f2565b60405180910390fd5b60008054906101000a900473ffffffffffffffffffffffffffffffffffffffff1673ffffffffffffffffffffffffffffffffffffffff168173ffffffffffffffffffffffffffffffffffffffff16141580156113e35750600073ffffffffffffffffffffffffffffffffffffffff168173ffffffffffffffffffffffffffffffffffffffff1614155b611422576040517f08c379a000000000000000000000000000000000000000000000000000000000815260040161141990613932565b60405180910390fd5b8073ffffffffffffffffffffffffffffffffffffffff16600160009054906101000a900473ffffffffffffffffffffffffffffffffffffffff1673ffffffffffffffffffffffffffffffffffffffff161461153c576000600160009054906101000a900473ffffffffffffffffffffffffffffffffffffffff16905081600160006101000a81548173ffffffffffffffffffffffffffffffffffffffff021916908373ffffffffffffffffffffffffffffffffffffffff1602179055507fca4f2f25d0898edd99413412fb94012f9e54ec8142f9b093e7720646a95b16a9600160009054906101000a900473ffffffffffffffffffffffffffffffffffffffff168260405161153292919061374c565b60405180910390a1505b50565b7f000000000000000000000000000000000000000000000000000000000000000081565b7f000000000000000000000000000000000000000000000000000000000000000081565b600061159233612a34565b90508073ffffffffffffffffffffffffffffffffffffffff16318211156115ee576040517f08c379a00000000000000000000000000000000000000000000000000000000081526004016115e5906139b2565b60405180910390fd5b8073ffffffffffffffffffffffffffffffffffffffff166324a084df33846040518363ffffffff1660e01b8152600401611629929190613723565b600060405180830381600087803b15801561164357600080fd5b505af1158015611657573d6000803e3d6000fd5b505050505050565b611673336002612abb90919063ffffffff16565b6116b2576040517f08c379a00000000000000000000000000000000000000000000000000000000081526004016116a990613992565b60405180910390fd5b6000600554868690506116c59190613c01565b9050808773ffffffffffffffffffffffffffffffffffffffff16311015611721576040517f08c379a000000000000000000000000000000000000000000000000000000000815260040161171890613912565b60405180910390fd5b600460008573ffffffffffffffffffffffffffffffffffffffff1673ffffffffffffffffffffffffffffffffffffffff16815260200190815260200160002060009054906101000a900460ff166117ad576040517f08c379a00000000000000000000000000000000000000000000000000000000081526004016117a490613952565b60405180910390fd5b8673ffffffffffffffffffffffffffffffffffffffff1663a0b5ffb07f00000000000000000000000000000000000000000000000000000000000000008888888888604051602401611803959493929190613867565b6040516020818303038152906040527ff51333f5000000000000000000000000000000000000000000000000000000007bffffffffffffffffffffffffffffffffffffffffffffffffffffffff19166020820180517bffffffffffffffffffffffffffffffffffffffffffffffffffffffff83818316178352505050506040518363ffffffff1660e01b815260040161189d9291906137ac565b600060405180830381600087803b1580156118b757600080fd5b505af11580156118cb573d6000803e3d6000fd5b505050506040513d6000823e3d601f19601f820116820180604052508101906118f49190613210565b508673ffffffffffffffffffffffffffffffffffffffff166324a084df60008054906101000a900473ffffffffffffffffffffffffffffffffffffffff16836040518363ffffffff1660e01b8152600401611950929190613723565b600060405180830381600087803b15801561196a57600080fd5b505af115801561197e573d6000803e3d6000fd5b5050505050505050505050565b60008054906101000a900473ffffffffffffffffffffffffffffffffffffffff1673ffffffffffffffffffffffffffffffffffffffff163373ffffffffffffffffffffffffffffffffffffffff1614611a19576040517f08c379a0000000000000000000000000000000000000000000000000000000008152600401611a10906138f2565b60405180910390fd5b611a2d816002612b1a90919063ffffffff16565b5050565b60008054906101000a900473ffffffffffffffffffffffffffffffffffffffff1673ffffffffffffffffffffffffffffffffffffffff163373ffffffffffffffffffffffffffffffffffffffff1614611abf576040517f08c379a0000000000000000000000000000000000000000000000000000000008152600401611ab6906138f2565b60405180910390fd5b611ad3816002612b4a90919063ffffffff16565b5050565b600073e53bf78f8b99b6d356f93f41afb9951168cca2c690506000611afb33612a34565b905060005b86869050811015611fbf576000878783818110611b46577f4e487b7100000000000000000000000000000000000000000000000000000000600052603260045260246000fd5b9050602002016020810190611b5b9190612f8b565b73ffffffffffffffffffffffffffffffffffffffff166370a08231846040518263ffffffff1660e01b8152600401611b939190613708565b60206040518083038186803b158015611bab57600080fd5b505afa158015611bbf573d6000803e3d6000fd5b505050506040513d601f19601f82011682018060405250810190611be3919061327a565b905080868684818110611c1f577f4e487b7100000000000000000000000000000000000000000000000000000000600052603260045260246000fd5b905060200201351115611c67576040517f08c379a0000000000000000000000000000000000000000000000000000000008152600401611c5e906139b2565b60405180910390fd5b8273ffffffffffffffffffffffffffffffffffffffff1663a0b5ffb0898985818110611cbc577f4e487b7100000000000000000000000000000000000000000000000000000000600052603260045260246000fd5b9050602002016020810190611cd19190612f8b565b86898987818110611d0b577f4e487b7100000000000000000000000000000000000000000000000000000000600052603260045260246000fd5b90506020020135604051602401611d239291906137dc565b6040516020818303038152906040527f095ea7b3000000000000000000000000000000000000000000000000000000007bffffffffffffffffffffffffffffffffffffffffffffffffffffffff19166020820180517bffffffffffffffffffffffffffffffffffffffffffffffffffffffff83818316178352505050506040518363ffffffff1660e01b8152600401611dbd9291906137ac565b600060405180830381600087803b158015611dd757600080fd5b505af1158015611deb573d6000803e3d6000fd5b505050506040513d6000823e3d601f19601f82011682018060405250810190611e149190613210565b508273ffffffffffffffffffffffffffffffffffffffff1663a0b5ffb08563096c5e1a60e01b8b8b87818110611e73577f4e487b7100000000000000000000000000000000000000000000000000000000600052603260045260246000fd5b9050602002016020810190611e889190612f8b565b8a8a88818110611ec1577f4e487b7100000000000000000000000000000000000000000000000000000000600052603260045260246000fd5b90506020020135604051602401611ed99291906137dc565b604051602081830303815290604052907bffffffffffffffffffffffffffffffffffffffffffffffffffffffff19166020820180517bffffffffffffffffffffffffffffffffffffffffffffffffffffffff83818316178352505050506040518363ffffffff1660e01b8152600401611f539291906137ac565b600060405180830381600087803b158015611f6d57600080fd5b505af1158015611f81573d6000803e3d6000fd5b505050506040513d6000823e3d601f19601f82011682018060405250810190611faa9190613210565b50508080611fb790613d97565b915050611b00565b50505050505050565b7f000000000000000000000000000000000000000000000000000000000000000081565b60008054906101000a900473ffffffffffffffffffffffffffffffffffffffff1673ffffffffffffffffffffffffffffffffffffffff163373ffffffffffffffffffffffffffffffffffffffff161461207a576040517f08c379a0000000000000000000000000000000000000000000000000000000008152600401612071906138f2565b60405180910390fd5b600460008273ffffffffffffffffffffffffffffffffffffffff1673ffffffffffffffffffffffffffffffffffffffff16815260200190815260200160002060009054906101000a900460ff1661215b576001600460008373ffffffffffffffffffffffffffffffffffffffff1673ffffffffffffffffffffffffffffffffffffffff16815260200190815260200160002060006101000a81548160ff0219169083151502179055507f649d4d5c4dd44bed2446b194d971cd6c8943566eaacb17183e7a734d07d17826816040516121529190613708565b60405180910390a15b50565b60008073ffffffffffffffffffffffffffffffffffffffff1661218083610874565b73ffffffffffffffffffffffffffffffffffffffff1614159050919050565b60008054906101000a900473ffffffffffffffffffffffffffffffffffffffff1673ffffffffffffffffffffffffffffffffffffffff163373ffffffffffffffffffffffffffffffffffffffff161461222d576040517f08c379a0000000000000000000000000000000000000000000000000000000008152600401612224906138f2565b60405180910390fd5b8060078190555050565b60046020528060005260406000206000915054906101000a900460ff1681565b61226b336002612abb90919063ffffffff16565b6122aa576040517f08c379a00000000000000000000000000000000000000000000000000000000081526004016122a190613992565b60405180910390fd5b60007f000000000000000000000000000000000000000000000000000000000000000073ffffffffffffffffffffffffffffffffffffffff166370a08231846040518263ffffffff1660e01b81526004016123059190613708565b60206040518083038186803b15801561231d57600080fd5b505afa158015612331573d6000803e3d6000fd5b505050506040513d601f19601f82011682018060405250810190612355919061327a565b90508273ffffffffffffffffffffffffffffffffffffffff1663a0b5ffb07f0000000000000000000000000000000000000000000000000000000000000000846040516024016123a59190613a12565b6040516020818303038152906040527f528be0a9000000000000000000000000000000000000000000000000000000007bffffffffffffffffffffffffffffffffffffffffffffffffffffffff19166020820180517bffffffffffffffffffffffffffffffffffffffffffffffffffffffff83818316178352505050506040518363ffffffff1660e01b815260040161243f9291906137ac565b600060405180830381600087803b15801561245957600080fd5b505af115801561246d573d6000803e3d6000fd5b505050506040513d6000823e3d601f19601f820116820180604052508101906124969190613210565b5060007f000000000000000000000000000000000000000000000000000000000000000073ffffffffffffffffffffffffffffffffffffffff166370a08231856040518263ffffffff1660e01b81526004016124f29190613708565b60206040518083038186803b15801561250a57600080fd5b505afa15801561251e573d6000803e3d6000fd5b505050506040513d601f19601f82011682018060405250810190612542919061327a565b9050600082826125529190613c5b565b905060065481106126e0576000612710600754836125709190613c01565b61257a9190613bd0565b90508573ffffffffffffffffffffffffffffffffffffffff1663a0b5ffb07f000000000000000000000000000000000000000000000000000000000000000060008054906101000a900473ffffffffffffffffffffffffffffffffffffffff16846040516024016125ec9291906137dc565b6040516020818303038152906040527fa9059cbb000000000000000000000000000000000000000000000000000000007bffffffffffffffffffffffffffffffffffffffffffffffffffffffff19166020820180517bffffffffffffffffffffffffffffffffffffffffffffffffffffffff83818316178352505050506040518363ffffffff1660e01b81526004016126869291906137ac565b600060405180830381600087803b1580156126a057600080fd5b505af11580156126b4573d6000803e3d6000fd5b505050506040513d6000823e3d601f19601f820116820180604052508101906126dd9190613210565b50505b5050505050565b6126fb336002612abb90919063ffffffff16565b61273a576040517f08c379a000000000000000000000000000000000000000000000000000000000815260040161273190613992565b60405180910390fd5b60006005548585905061274d9190613c01565b9050808673ffffffffffffffffffffffffffffffffffffffff163110156127a9576040517f08c379a00000000000000000000000000000000000000000000000000000000081526004016127a090613912565b60405180910390fd5b600460008473ffffffffffffffffffffffffffffffffffffffff1673ffffffffffffffffffffffffffffffffffffffff16815260200190815260200160002060009054906101000a900460ff16612835576040517f08c379a000000000000000000000000000000000000000000000000000000000815260040161282c90613952565b60405180910390fd5b8573ffffffffffffffffffffffffffffffffffffffff1663a0b5ffb07f0000000000000000000000000000000000000000000000000000000000000000878787876040516024016128899493929190613827565b6040516020818303038152906040527fc855dea3000000000000000000000000000000000000000000000000000000007bffffffffffffffffffffffffffffffffffffffffffffffffffffffff19166020820180517bffffffffffffffffffffffffffffffffffffffffffffffffffffffff83818316178352505050506040518363ffffffff1660e01b81526004016129239291906137ac565b600060405180830381600087803b15801561293d57600080fd5b505af1158015612951573d6000803e3d6000fd5b505050506040513d6000823e3d601f19601f8201168201806040525081019061297a9190613210565b508573ffffffffffffffffffffffffffffffffffffffff166324a084df60008054906101000a900473ffffffffffffffffffffffffffffffffffffffff16836040518363ffffffff1660e01b81526004016129d6929190613723565b600060405180830381600087803b1580156129f057600080fd5b505af1158015612a04573d6000803e3d6000fd5b50505050505050505050565b60008054906101000a900473ffffffffffffffffffffffffffffffffffffffff1681565b600080612a4083610874565b9050600073ffffffffffffffffffffffffffffffffffffffff168173ffffffffffffffffffffffffffffffffffffffff161415612ab2576040517f08c379a0000000000000000000000000000000000000000000000000000000008152600401612aa990613972565b60405180910390fd5b80915050919050565b6000612ae3836000018373ffffffffffffffffffffffffffffffffffffffff1660001b612b7a565b905092915050565b6000612af982600001612b9d565b9050919050565b6000612b0f8360000183612bae565b60001c905092915050565b6000612b42836000018373ffffffffffffffffffffffffffffffffffffffff1660001b612bff565b905092915050565b6000612b72836000018373ffffffffffffffffffffffffffffffffffffffff1660001b612c6f565b905092915050565b600080836001016000848152602001908152602001600020541415905092915050565b600081600001805490509050919050565b6000826000018281548110612bec577f4e487b7100000000000000000000000000000000000000000000000000000000600052603260045260246000fd5b9060005260206000200154905092915050565b6000612c0b8383612b7a565b612c64578260000182908060018154018082558091505060019003906000526020600020016000909190919091505582600001805490508360010160008481526020019081526020016000208190555060019050612c69565b600090505b92915050565b60008083600101600084815260200190815260200160002054905060008114612de9576000600182612ca19190613c5b565b9050600060018660000180549050612cb99190613c5b565b9050818114612d74576000866000018281548110612d00577f4e487b7100000000000000000000000000000000000000000000000000000000600052603260045260246000fd5b9060005260206000200154905080876000018481548110612d4a577f4e487b7100000000000000000000000000000000000000000000000000000000600052603260045260246000fd5b90600052602060002001819055508387600101600083815260200190815260200160002081905550505b85600001805480612dae577f4e487b7100000000000000000000000000000000000000000000000000000000600052603160045260246000fd5b600190038181906000526020600020016000905590558560010160008681526020019081526020016000206000905560019350505050612def565b60009150505b92915050565b6000612e08612e0384613a7b565b613a56565b905082815260208101848484011115612e2057600080fd5b612e2b848285613d33565b509392505050565b600081359050612e4281613fef565b92915050565b600081519050612e5781613fef565b92915050565b60008083601f840112612e6f57600080fd5b8235905067ffffffffffffffff811115612e8857600080fd5b602083019150836020820283011115612ea057600080fd5b9250929050565b60008083601f840112612eb957600080fd5b8235905067ffffffffffffffff811115612ed257600080fd5b602083019150836020820283011115612eea57600080fd5b9250929050565b600082601f830112612f0257600080fd5b8151612f12848260208601612df5565b91505092915050565b600081359050612f2a81614006565b92915050565b60006101808284031215612f4357600080fd5b81905092915050565b600081359050612f5b8161401d565b92915050565b600081519050612f708161401d565b92915050565b600081359050612f8581614034565b92915050565b600060208284031215612f9d57600080fd5b6000612fab84828501612e33565b91505092915050565b600060208284031215612fc657600080fd5b6000612fd484828501612e48565b91505092915050565b600080600060408486031215612ff257600080fd5b600061300086828701612e33565b935050602084013567ffffffffffffffff81111561301d57600080fd5b61302986828701612ea7565b92509250509250925092565b60008060008060006080868803121561304d57600080fd5b600061305b88828901612e33565b955050602086013567ffffffffffffffff81111561307857600080fd5b61308488828901612ea7565b9450945050604061309788828901612e33565b92505060606130a888828901612f76565b9150509295509295909350565b60008060008060008060a087890312156130ce57600080fd5b60006130dc89828a01612e33565b965050602087013567ffffffffffffffff8111156130f957600080fd5b61310589828a01612ea7565b9550955050604061311889828a01612e33565b935050606061312989828a01612f76565b925050608087013567ffffffffffffffff81111561314657600080fd5b61315289828a01612f30565b9150509295509295509295565b6000806040838503121561317257600080fd5b600061318085828601612e33565b925050602061319185828601612f4c565b9150509250929050565b600080600080604085870312156131b157600080fd5b600085013567ffffffffffffffff8111156131cb57600080fd5b6131d787828801612e5d565b9450945050602085013567ffffffffffffffff8111156131f657600080fd5b61320287828801612ea7565b925092505092959194509250565b60006020828403121561322257600080fd5b600082015167ffffffffffffffff81111561323c57600080fd5b61324884828501612ef1565b91505092915050565b60006020828403121561326357600080fd5b600061327184828501612f4c565b91505092915050565b60006020828403121561328c57600080fd5b600061329a84828501612f61565b91505092915050565b60006132af83836132ca565b60208301905092915050565b6132c481613ca1565b82525050565b6132d381613c8f565b82525050565b6132e281613c8f565b82525050565b60006132f382613abc565b6132fd8185613adf565b935061330883613aac565b8060005b8381101561333957815161332088826132a3565b975061332b83613ad2565b92505060018101905061330c565b5085935050505092915050565b60006133528385613af0565b93507f07ffffffffffffffffffffffffffffffffffffffffffffffffffffffffffffff83111561338157600080fd5b602083029250613392838584613d24565b82840190509392505050565b6133a781613cb3565b82525050565b60006133b882613ac7565b6133c28185613b01565b93506133d2818560208601613d33565b6133db81613e6d565b840191505092915050565b6133ef81613d00565b82525050565b6133fe81613cbf565b82525050565b60006134108385613b12565b935061341d838584613d24565b61342683613e6d565b840190509392505050565b600061343e601283613b23565b915061344982613e7e565b602082019050919050565b6000613461601c83613b23565b915061346c82613ea7565b602082019050919050565b6000613484601883613b23565b915061348f82613ed0565b602082019050919050565b60006134a7601a83613b23565b91506134b282613ef9565b602082019050919050565b60006134ca601383613b23565b91506134d582613f22565b602082019050919050565b60006134ed601583613b23565b91506134f882613f4b565b602082019050919050565b6000613510601d83613b23565b915061351b82613f74565b602082019050919050565b6000613533601a83613b23565b915061353e82613f9d565b602082019050919050565b6000613556601283613b23565b915061356182613fc6565b602082019050919050565b600061018083016135806000840184613bb9565b61358d60008601826136db565b5061359b6020840184613bb9565b6135a860208601826136db565b506135b66040840184613bb9565b6135c360408601826136db565b506135d16060840184613bb9565b6135de60608601826136db565b506135ec6080840184613b4b565b6135f960808601826133f5565b5061360760a0840184613b4b565b61361460a08601826133f5565b5061362260c0840184613b62565b85830360c0870152613635838284613404565b9250505061364660e0840184613b62565b85830360e0870152613659838284613404565b9250505061366b610100840184613b34565b6136796101008601826132ca565b50613688610120840184613b34565b6136966101208601826132ca565b506136a5610140840184613b34565b6136b36101408601826132ca565b506136c2610160840184613b34565b6136d06101608601826132ca565b508091505092915050565b6136e481613ce9565b82525050565b6136f381613ce9565b82525050565b61370281613cf3565b82525050565b600060208201905061371d60008301846132d9565b92915050565b600060408201905061373860008301856132bb565b61374560208301846136ea565b9392505050565b600060408201905061376160008301856132d9565b61376e60208301846132d9565b9392505050565b600060608201905061378a60008301866132d9565b61379760208301856132d9565b6137a460408301846136ea565b949350505050565b60006040820190506137c160008301856132d9565b81810360208301526137d381846133ad565b90509392505050565b60006040820190506137f160008301856132d9565b6137fe60208301846136ea565b9392505050565b6000602082019050818103600083015261381f81846132e8565b905092915050565b60006060820190508181036000830152613842818688613346565b905061385160208301856132d9565b61385e60408301846136f9565b95945050505050565b60006080820190508181036000830152613882818789613346565b905061389160208301866132d9565b61389e60408301856136f9565b81810360608301526138b0818461356c565b90509695505050505050565b60006020820190506138d1600083018461339e565b92915050565b60006020820190506138ec60008301846133e6565b92915050565b6000602082019050818103600083015261390b81613431565b9050919050565b6000602082019050818103600083015261392b81613454565b9050919050565b6000602082019050818103600083015261394b81613477565b9050919050565b6000602082019050818103600083015261396b8161349a565b9050919050565b6000602082019050818103600083015261398b816134bd565b9050919050565b600060208201905081810360008301526139ab816134e0565b9050919050565b600060208201905081810360008301526139cb81613503565b9050919050565b600060208201905081810360008301526139eb81613526565b9050919050565b60006020820190508181036000830152613a0b81613549565b9050919050565b6000602082019050613a2760008301846136ea565b92915050565b6000604082019050613a4260008301856136ea565b613a4f60208301846136ea565b9392505050565b6000613a60613a71565b9050613a6c8282613d66565b919050565b6000604051905090565b600067ffffffffffffffff821115613a9657613a95613e3e565b5b613a9f82613e6d565b9050602081019050919050565b6000819050602082019050919050565b600081519050919050565b600081519050919050565b6000602082019050919050565b600082825260208201905092915050565b600082825260208201905092915050565b600082825260208201905092915050565b600082825260208201905092915050565b600082825260208201905092915050565b6000613b436020840184612e33565b905092915050565b6000613b5a6020840184612f1b565b905092915050565b60008083356001602003843603038112613b7b57600080fd5b83810192508235915060208301925067ffffffffffffffff821115613b9f57600080fd5b600182023603841315613bb157600080fd5b509250929050565b6000613bc86020840184612f4c565b905092915050565b6000613bdb82613ce9565b9150613be683613ce9565b925082613bf657613bf5613e0f565b5b828204905092915050565b6000613c0c82613ce9565b9150613c1783613ce9565b9250817fffffffffffffffffffffffffffffffffffffffffffffffffffffffffffffffff0483118215151615613c5057613c4f613de0565b5b828202905092915050565b6000613c6682613ce9565b9150613c7183613ce9565b925082821015613c8457613c83613de0565b5b828203905092915050565b6000613c9a82613cc9565b9050919050565b6000613cac82613cc9565b9050919050565b60008115159050919050565b6000819050919050565b600073ffffffffffffffffffffffffffffffffffffffff82169050919050565b6000819050919050565b600060ff82169050919050565b6000613d0b82613d12565b9050919050565b6000613d1d82613cc9565b9050919050565b82818337600083830152505050565b60005b83811015613d51578082015181840152602081019050613d36565b83811115613d60576000848401525b50505050565b613d6f82613e6d565b810181811067ffffffffffffffff82111715613d8e57613d8d613e3e565b5b80604052505050565b6000613da282613ce9565b91507fffffffffffffffffffffffffffffffffffffffffffffffffffffffffffffffff821415613dd557613dd4613de0565b5b600182019050919050565b7f4e487b7100000000000000000000000000000000000000000000000000000000600052601160045260246000fd5b7f4e487b7100000000000000000000000000000000000000000000000000000000600052601260045260246000fd5b7f4e487b7100000000000000000000000000000000000000000000000000000000600052604160045260246000fd5b6000601f19601f8301169050919050565b7f44464b4561726e3a206e6f742061646d696e0000000000000000000000000000600082015250565b7f44464b4561726e3a20696e737566666963656e742062616c616e636500000000600082015250565b7f44464b4561726e3a20696e76616c696420616464726573730000000000000000600082015250565b7f44464b4561726e3a20756e737570706f72746564207175657374000000000000600082015250565b7f44464b4561726e3a206e6f206163636f756e7400000000000000000000000000600082015250565b7f44464b4561726e3a206e6f74206f70657261746f720000000000000000000000600082015250565b7f44464b4561726e3a20696e73756666696369656e742062616c616e6365000000600082015250565b7f44464b4561726e3a206e6f742070656e64696e672061646d696e000000000000600082015250565b7f44464b4561726e3a206e6f74206f776e65720000000000000000000000000000600082015250565b613ff881613c8f565b811461400357600080fd5b50565b61400f81613cbf565b811461401a57600080fd5b50565b61402681613ce9565b811461403157600080fd5b50565b61403d81613cf3565b811461404857600080fd5b5056fea264697066735822122065305317d70e0049f5a33ff0cec35c2287184e1dfbbd5ede518c5cbf4fe50e0964736f6c63430008040033",
  "devdoc": {
    "kind": "dev",
    "methods": {},
    "version": 1
  },
  "userdoc": {
    "kind": "user",
    "methods": {},
    "version": 1
  },
  "storageLayout": {
    "storage": [
      {
        "astId": 3911,
        "contract": "contracts/dfkearn/DFKEarnQuest.sol:DFKEarnQuest",
        "label": "admin",
        "offset": 0,
        "slot": "0",
        "type": "t_address"
      },
      {
        "astId": 3913,
        "contract": "contracts/dfkearn/DFKEarnQuest.sol:DFKEarnQuest",
        "label": "pendingAdmin",
        "offset": 0,
        "slot": "1",
        "type": "t_address"
      },
      {
        "astId": 4867,
        "contract": "contracts/dfkearn/DFKEarnQuest.sol:DFKEarnQuest",
        "label": "operators",
        "offset": 0,
        "slot": "2",
        "type": "t_struct(AddressSet)3106_storage"
      },
      {
        "astId": 4871,
        "contract": "contracts/dfkearn/DFKEarnQuest.sol:DFKEarnQuest",
        "label": "supportedQuest",
        "offset": 0,
        "slot": "4",
        "type": "t_mapping(t_address,t_bool)"
      },
      {
        "astId": 4874,
        "contract": "contracts/dfkearn/DFKEarnQuest.sol:DFKEarnQuest",
        "label": "feePerHero",
        "offset": 0,
        "slot": "5",
        "type": "t_uint256"
      },
      {
        "astId": 4877,
        "contract": "contracts/dfkearn/DFKEarnQuest.sol:DFKEarnQuest",
        "label": "extraFeeThreshold",
        "offset": 0,
        "slot": "6",
        "type": "t_uint256"
      },
      {
        "astId": 4880,
        "contract": "contracts/dfkearn/DFKEarnQuest.sol:DFKEarnQuest",
        "label": "extraFeeRate",
        "offset": 0,
        "slot": "7",
        "type": "t_uint256"
      }
    ],
    "types": {
      "t_address": {
        "encoding": "inplace",
        "label": "address",
        "numberOfBytes": "20"
      },
      "t_array(t_bytes32)dyn_storage": {
        "base": "t_bytes32",
        "encoding": "dynamic_array",
        "label": "bytes32[]",
        "numberOfBytes": "32"
      },
      "t_bool": {
        "encoding": "inplace",
        "label": "bool",
        "numberOfBytes": "1"
      },
      "t_bytes32": {
        "encoding": "inplace",
        "label": "bytes32",
        "numberOfBytes": "32"
      },
      "t_mapping(t_address,t_bool)": {
        "encoding": "mapping",
        "key": "t_address",
        "label": "mapping(address => bool)",
        "numberOfBytes": "32",
        "value": "t_bool"
      },
      "t_mapping(t_bytes32,t_uint256)": {
        "encoding": "mapping",
        "key": "t_bytes32",
        "label": "mapping(bytes32 => uint256)",
        "numberOfBytes": "32",
        "value": "t_uint256"
      },
      "t_struct(AddressSet)3106_storage": {
        "encoding": "inplace",
        "label": "struct EnumerableSet.AddressSet",
        "members": [
          {
            "astId": 3105,
            "contract": "contracts/dfkearn/DFKEarnQuest.sol:DFKEarnQuest",
            "label": "_inner",
            "offset": 0,
            "slot": "0",
            "type": "t_struct(Set)2805_storage"
          }
        ],
        "numberOfBytes": "64"
      },
      "t_struct(Set)2805_storage": {
        "encoding": "inplace",
        "label": "struct EnumerableSet.Set",
        "members": [
          {
            "astId": 2800,
            "contract": "contracts/dfkearn/DFKEarnQuest.sol:DFKEarnQuest",
            "label": "_values",
            "offset": 0,
            "slot": "0",
            "type": "t_array(t_bytes32)dyn_storage"
          },
          {
            "astId": 2804,
            "contract": "contracts/dfkearn/DFKEarnQuest.sol:DFKEarnQuest",
            "label": "_indexes",
            "offset": 0,
            "slot": "1",
            "type": "t_mapping(t_bytes32,t_uint256)"
          }
        ],
        "numberOfBytes": "64"
      },
      "t_uint256": {
        "encoding": "inplace",
        "label": "uint256",
        "numberOfBytes": "32"
      }
    }
  }
}