{
  "address": "0xE55923577ADB507B2410cFCA12336A15AcDE7c4E",
  "abi": [
    {
      "inputs": [
        {
          "internalType": "uint256",
          "name": "_maxHeroCount",
          "type": "uint256"
        },
        {
          "internalType": "uint256",
          "name": "_minCollateral",
          "type": "uint256"
        },
        {
          "internalType": "address",
          "name": "_auctionHouse",
          "type": "address"
        },
        {
          "internalType": "address",
          "name": "_DFKHero",
          "type": "address"
        }
      ],
      "stateMutability": "nonpayable",
      "type": "constructor"
    },
    {
      "anonymous": false,
      "inputs": [
        {
          "indexed": true,
          "internalType": "address",
          "name": "user",
          "type": "address"
        },
        {
          "indexed": false,
          "internalType": "uint256",
          "name": "userLoans",
          "type": "uint256"
        },
        {
          "indexed": false,
          "internalType": "uint256",
          "name": "totalLoans",
          "type": "uint256"
        }
      ],
      "name": "Claim",
      "type": "event"
    },
    {
      "anonymous": false,
      "inputs": [
        {
          "indexed": false,
          "internalType": "address",
          "name": "sender",
          "type": "address"
        },
        {
          "indexed": false,
          "internalType": "uint256",
          "name": "value",
          "type": "uint256"
        }
      ],
      "name": "CollateralReceived",
      "type": "event"
    },
    {
      "anonymous": false,
      "inputs": [
        {
          "indexed": true,
          "internalType": "address",
          "name": "from",
          "type": "address"
        },
        {
          "indexed": false,
          "internalType": "uint256",
          "name": "tokenId",
          "type": "uint256"
        }
      ],
      "name": "HeroReceived",
      "type": "event"
    },
    {
      "anonymous": false,
      "inputs": [
        {
          "indexed": true,
          "internalType": "address",
          "name": "to",
          "type": "address"
        },
        {
          "indexed": false,
          "internalType": "uint256",
          "name": "tokenId",
          "type": "uint256"
        }
      ],
      "name": "HeroSent",
      "type": "event"
    },
    {
      "anonymous": false,
      "inputs": [
        {
          "indexed": false,
          "internalType": "address",
          "name": "newOperator",
          "type": "address"
        },
        {
          "indexed": false,
          "internalType": "address",
          "name": "oldOperator",
          "type": "address"
        }
      ],
      "name": "OperatorChanged",
      "type": "event"
    },
    {
      "anonymous": false,
      "inputs": [
        {
          "indexed": true,
          "internalType": "address",
          "name": "previousOwner",
          "type": "address"
        },
        {
          "indexed": true,
          "internalType": "address",
          "name": "newOwner",
          "type": "address"
        }
      ],
      "name": "OwnershipTransferred",
      "type": "event"
    },
    {
      "anonymous": false,
      "inputs": [
        {
          "indexed": false,
          "internalType": "address",
          "name": "account",
          "type": "address"
        }
      ],
      "name": "Paused",
      "type": "event"
    },
    {
      "anonymous": false,
      "inputs": [
        {
          "indexed": false,
          "internalType": "address",
          "name": "account",
          "type": "address"
        }
      ],
      "name": "Unpaused",
      "type": "event"
    },
    {
      "inputs": [],
      "name": "BORROW_LIMIT",
      "outputs": [
        {
          "internalType": "uint256",
          "name": "",
          "type": "uint256"
        }
      ],
      "stateMutability": "view",
      "type": "function"
    },
    {
      "inputs": [],
      "name": "DFKHero",
      "outputs": [
        {
          "internalType": "address",
          "name": "",
          "type": "address"
        }
      ],
      "stateMutability": "view",
      "type": "function"
    },
    {
      "inputs": [],
      "name": "MIN_COLLATERAL",
      "outputs": [
        {
          "internalType": "uint256",
          "name": "",
          "type": "uint256"
        }
      ],
      "stateMutability": "view",
      "type": "function"
    },
    {
      "inputs": [
        {
          "internalType": "address",
          "name": "_itemAddr",
          "type": "address"
        },
        {
          "internalType": "enum ItemType",
          "name": "_itemType",
          "type": "uint8"
        },
        {
          "internalType": "bool",
          "name": "_approved",
          "type": "bool"
        }
      ],
      "name": "approveItem",
      "outputs": [],
      "stateMutability": "nonpayable",
      "type": "function"
    },
    {
      "inputs": [],
      "name": "auctionExpiration",
      "outputs": [
        {
          "internalType": "uint256",
          "name": "",
          "type": "uint256"
        }
      ],
      "stateMutability": "view",
      "type": "function"
    },
    {
      "inputs": [],
      "name": "auctionHouse",
      "outputs": [
        {
          "internalType": "contract AuctionHouse",
          "name": "",
          "type": "address"
        }
      ],
      "stateMutability": "view",
      "type": "function"
    },
    {
      "inputs": [
        {
          "internalType": "uint256[]",
          "name": "_heroes",
          "type": "uint256[]"
        }
      ],
      "name": "borrowHeroes",
      "outputs": [],
      "stateMutability": "nonpayable",
      "type": "function"
    },
    {
      "inputs": [],
      "name": "claim",
      "outputs": [],
      "stateMutability": "nonpayable",
      "type": "function"
    },
    {
      "inputs": [
        {
          "components": [
            {
              "internalType": "enum ItemType",
              "name": "itemType",
              "type": "uint8"
            },
            {
              "internalType": "address",
              "name": "addr",
              "type": "address"
            },
            {
              "internalType": "uint256[]",
              "name": "amounts",
              "type": "uint256[]"
            },
            {
              "internalType": "uint256[]",
              "name": "ids",
              "type": "uint256[]"
            }
          ],
          "internalType": "struct Item",
          "name": "_item",
          "type": "tuple"
        },
        {
          "internalType": "uint256",
          "name": "_initialPrice",
          "type": "uint256"
        }
      ],
      "name": "createAuctionAndBid",
      "outputs": [],
      "stateMutability": "nonpayable",
      "type": "function"
    },
    {
      "inputs": [],
      "name": "getBalance",
      "outputs": [
        {
          "internalType": "uint256",
          "name": "",
          "type": "uint256"
        }
      ],
      "stateMutability": "view",
      "type": "function"
    },
    {
      "inputs": [],
      "name": "getBorrowedHeroes",
      "outputs": [
        {
          "internalType": "uint256[]",
          "name": "",
          "type": "uint256[]"
        }
      ],
      "stateMutability": "view",
      "type": "function"
    },
    {
      "inputs": [
        {
          "internalType": "address",
          "name": "user",
          "type": "address"
        }
      ],
      "name": "getClaimable",
      "outputs": [
        {
          "internalType": "uint256",
          "name": "",
          "type": "uint256"
        }
      ],
      "stateMutability": "view",
      "type": "function"
    },
    {
      "inputs": [
        {
          "internalType": "address",
          "name": "_owner",
          "type": "address"
        }
      ],
      "name": "getHeroesOfOwner",
      "outputs": [
        {
          "internalType": "uint256[]",
          "name": "",
          "type": "uint256[]"
        }
      ],
      "stateMutability": "view",
      "type": "function"
    },
    {
      "inputs": [
        {
          "internalType": "uint256",
          "name": "",
          "type": "uint256"
        }
      ],
      "name": "heroOwners",
      "outputs": [
        {
          "internalType": "address",
          "name": "",
          "type": "address"
        }
      ],
      "stateMutability": "view",
      "type": "function"
    },
    {
      "inputs": [],
      "name": "maxHeroCount",
      "outputs": [
        {
          "internalType": "uint256",
          "name": "",
          "type": "uint256"
        }
      ],
      "stateMutability": "view",
      "type": "function"
    },
    {
      "inputs": [
        {
          "internalType": "address",
          "name": "",
          "type": "address"
        },
        {
          "internalType": "address",
          "name": "",
          "type": "address"
        },
        {
          "internalType": "uint256[]",
          "name": "",
          "type": "uint256[]"
        },
        {
          "internalType": "uint256[]",
          "name": "",
          "type": "uint256[]"
        },
        {
          "internalType": "bytes",
          "name": "",
          "type": "bytes"
        }
      ],
      "name": "onERC1155BatchReceived",
      "outputs": [
        {
          "internalType": "bytes4",
          "name": "",
          "type": "bytes4"
        }
      ],
      "stateMutability": "nonpayable",
      "type": "function"
    },
    {
      "inputs": [
        {
          "internalType": "address",
          "name": "",
          "type": "address"
        },
        {
          "internalType": "address",
          "name": "",
          "type": "address"
        },
        {
          "internalType": "uint256",
          "name": "",
          "type": "uint256"
        },
        {
          "internalType": "uint256",
          "name": "",
          "type": "uint256"
        },
        {
          "internalType": "bytes",
          "name": "",
          "type": "bytes"
        }
      ],
      "name": "onERC1155Received",
      "outputs": [
        {
          "internalType": "bytes4",
          "name": "",
          "type": "bytes4"
        }
      ],
      "stateMutability": "nonpayable",
      "type": "function"
    },
    {
      "inputs": [
        {
          "internalType": "address",
          "name": "",
          "type": "address"
        },
        {
          "internalType": "address",
          "name": "_from",
          "type": "address"
        },
        {
          "internalType": "uint256",
          "name": "_tokenId",
          "type": "uint256"
        },
        {
          "internalType": "bytes",
          "name": "",
          "type": "bytes"
        }
      ],
      "name": "onERC721Received",
      "outputs": [
        {
          "internalType": "bytes4",
          "name": "",
          "type": "bytes4"
        }
      ],
      "stateMutability": "nonpayable",
      "type": "function"
    },
    {
      "inputs": [],
      "name": "operator",
      "outputs": [
        {
          "internalType": "address",
          "name": "",
          "type": "address"
        }
      ],
      "stateMutability": "view",
      "type": "function"
    },
    {
      "inputs": [],
      "name": "owner",
      "outputs": [
        {
          "internalType": "address",
          "name": "",
          "type": "address"
        }
      ],
      "stateMutability": "view",
      "type": "function"
    },
    {
      "inputs": [],
      "name": "pause",
      "outputs": [],
      "stateMutability": "nonpayable",
      "type": "function"
    },
    {
      "inputs": [],
      "name": "paused",
      "outputs": [
        {
          "internalType": "bool",
          "name": "",
          "type": "bool"
        }
      ],
      "stateMutability": "view",
      "type": "function"
    },
    {
      "inputs": [],
      "name": "renounceOwnership",
      "outputs": [],
      "stateMutability": "nonpayable",
      "type": "function"
    },
    {
      "inputs": [],
      "name": "repayHeroes",
      "outputs": [],
      "stateMutability": "nonpayable",
      "type": "function"
    },
    {
      "inputs": [
        {
          "internalType": "uint256",
          "name": "_expiration",
          "type": "uint256"
        }
      ],
      "name": "setAuctionExpiration",
      "outputs": [],
      "stateMutability": "nonpayable",
      "type": "function"
    },
    {
      "inputs": [
        {
          "internalType": "uint256",
          "name": "_heroId",
          "type": "uint256"
        },
        {
          "internalType": "address",
          "name": "_owner",
          "type": "address"
        }
      ],
      "name": "setHeroOwner",
      "outputs": [],
      "stateMutability": "nonpayable",
      "type": "function"
    },
    {
      "inputs": [
        {
          "internalType": "uint256",
          "name": "_maxHeroCount",
          "type": "uint256"
        }
      ],
      "name": "setMaxHeroCount",
      "outputs": [],
      "stateMutability": "nonpayable",
      "type": "function"
    },
    {
      "inputs": [
        {
          "internalType": "address",
          "name": "_operator",
          "type": "address"
        }
      ],
      "name": "setOperator",
      "outputs": [],
      "stateMutability": "nonpayable",
      "type": "function"
    },
    {
      "inputs": [
        {
          "internalType": "bytes4",
          "name": "interfaceId",
          "type": "bytes4"
        }
      ],
      "name": "supportsInterface",
      "outputs": [
        {
          "internalType": "bool",
          "name": "",
          "type": "bool"
        }
      ],
      "stateMutability": "view",
      "type": "function"
    },
    {
      "inputs": [],
      "name": "totalLoans",
      "outputs": [
        {
          "internalType": "uint256",
          "name": "",
          "type": "uint256"
        }
      ],
      "stateMutability": "view",
      "type": "function"
    },
    {
      "inputs": [
        {
          "internalType": "address",
          "name": "newOwner",
          "type": "address"
        }
      ],
      "name": "transferOwnership",
      "outputs": [],
      "stateMutability": "nonpayable",
      "type": "function"
    },
    {
      "inputs": [],
      "name": "unpause",
      "outputs": [],
      "stateMutability": "nonpayable",
      "type": "function"
    },
    {
      "inputs": [
        {
          "internalType": "address",
          "name": "",
          "type": "address"
        }
      ],
      "name": "userLoans",
      "outputs": [
        {
          "internalType": "uint256",
          "name": "",
          "type": "uint256"
        }
      ],
      "stateMutability": "view",
      "type": "function"
    },
    {
      "inputs": [],
      "name": "withdrawalCollateral",
      "outputs": [],
      "stateMutability": "nonpayable",
      "type": "function"
    },
    {
      "inputs": [
        {
          "internalType": "uint256[]",
          "name": "_heroes",
          "type": "uint256[]"
        }
      ],
      "name": "withdrawalHeroes",
      "outputs": [],
      "stateMutability": "nonpayable",
      "type": "function"
    },
    {
      "stateMutability": "payable",
      "type": "receive"
    }
  ],
  "transactionHash": "0xad6b8d98b4e87c5a68c4e151959f7df979e3d5b9bdbbca25daed963c8a58566d",
  "args": [
    1000,
    "10000000000000000000000",
    "0xaE617f0519fc69112C1a6972eEb9B7D8144563c4",
    "0x5F753dcDf9b1AD9AabC1346614D1f4746fd6Ce5C"
  ],
  "numDeployments": 1,
  "solcInputHash": "cd3139da9f713fc45f84c2e0577a58a2",
  "bytecode": "0x60c06040523480156200001157600080fd5b5060405162002ce638038062002ce6833981016040819052620000349162000101565b6200003f3362000094565b6000805460ff60a01b1916905560049390935560a091909152600180546001600160a01b0319166001600160a01b039092169190911790556201518060025560601b6001600160601b0319166080526200014c565b600080546001600160a01b038381166001600160a01b0319831681178455604051919092169283917f8be0079c531659141344cd1fd0a4f28419497f9722a3daafe3b4186f6b6457e09190a35050565b80516001600160a01b0381168114620000fc57600080fd5b919050565b600080600080608085870312156200011857600080fd5b84519350602085015192506200013160408601620000e4565b91506200014160608601620000e4565b905092959194509250565b60805160601c60a051612b476200019f600039600081816106cc01526113b80152600081816103c7015281816108b101528181610a5201528181610bb30152818161123701526114700152612b476000f3fe6080604052600436106102085760003560e01c80639395be7811610118578063e46a7b9e116100a0578063f0d3b3961161006f578063f0d3b39614610638578063f23a6e6114610658578063f2fde38b14610684578063f8d6e9a3146106a4578063fa779648146106ba57600080fd5b8063e46a7b9e14610595578063e9e190a3146105cb578063ed9152c8146105f8578063ef6ef0fa1461061857600080fd5b8063bc197c81116100e7578063bc197c81146104f1578063c420f4f71461051d578063c8dfeb5e1461053d578063cc952b571461055d578063dfa816391461057357600080fd5b80639395be781461047c5780639e79d42b14610491578063a583024b146104b1578063b3ab15fb146104d157600080fd5b8063570ca7351161019b578063715018a61161016a578063715018a6146103ff5780637308704a146104145780638456cb59146104345780638da5cb5b146104495780639049073d1461046757600080fd5b8063570ca7351461035e5780635c975abb146103965780635d38c695146103b557806368c6bc30146103e957600080fd5b80633200ebd8116101d75780633200ebd8146102ff5780633f4ba83a1461031457806341e97c82146103295780634e71d92d1461034957600080fd5b806301ffc9a71461024c578063110702651461028157806312065fe0146102a3578063150b7a02146102c657600080fd5b3661024757604080513381523460208201527f714e0435d2ea0faa514ce7b66a98a00d2fabc02143213310adf29f3d43687aaa910160405180910390a1005b600080fd5b34801561025857600080fd5b5061026c610267366004612677565b6106ee565b60405190151581526020015b60405180910390f35b34801561028d57600080fd5b506102a161029c3660046126eb565b610725565b005b3480156102af57600080fd5b506102b861075d565b604051908152602001610278565b3480156102d257600080fd5b506102e66102e136600461245f565b610858565b6040516001600160e01b03199091168152602001610278565b34801561030b57600080fd5b506102a161096c565b34801561032057600080fd5b506102a1610b35565b34801561033557600080fd5b506102a161034436600461271d565b610b69565b34801561035557600080fd5b506102a1610cec565b34801561036a57600080fd5b5060035461037e906001600160a01b031681565b6040516001600160a01b039091168152602001610278565b3480156103a257600080fd5b50600054600160a01b900460ff1661026c565b3480156103c157600080fd5b5061037e7f000000000000000000000000000000000000000000000000000000000000000081565b3480156103f557600080fd5b506102b860045481565b34801561040b57600080fd5b506102a1610dc3565b34801561042057600080fd5b506102a161042f366004612567565b610df7565b34801561044057600080fd5b506102a1610fd1565b34801561045557600080fd5b506000546001600160a01b031661037e565b34801561047357600080fd5b506102a1611003565b34801561048857600080fd5b506102b8600681565b34801561049d57600080fd5b506102a16104ac3660046126eb565b611098565b3480156104bd57600080fd5b506102b86104cc366004612377565b6110c7565b3480156104dd57600080fd5b506102a16104ec366004612377565b611102565b3480156104fd57600080fd5b506102e661050c3660046123b1565b63bc197c8160e01b95945050505050565b34801561052957600080fd5b506102a16105383660046125b0565b61118b565b34801561054957600080fd5b506102a1610558366004612625565b6112c1565b34801561056957600080fd5b506102b860105481565b34801561057f57600080fd5b50610588611523565b60405161027891906127c3565b3480156105a157600080fd5b5061037e6105b03660046126eb565b6006602052600090815260409020546001600160a01b031681565b3480156105d757600080fd5b506102b86105e6366004612377565b600f6020526000908152604090205481565b34801561060457600080fd5b5060015461037e906001600160a01b031681565b34801561062457600080fd5b50610588610633366004612377565b6115c5565b34801561064457600080fd5b506102a16106533660046126a1565b61167f565b34801561066457600080fd5b506102e66106733660046124fe565b63f23a6e6160e01b95945050505050565b34801561069057600080fd5b506102a161069f366004612377565b61185f565b3480156106b057600080fd5b506102b860025481565b3480156106c657600080fd5b506102b87f000000000000000000000000000000000000000000000000000000000000000081565b60006001600160e01b03198216630271189760e51b148061071f57506301ffc9a760e01b6001600160e01b03198316145b92915050565b6000546001600160a01b031633146107585760405162461bcd60e51b815260040161074f9061283a565b60405180910390fd5b600455565b600154604080516326ee884560e11b815290516000926001600160a01b031691634ddd108a916004808301926020929190829003018186803b1580156107a257600080fd5b505afa1580156107b6573d6000803e3d6000fd5b505050506040513d601f19601f820116820180604052508101906107da9190612394565b6040516370a0823160e01b81523060048201526001600160a01b0391909116906370a082319060240160206040518083038186803b15801561081b57600080fd5b505afa15801561082f573d6000803e3d6000fd5b505050506040513d601f19601f820116820180604052508101906108539190612704565b905090565b60008054600160a01b900460ff16156108a65760405162461bcd60e51b815260206004820152601060248201526f14185d5cd8589b194e881c185d5cd95960821b604482015260640161074f565b336001600160a01b037f000000000000000000000000000000000000000000000000000000000000000016141561095a576000848152600660205260409020546001600160a01b0316156108fc576108fc612a6a565b60045460055411156109505760405162461bcd60e51b815260206004820152601d60248201527f4865726f42616e6b3a20657863656564206d61784865726f436f756e74000000604482015260640161074f565b61095a84866118fa565b50630a85bd0160e11b95945050505050565b6003546001600160a01b031633146109bf5760405162461bcd60e51b81526020600482015260166024820152752432b937a130b7359d103737ba1037b832b930ba37b960511b604482015260640161074f565b600060085411610a115760405162461bcd60e51b815260206004820152601a60248201527f4865726f42616e6b3a206e6f20626f72726f776564206865726f000000000000604482015260640161074f565b60005b600854811015610b2d57600060098260068110610a3357610a33612ac2565b01546003546040516323b872dd60e01b81529192506001600160a01b037f00000000000000000000000000000000000000000000000000000000000000008116926323b872dd92610a8c9216903090869060040161279f565b600060405180830381600087803b158015610aa657600080fd5b505af1158015610aba573d6000803e3d6000fd5b5050506000828152600660209081526040808320546001600160a01b0316808452600f909252822080549193506001929091610af790849061299c565b92505081905550600160106000828254610b11919061299c565b9250508190555050508080610b2590612a4f565b915050610a14565b506000600855565b6000546001600160a01b03163314610b5f5760405162461bcd60e51b815260040161074f9061283a565b610b6761198b565b565b6000546001600160a01b03163314610b935760405162461bcd60e51b815260040161074f9061283a565b6040516331a9108f60e11b81526004810183905230906001600160a01b037f00000000000000000000000000000000000000000000000000000000000000001690636352211e9060240160206040518083038186803b158015610bf557600080fd5b505afa158015610c09573d6000803e3d6000fd5b505050506040513d601f19601f82011682018060405250810190610c2d9190612394565b6001600160a01b031614610c795760405162461bcd60e51b815260206004820152601360248201527212195c9bd0985b9ace881b9bdd08199bdd5b99606a1b604482015260640161074f565b6000828152600660205260409020546001600160a01b031615610cde5760405162461bcd60e51b815260206004820152601760248201527f4865726f42616e6b3a20616c7265616479206f776e6564000000000000000000604482015260640161074f565b610ce882826118fa565b5050565b6000610cf7336110c7565b905060008111610d425760405162461bcd60e51b81526020600482015260166024820152754865726f42616e6b3a206e6f20636c61696d61626c6560501b604482015260640161074f565b336000908152600f602052604081208054908290556010805491928392610d6a9084906129f5565b90915550610d7b9050303384611a28565b60105460405133917f34fcbac0073d7c3d388e51312faf357774904998eeb8fca628b9e6f65ee1cbf791610db791858252602082015260400190565b60405180910390a25050565b6000546001600160a01b03163314610ded5760405162461bcd60e51b815260040161074f9061283a565b610b676000611b71565b6000546001600160a01b03163314610e215760405162461bcd60e51b815260040161074f9061283a565b6000826002811115610e3557610e35612a96565b1415610edc57600081610e49576000610e4d565b6000195b60015460405163095ea7b360e01b81526001600160a01b0391821660048201526024810183905291925085169063095ea7b390604401602060405180830381600087803b158015610e9d57600080fd5b505af1158015610eb1573d6000803e3d6000fd5b505050506040513d601f19601f82011682018060405250810190610ed5919061265a565b5050505050565b6001826002811115610ef057610ef0612a96565b1415610f635760015460405163a22cb46560e01b81526001600160a01b03918216600482015282151560248201529084169063a22cb465906044015b600060405180830381600087803b158015610f4657600080fd5b505af1158015610f5a573d6000803e3d6000fd5b50505050505050565b6002826002811115610f7757610f77612a96565b1415610fcc5760015460405163a22cb46560e01b81526001600160a01b03918216600482015282151560248201529084169063a22cb46590604401600060405180830381600087803b158015610f4657600080fd5b505050565b6000546001600160a01b03163314610ffb5760405162461bcd60e51b815260040161074f9061283a565b610b67611bc1565b6000546001600160a01b0316331461102d5760405162461bcd60e51b815260040161074f9061283a565b6008541561107d5760405162461bcd60e51b815260206004820152601b60248201527f4865726f42616e6b3a20756e72657475726e6564206865726f65730000000000604482015260640161074f565b610b676110926000546001600160a01b031690565b47611c49565b6000546001600160a01b031633146110c25760405162461bcd60e51b815260040161074f9061283a565b600255565b6010546001600160a01b0382166000908152600f60205260408120549091906110ee61075d565b6110f891906129d6565b61071f91906129b4565b6000546001600160a01b0316331461112c5760405162461bcd60e51b815260040161074f9061283a565b600380546001600160a01b038381166001600160a01b03198316811790935560408051938452911660208301819052917fd58299b712891143e76310d5e664c4203c940a67db37cf856bdaa3c5c76a802c910160405180910390a15050565b60005b81811015610fcc5760008383838181106111aa576111aa612ac2565b6020908102929092013560008181526006909352604090922054919250506001600160a01b03163381146112205760405162461bcd60e51b815260206004820152601860248201527f4865726f42616e6b3a206e6f74206865726f206f776e65720000000000000000604482015260640161074f565b604051632142170760e11b81526001600160a01b037f000000000000000000000000000000000000000000000000000000000000000016906342842e0e906112709030908590879060040161279f565b600060405180830381600087803b15801561128a57600080fd5b505af115801561129e573d6000803e3d6000fd5b505050506112ac8282611d62565b505080806112b990612a4f565b91505061118e565b6003546001600160a01b031633146113145760405162461bcd60e51b81526020600482015260166024820152752432b937a130b7359d103737ba1037b832b930ba37b960511b604482015260640161074f565b600854156113645760405162461bcd60e51b815260206004820152601b60248201527f4865726f42616e6b3a20756e72657475726e6564206865726f65730000000000604482015260640161074f565b6006815111156113b65760405162461bcd60e51b815260206004820152601d60248201527f4865726f42616e6b3a2065786365656420424f52524f575f4c494d4954000000604482015260640161074f565b7f00000000000000000000000000000000000000000000000000000000000000004710156114265760405162461bcd60e51b815260206004820152601b60248201527f4865726f42616e6b3a206e6f7420656e6f756768206d617267696e0000000000604482015260640161074f565b60005b815181101561151c5781818151811061144457611444612ac2565b60200260200101516009826006811061145f5761145f612ac2565b015560035482516001600160a01b037f00000000000000000000000000000000000000000000000000000000000000008116926323b872dd92309291909116908690869081106114b1576114b1612ac2565b60200260200101516040518463ffffffff1660e01b81526004016114d79392919061279f565b600060405180830381600087803b1580156114f157600080fd5b505af1158015611505573d6000803e3d6000fd5b50505050808061151490612a4f565b915050611429565b5051600855565b6060600060085467ffffffffffffffff81111561154257611542612ad8565b60405190808252806020026020018201604052801561156b578160200160208202803683370190505b50905060005b6008548110156115bf576009816006811061158e5761158e612ac2565b01548282815181106115a2576115a2612ac2565b6020908102919091010152806115b781612a4f565b915050611571565b50919050565b6001600160a01b03811660009081526007602052604081206060916115e982611def565b905060008167ffffffffffffffff81111561160657611606612ad8565b60405190808252806020026020018201604052801561162f578160200160208202803683370190505b50905060005b82811015611676576116478482611df9565b82828151811061165957611659612ac2565b60209081029190910101528061166e81612a4f565b915050611635565b50949350505050565b61168a333083611a28565b60015460025460405163bc51fbd360e01b81526000926001600160a01b03169163bc51fbd3916116c191879187919060040161286f565b602060405180830381600087803b1580156116db57600080fd5b505af11580156116ef573d6000803e3d6000fd5b505050506040513d601f19601f820116820180604052508101906117139190612704565b9050600160009054906101000a90046001600160a01b03166001600160a01b0316634ddd108a6040518163ffffffff1660e01b815260040160206040518083038186803b15801561176357600080fd5b505afa158015611777573d6000803e3d6000fd5b505050506040513d601f19601f8201168201806040525081019061179b9190612394565b60015460405163095ea7b360e01b81526001600160a01b0391821660048201526024810185905291169063095ea7b390604401602060405180830381600087803b1580156117e857600080fd5b505af11580156117fc573d6000803e3d6000fd5b505050506040513d601f19601f82011682018060405250810190611820919061265a565b50600154604051630742f0a960e41b815260048101839052602481018490523360448201526001600160a01b039091169063742f0a9090606401610f2c565b6000546001600160a01b031633146118895760405162461bcd60e51b815260040161074f9061283a565b6001600160a01b0381166118ee5760405162461bcd60e51b815260206004820152602660248201527f4f776e61626c653a206e6577206f776e657220697320746865207a65726f206160448201526564647265737360d01b606482015260840161074f565b6118f781611b71565b50565b600082815260066020908152604080832080546001600160a01b0319166001600160a01b03861690811790915583526007909152902061193a9083611e0c565b506005805490600061194b83612a4f565b9190505550806001600160a01b03167ff4dc75d25e9acb36512fa1f87cb7119b935da57bedfa0b72d2ed267cb71a136b83604051610db791815260200190565b600054600160a01b900460ff166119db5760405162461bcd60e51b815260206004820152601460248201527314185d5cd8589b194e881b9bdd081c185d5cd95960621b604482015260640161074f565b6000805460ff60a01b191690557f5db9ee0a495bf2e6ff9c91a7834c1ba4fdd244a5e8aa4e537bd38aeae4b073aa335b6040516001600160a01b03909116815260200160405180910390a1565b6001600160a01b038316301415611ad457610fcc8282600160009054906101000a90046001600160a01b03166001600160a01b0316634ddd108a6040518163ffffffff1660e01b815260040160206040518083038186803b158015611a8c57600080fd5b505afa158015611aa0573d6000803e3d6000fd5b505050506040513d601f19601f82011682018060405250810190611ac49190612394565b6001600160a01b03169190611e18565b610fcc838383600160009054906101000a90046001600160a01b03166001600160a01b0316634ddd108a6040518163ffffffff1660e01b815260040160206040518083038186803b158015611b2857600080fd5b505afa158015611b3c573d6000803e3d6000fd5b505050506040513d601f19601f82011682018060405250810190611b609190612394565b6001600160a01b0316929190611e7b565b600080546001600160a01b038381166001600160a01b0319831681178455604051919092169283917f8be0079c531659141344cd1fd0a4f28419497f9722a3daafe3b4186f6b6457e09190a35050565b600054600160a01b900460ff1615611c0e5760405162461bcd60e51b815260206004820152601060248201526f14185d5cd8589b194e881c185d5cd95960821b604482015260640161074f565b6000805460ff60a01b1916600160a01b1790557f62e78cea01bee320cd4e420270b5ea74000d11b0c9f74754ebdbfc544b05a258611a0b3390565b80471015611c995760405162461bcd60e51b815260206004820152601d60248201527f416464726573733a20696e73756666696369656e742062616c616e6365000000604482015260640161074f565b6000826001600160a01b03168260405160006040518083038185875af1925050503d8060008114611ce6576040519150601f19603f3d011682016040523d82523d6000602084013e611ceb565b606091505b5050905080610fcc5760405162461bcd60e51b815260206004820152603a60248201527f416464726573733a20756e61626c6520746f2073656e642076616c75652c207260448201527f6563697069656e74206d61792068617665207265766572746564000000000000606482015260840161074f565b600082815260066020908152604080832080546001600160a01b03191690556001600160a01b038416835260079091529020611d9e9083611ea2565b5060058054906000611daf83612a38565b9190505550806001600160a01b03167f4bf5d1b07686e0a2b1d9d1cc5d4a7db29045845488485a527798e52d1f993e3083604051610db791815260200190565b600061071f825490565b6000611e058383611eae565b9392505050565b6000611e058383611ed8565b6040516001600160a01b038316602482015260448101829052610fcc90849063a9059cbb60e01b906064015b60408051601f198184030181529190526020810180516001600160e01b03166001600160e01b031990931692909217909152611f27565b611e9c846323b872dd60e01b858585604051602401611e449392919061279f565b50505050565b6000611e058383611ff9565b6000826000018281548110611ec557611ec5612ac2565b9060005260206000200154905092915050565b6000818152600183016020526040812054611f1f5750815460018181018455600084815260208082209093018490558454848252828601909352604090209190915561071f565b50600061071f565b6000611f7c826040518060400160405280602081526020017f5361666545524332303a206c6f772d6c6576656c2063616c6c206661696c6564815250856001600160a01b03166120ec9092919063ffffffff16565b805190915015610fcc5780806020019051810190611f9a919061265a565b610fcc5760405162461bcd60e51b815260206004820152602a60248201527f5361666545524332303a204552433230206f7065726174696f6e20646964206e6044820152691bdd081cdd58d8d9595960b21b606482015260840161074f565b600081815260018301602052604081205480156120e257600061201d6001836129f5565b8554909150600090612031906001906129f5565b905081811461209657600086600001828154811061205157612051612ac2565b906000526020600020015490508087600001848154811061207457612074612ac2565b6000918252602080832090910192909255918252600188019052604090208390555b85548690806120a7576120a7612aac565b60019003818190600052602060002001600090559055856001016000868152602001908152602001600020600090556001935050505061071f565b600091505061071f565b60606120fb8484600085612103565b949350505050565b6060824710156121645760405162461bcd60e51b815260206004820152602660248201527f416464726573733a20696e73756666696369656e742062616c616e636520666f6044820152651c8818d85b1b60d21b606482015260840161074f565b6001600160a01b0385163b6121bb5760405162461bcd60e51b815260206004820152601d60248201527f416464726573733a2063616c6c20746f206e6f6e2d636f6e7472616374000000604482015260640161074f565b600080866001600160a01b031685876040516121d79190612783565b60006040518083038185875af1925050503d8060008114612214576040519150601f19603f3d011682016040523d82523d6000602084013e612219565b606091505b5091509150612229828286612234565b979650505050505050565b60608315612243575081611e05565b8251156122535782518084602001fd5b8160405162461bcd60e51b815260040161074f9190612807565b600082601f83011261227e57600080fd5b8135602067ffffffffffffffff82111561229a5761229a612ad8565b8160051b6122a982820161291b565b8381528281019086840183880185018910156122c457600080fd5b600093505b858410156122e75780358352600193909301929184019184016122c9565b50979650505050505050565b600082601f83011261230457600080fd5b813567ffffffffffffffff81111561231e5761231e612ad8565b612331601f8201601f191660200161291b565b81815284602083860101111561234657600080fd5b816020850160208301376000918101602001919091529392505050565b80356003811061237257600080fd5b919050565b60006020828403121561238957600080fd5b8135611e0581612aee565b6000602082840312156123a657600080fd5b8151611e0581612aee565b600080600080600060a086880312156123c957600080fd5b85356123d481612aee565b945060208601356123e481612aee565b9350604086013567ffffffffffffffff8082111561240157600080fd5b61240d89838a0161226d565b9450606088013591508082111561242357600080fd5b61242f89838a0161226d565b9350608088013591508082111561244557600080fd5b50612452888289016122f3565b9150509295509295909350565b60008060008060006080868803121561247757600080fd5b853561248281612aee565b9450602086013561249281612aee565b935060408601359250606086013567ffffffffffffffff808211156124b657600080fd5b818801915088601f8301126124ca57600080fd5b8135818111156124d957600080fd5b8960208285010111156124eb57600080fd5b9699959850939650602001949392505050565b600080600080600060a0868803121561251657600080fd5b853561252181612aee565b9450602086013561253181612aee565b93506040860135925060608601359150608086013567ffffffffffffffff81111561255b57600080fd5b612452888289016122f3565b60008060006060848603121561257c57600080fd5b833561258781612aee565b925061259560208501612363565b915060408401356125a581612b03565b809150509250925092565b600080602083850312156125c357600080fd5b823567ffffffffffffffff808211156125db57600080fd5b818501915085601f8301126125ef57600080fd5b8135818111156125fe57600080fd5b8660208260051b850101111561261357600080fd5b60209290920196919550909350505050565b60006020828403121561263757600080fd5b813567ffffffffffffffff81111561264e57600080fd5b6120fb8482850161226d565b60006020828403121561266c57600080fd5b8151611e0581612b03565b60006020828403121561268957600080fd5b81356001600160e01b031981168114611e0557600080fd5b600080604083850312156126b457600080fd5b823567ffffffffffffffff8111156126cb57600080fd5b8301608081860312156126dd57600080fd5b946020939093013593505050565b6000602082840312156126fd57600080fd5b5035919050565b60006020828403121561271657600080fd5b5051919050565b6000806040838503121561273057600080fd5b82359150602083013561274281612aee565b809150509250929050565b81835260006001600160fb1b0383111561276657600080fd5b8260051b8083602087013760009401602001938452509192915050565b60008251612795818460208701612a0c565b9190910192915050565b6001600160a01b039384168152919092166020820152604081019190915260600190565b6020808252825182820181905260009190848201906040850190845b818110156127fb578351835292840192918401916001016127df565b50909695505050505050565b6020815260008251806020840152612826816040850160208701612a0c565b601f01601f19169190910160400192915050565b6020808252818101527f4f776e61626c653a2063616c6c6572206973206e6f7420746865206f776e6572604082015260600190565b60608152600061287e85612363565b6003811061289c57634e487b7160e01b600052602160045260246000fd5b606083015260208501356128af81612aee565b6001600160a01b031660808301526128ca604086018661294c565b608060a08501526128df60e08501828461274d565b9150506128ef606087018761294c565b848303605f190160c086015261290683828461274d565b60208601979097525050505060400152919050565b604051601f8201601f1916810167ffffffffffffffff8111828210171561294457612944612ad8565b604052919050565b6000808335601e1984360301811261296357600080fd5b830160208101925035905067ffffffffffffffff81111561298357600080fd5b8060051b360383131561299557600080fd5b9250929050565b600082198211156129af576129af612a80565b500190565b6000826129d157634e487b7160e01b600052601260045260246000fd5b500490565b60008160001904831182151516156129f0576129f0612a80565b500290565b600082821015612a0757612a07612a80565b500390565b60005b83811015612a27578181015183820152602001612a0f565b83811115611e9c5750506000910152565b600081612a4757612a47612a80565b506000190190565b6000600019821415612a6357612a63612a80565b5060010190565b634e487b7160e01b600052600160045260246000fd5b634e487b7160e01b600052601160045260246000fd5b634e487b7160e01b600052602160045260246000fd5b634e487b7160e01b600052603160045260246000fd5b634e487b7160e01b600052603260045260246000fd5b634e487b7160e01b600052604160045260246000fd5b6001600160a01b03811681146118f757600080fd5b80151581146118f757600080fdfea2646970667358221220ece95d7b47f4f387c58bede76798f9ebde3a8aaa126f0a41536aa6021079e7cd64736f6c63430008070033",
  "devdoc": {
    "kind": "dev",
    "methods": {
      "owner()": {
        "details": "Returns the address of the current owner."
      },
      "paused()": {
        "details": "Returns true if the contract is paused, and false otherwise."
      },
      "renounceOwnership()": {
        "details": "Leaves the contract without owner. It will not be possible to call `onlyOwner` functions anymore. Can only be called by the current owner. NOTE: Renouncing ownership will leave the contract without an owner, thereby removing any functionality that is only available to the owner."
      },
      "supportsInterface(bytes4)": {
        "details": "See {IERC165-supportsInterface}."
      },
      "transferOwnership(address)": {
        "details": "Transfers ownership of the contract to a new account (`newOwner`). Can only be called by the current owner."
      }
    },
    "version": 1
  },
  "userdoc": {
    "kind": "user",
    "methods": {},
    "version": 1
  },
  "storageLayout": {
    "storage": [
      {
        "astId": 1568,
        "contract": "contracts/HeroBank.sol:HeroBank",
        "label": "_owner",
        "offset": 0,
        "slot": "0",
        "type": "t_address"
      },
      {
        "astId": 2905,
        "contract": "contracts/HeroBank.sol:HeroBank",
        "label": "_paused",
        "offset": 20,
        "slot": "0",
        "type": "t_bool"
      },
      {
        "astId": 10331,
        "contract": "contracts/HeroBank.sol:HeroBank",
        "label": "auctionHouse",
        "offset": 0,
        "slot": "1",
        "type": "t_contract(AuctionHouse)9101"
      },
      {
        "astId": 10333,
        "contract": "contracts/HeroBank.sol:HeroBank",
        "label": "auctionExpiration",
        "offset": 0,
        "slot": "2",
        "type": "t_uint256"
      },
      {
        "astId": 10335,
        "contract": "contracts/HeroBank.sol:HeroBank",
        "label": "operator",
        "offset": 0,
        "slot": "3",
        "type": "t_address"
      },
      {
        "astId": 10337,
        "contract": "contracts/HeroBank.sol:HeroBank",
        "label": "maxHeroCount",
        "offset": 0,
        "slot": "4",
        "type": "t_uint256"
      },
      {
        "astId": 10339,
        "contract": "contracts/HeroBank.sol:HeroBank",
        "label": "numHeroes",
        "offset": 0,
        "slot": "5",
        "type": "t_uint256"
      },
      {
        "astId": 10343,
        "contract": "contracts/HeroBank.sol:HeroBank",
        "label": "heroOwners",
        "offset": 0,
        "slot": "6",
        "type": "t_mapping(t_uint256,t_address)"
      },
      {
        "astId": 10348,
        "contract": "contracts/HeroBank.sol:HeroBank",
        "label": "ownedHeroes",
        "offset": 0,
        "slot": "7",
        "type": "t_mapping(t_address,t_struct(UintSet)7835_storage)"
      },
      {
        "astId": 10350,
        "contract": "contracts/HeroBank.sol:HeroBank",
        "label": "numBorrows",
        "offset": 0,
        "slot": "8",
        "type": "t_uint256"
      },
      {
        "astId": 10354,
        "contract": "contracts/HeroBank.sol:HeroBank",
        "label": "borrowedHeroes",
        "offset": 0,
        "slot": "9",
        "type": "t_array(t_uint256)6_storage"
      },
      {
        "astId": 10358,
        "contract": "contracts/HeroBank.sol:HeroBank",
        "label": "userLoans",
        "offset": 0,
        "slot": "15",
        "type": "t_mapping(t_address,t_uint256)"
      },
      {
        "astId": 10360,
        "contract": "contracts/HeroBank.sol:HeroBank",
        "label": "totalLoans",
        "offset": 0,
        "slot": "16",
        "type": "t_uint256"
      }
    ],
    "types": {
      "t_address": {
        "encoding": "inplace",
        "label": "address",
        "numberOfBytes": "20"
      },
      "t_array(t_bytes32)dyn_storage": {
        "base": "t_bytes32",
        "encoding": "dynamic_array",
        "label": "bytes32[]",
        "numberOfBytes": "32"
      },
      "t_array(t_uint256)6_storage": {
        "base": "t_uint256",
        "encoding": "inplace",
        "label": "uint256[6]",
        "numberOfBytes": "192"
      },
      "t_bool": {
        "encoding": "inplace",
        "label": "bool",
        "numberOfBytes": "1"
      },
      "t_bytes32": {
        "encoding": "inplace",
        "label": "bytes32",
        "numberOfBytes": "32"
      },
      "t_contract(AuctionHouse)9101": {
        "encoding": "inplace",
        "label": "contract AuctionHouse",
        "numberOfBytes": "20"
      },
      "t_mapping(t_address,t_struct(UintSet)7835_storage)": {
        "encoding": "mapping",
        "key": "t_address",
        "label": "mapping(address => struct EnumerableSet.UintSet)",
        "numberOfBytes": "32",
        "value": "t_struct(UintSet)7835_storage"
      },
      "t_mapping(t_address,t_uint256)": {
        "encoding": "mapping",
        "key": "t_address",
        "label": "mapping(address => uint256)",
        "numberOfBytes": "32",
        "value": "t_uint256"
      },
      "t_mapping(t_bytes32,t_uint256)": {
        "encoding": "mapping",
        "key": "t_bytes32",
        "label": "mapping(bytes32 => uint256)",
        "numberOfBytes": "32",
        "value": "t_uint256"
      },
      "t_mapping(t_uint256,t_address)": {
        "encoding": "mapping",
        "key": "t_uint256",
        "label": "mapping(uint256 => address)",
        "numberOfBytes": "32",
        "value": "t_address"
      },
      "t_struct(Set)7377_storage": {
        "encoding": "inplace",
        "label": "struct EnumerableSet.Set",
        "members": [
          {
            "astId": 7372,
            "contract": "contracts/HeroBank.sol:HeroBank",
            "label": "_values",
            "offset": 0,
            "slot": "0",
            "type": "t_array(t_bytes32)dyn_storage"
          },
          {
            "astId": 7376,
            "contract": "contracts/HeroBank.sol:HeroBank",
            "label": "_indexes",
            "offset": 0,
            "slot": "1",
            "type": "t_mapping(t_bytes32,t_uint256)"
          }
        ],
        "numberOfBytes": "64"
      },
      "t_struct(UintSet)7835_storage": {
        "encoding": "inplace",
        "label": "struct EnumerableSet.UintSet",
        "members": [
          {
            "astId": 7834,
            "contract": "contracts/HeroBank.sol:HeroBank",
            "label": "_inner",
            "offset": 0,
            "slot": "0",
            "type": "t_struct(Set)7377_storage"
          }
        ],
        "numberOfBytes": "64"
      },
      "t_uint256": {
        "encoding": "inplace",
        "label": "uint256",
        "numberOfBytes": "32"
      }
    }
  }
}