{
  "_format": "hh-sol-artifact-1",
  "contractName": "MockQuest",
  "sourceName": "contracts/mocks/MockQuest.sol",
  "abi": [
    {
      "inputs": [
        {
          "internalType": "uint256",
          "name": "_heroId",
          "type": "uint256"
        }
      ],
      "name": "cancelQuest",
      "outputs": [],
      "stateMutability": "view",
      "type": "function"
    },
    {
      "inputs": [
        {
          "internalType": "uint256",
          "name": "_heroId",
          "type": "uint256"
        }
      ],
      "name": "completeQuest",
      "outputs": [],
      "stateMutability": "view",
      "type": "function"
    },
    {
      "inputs": [
        {
          "internalType": "uint256[]",
          "name": "_heroIds",
          "type": "uint256[]"
        },
        {
          "internalType": "address",
          "name": "_questAddress",
          "type": "address"
        },
        {
          "internalType": "uint8",
          "name": "_attempts",
          "type": "uint8"
        }
      ],
      "name": "startQuest",
      "outputs": [],
      "stateMutability": "view",
      "type": "function"
    },
    {
      "inputs": [
        {
          "internalType": "uint256[]",
          "name": "_heroIds",
          "type": "uint256[]"
        },
        {
          "internalType": "address",
          "name": "_questAddress",
          "type": "address"
        },
        {
          "internalType": "uint8",
          "name": "_attempts",
          "type": "uint8"
        },
        {
          "components": [
            {
              "internalType": "uint256",
              "name": "uint1",
              "type": "uint256"
            },
            {
              "internalType": "uint256",
              "name": "uint2",
              "type": "uint256"
            },
            {
              "internalType": "uint256",
              "name": "uint3",
              "type": "uint256"
            },
            {
              "internalType": "uint256",
              "name": "uint4",
              "type": "uint256"
            },
            {
              "internalType": "int256",
              "name": "int1",
              "type": "int256"
            },
            {
              "internalType": "int256",
              "name": "int2",
              "type": "int256"
            },
            {
              "internalType": "string",
              "name": "string1",
              "type": "string"
            },
            {
              "internalType": "string",
              "name": "string2",
              "type": "string"
            },
            {
              "internalType": "address",
              "name": "address1",
              "type": "address"
            },
            {
              "internalType": "address",
              "name": "address2",
              "type": "address"
            },
            {
              "internalType": "address",
              "name": "address3",
              "type": "address"
            },
            {
              "internalType": "address",
              "name": "address4",
              "type": "address"
            }
          ],
          "internalType": "struct MockQuest.QuestData",
          "name": "_questData",
          "type": "tuple"
        }
      ],
      "name": "startQuestWithData",
      "outputs": [],
      "stateMutability": "view",
      "type": "function"
    }
  ],
  "bytecode": "0x608060405234801561001057600080fd5b506108e7806100206000396000f3fe608060405234801561001057600080fd5b506004361061004c5760003560e01c8063528be0a914610051578063c855dea31461006d578063f51333f514610089578063fe90ff7d146100a5575b600080fd5b61006b600480360381019061006691906105e3565b6100c1565b005b610087600480360381019061008291906104df565b610103565b005b6100a3600480360381019061009e919061054b565b610133565b005b6100bf60048036038101906100ba91906105e3565b6101f5565b005b6101006040518060400160405280601881526020017f636f6d706c65746551756573743a206865726f4964202564000000000000000081525082610237565b50565b61012d60405180606001604052806025815260200161088d60259139858590508360ff16856102d3565b50505050565b61015d60405180606001604052806031815260200161085c60319139868690508460ff16866102d3565b6101ee6040518060400160405280601581526020017f5175657374446174613a20737472696e67313d25730000000000000000000000815250828060c001906101a69190610716565b8080601f016020809104026020016040519081016040528093929190818152602001838380828437600081840152601f19601f82011690508083019250505050505050610375565b5050505050565b6102346040518060400160405280601681526020017f63616e63656c51756573743a206865726f49642025640000000000000000000081525082610237565b50565b6102cf828260405160240161024d92919061069a565b6040516020818303038152906040527f9710a9d0000000000000000000000000000000000000000000000000000000007bffffffffffffffffffffffffffffffffffffffffffffffffffffffff19166020820180517bffffffffffffffffffffffffffffffffffffffffffffffffffffffff8381831617835250505050610411565b5050565b61036f848484846040516024016102ed94939291906106ca565b6040516020818303038152906040527fbed728bf000000000000000000000000000000000000000000000000000000007bffffffffffffffffffffffffffffffffffffffffffffffffffffffff19166020820180517bffffffffffffffffffffffffffffffffffffffffffffffffffffffff8381831617835250505050610411565b50505050565b61040d828260405160240161038b929190610663565b6040516020818303038152906040527f4b5c4277000000000000000000000000000000000000000000000000000000007bffffffffffffffffffffffffffffffffffffffffffffffffffffffff19166020820180517bffffffffffffffffffffffffffffffffffffffffffffffffffffffff8381831617835250505050610411565b5050565b60008151905060006a636f6e736f6c652e6c6f679050602083016000808483855afa5050505050565b60008135905061044981610816565b92915050565b60008083601f84011261046157600080fd5b8235905067ffffffffffffffff81111561047a57600080fd5b60208301915083602082028301111561049257600080fd5b9250929050565b600061018082840312156104ac57600080fd5b81905092915050565b6000813590506104c48161082d565b92915050565b6000813590506104d981610844565b92915050565b600080600080606085870312156104f557600080fd5b600085013567ffffffffffffffff81111561050f57600080fd5b61051b8782880161044f565b9450945050602061052e8782880161043a565b925050604061053f878288016104ca565b91505092959194509250565b60008060008060006080868803121561056357600080fd5b600086013567ffffffffffffffff81111561057d57600080fd5b6105898882890161044f565b9550955050602061059c8882890161043a565b93505060406105ad888289016104ca565b925050606086013567ffffffffffffffff8111156105ca57600080fd5b6105d688828901610499565b9150509295509295909350565b6000602082840312156105f557600080fd5b6000610603848285016104b5565b91505092915050565b61061581610789565b82525050565b60006106268261076d565b6106308185610778565b93506106408185602086016107d2565b61064981610805565b840191505092915050565b61065d816107bb565b82525050565b6000604082019050818103600083015261067d818561061b565b90508181036020830152610691818461061b565b90509392505050565b600060408201905081810360008301526106b4818561061b565b90506106c36020830184610654565b9392505050565b600060808201905081810360008301526106e4818761061b565b90506106f36020830186610654565b6107006040830185610654565b61070d606083018461060c565b95945050505050565b6000808335600160200384360303811261072f57600080fd5b80840192508235915067ffffffffffffffff82111561074d57600080fd5b60208301925060018202360383131561076557600080fd5b509250929050565b600081519050919050565b600082825260208201905092915050565b60006107948261079b565b9050919050565b600073ffffffffffffffffffffffffffffffffffffffff82169050919050565b6000819050919050565b600060ff82169050919050565b60005b838110156107f05780820151818401526020810190506107d5565b838111156107ff576000848401525b50505050565b6000601f19601f8301169050919050565b61081f81610789565b811461082a57600080fd5b50565b610836816107bb565b811461084157600080fd5b50565b61084d816107c5565b811461085857600080fd5b5056fe7374617274517565737457697468446174613a202564206865726f732c20256420617474656d7074732c2025732c202564737461727451756573743a202564206865726f732c20256420617474656d7074732c202573a26469706673582212203c87d042ef733c85641647c44ccd9c1343307b0be5d947079d76645aceec06e164736f6c63430008040033",
  "linkReferences": {},
  "deployedLinkReferences": {}
}